:020000040800F2
:1000000000000320CD390008A9230008B723000809
:10001000BF230008C7230008CF230008000000000A
:10002000000000000000000000000000D7230008CE
:10003000E523000800000000F32300080124000865
:10004000213A0008213A0008213A00080D2400084E
:10005000213A0008213A00089B240008A92400083E
:10006000213A0008213A00088D240008213A0008AE
:10007000213A0008213A000819240008213A000812
:10008000213A0008213A0008213A0008213A0008E4
:10009000213A0008213A0008213A0008213A0008D4
:1000A000213A0008213A0008213A0008213A0008C4
:1000B000213A0008213A0008213A0008213A0008B4
:1000C000213A0008213A0008213A0008213A0008A4
:1000D0002D24000841240008213A0008213A000894
:1000E000213A0008213A0008213A0008213A000884
:1000F00055240008612400086D240008213A0008F6
:10010000213A0008213A0008213A0008213A000863
:10011000213A0008213A0008213A0008213A000853
:10012000213A0008213A000879240008213A000801
:0C013000213A0008213A0008213A00089A
:1001400010B5054C237833B9044B13B10448AFF311
:1001500000800123237010BD480200200000000031
:1001600048D0000808B5034B1BB103490348AFF35F
:10017000008008BD000000004C02002048D00008AC
:1001800001F0FF01102A2BDB10F0070F08D010F848
:10019000013B013A8B422DD010F0070F42B3F6D14C
:1001A000F0B441EA012141EA014122F007047FF065
:1001B00000070023F0E80256083C85EA010586EABC
:1001C000010685FA47F5A3FA87F586FA47F6A5FAF8
:1001D00087F68EB9EED1F0BC01F0FF0102F0070204
:1001E00032B110F8013B013A83EA010313B1F8D1AF
:1001F0000020704701387047002D06BF3546033890
:10020000073815F0010F07D1013015F4807F02BFC8
:10021000013015F4C03F0130F0BC0138704700BF19
:10022000034613F8012B002AFBD1181A0138704736
:1002300081F0004102E000BF83F0004330B54FEA97
:1002400041044FEA430594EA050F08BF90EA020F04
:100250001FBF54EA000C55EA020C7FEA645C7FEA97
:10026000655C00F0E2804FEA5454D4EB5555B8BFBA
:100270006D420CDD2C4480EA020281EA030382EA2B
:10028000000083EA010180EA020281EA0303362DBD
:1002900088BF30BD11F0004F4FEA01314FF4801C90
:1002A0004CEA113102D0404261EB410113F0004FA2
:1002B0004FEA03334CEA133302D0524263EB430359
:1002C00094EA050F00F0A780A4F10104D5F1200EF7
:1002D0000DDB02FA0EFC22FA05F2801841F1000152
:1002E00003FA0EF2801843FA05F359410EE0A5F126
:1002F00020050EF1200E012A03FA0EFC28BF4CF057
:10030000020C43FA05F3C01851EBE37101F000450C
:1003100007D54FF0000EDCF1000C7EEB00006EEB19
:100320000101B1F5801F1BD3B1F5001F0CD34908A3
:100330005FEA30004FEA3C0C04F101044FEA4452FA
:1003400012F5800F80F09A80BCF1004F08BF5FEA81
:10035000500C50F1000041EB045141EA050130BD61
:100360005FEA4C0C404141EB0101013C28BFB1F573
:10037000801FE9D291F0000F04BF01460020B1FABE
:1003800081F308BF2033A3F10B03B3F120020CDA91
:100390000C3208DD02F1140CC2F10C0201FA0CF06F
:1003A00021FA02F10CE002F11402D8BFC2F1200CD4
:1003B00001FA02F120FA0CFCDCBF41EA0C0190408A
:1003C000E41AA2BF01EB0451294330BD6FEA0404D3
:1003D0001F3C1CDA0C340EDC04F11404C4F12002BE
:1003E00020FA04F001FA02F340EA030021FA04F3D0
:1003F00045EA030130BDC4F10C04C4F1200220FA27
:1004000002F001FA04F340EA0300294630BD21FA64
:1004100004F0294630BD94F0000F83F4801306BF2A
:1004200081F480110134013D4EE77FEA645C18BF1E
:100430007FEA655C29D094EA050F08BF90EA020FB5
:1004400005D054EA000C04BF1946104630BD91EAAD
:10045000030F1EBF0021002030BD5FEA545C05D1B0
:100460004000494128BF41F0004130BD14F58004EF
:100470003CBF01F5801130BD01F0004545F0FE4163
:1004800041F470014FF0000030BD7FEA645C1ABF98
:10049000194610467FEA655C1CBF0B46024650EACF
:1004A000013406BF52EA033591EA030F41F40021FB
:1004B00030BD00BF90F0000F04BF0021704730B581
:1004C0004FF4806404F132044FF000054FF0000156
:1004D00050E700BF90F0000F04BF0021704730B517
:1004E0004FF4806404F1320410F0004548BF4042EC
:1004F0004FF000013EE700BF42004FEAE2014FEA41
:1005000031014FEA02701FBF12F07F4393F07F4F1B
:1005100081F06051704732F07F4208BF704793F01E
:100520007F4F04BF41F40021704730B54FF4607431
:1005300001F0004521F000411CE700BF50EA010234
:1005400008BF704730B54FF000050AE050EA0102DD
:1005500008BF704730B511F0004502D5404261EB4D
:1005600041014FF4806404F132045FEA915C3FF48E
:10057000D8AE4FF003025FEADC0C18BF03325FEA2B
:10058000DC0C18BF033202EBDC02C2F1200300FADC
:1005900003FC20FA02F001FA03FE40EA0E0021FA01
:1005A00002F11444BDE600BF70B54FF0FF0C4CF4EF
:1005B000E06C1CEA11541DBF1CEA135594EA0C0FA1
:1005C00095EA0C0F00F0DEF82C4481EA030621EADC
:1005D0004C5123EA4C5350EA013518BF52EA033517
:1005E00041F4801143F4801338D0A0FB02CE4FF0C9
:1005F0000005E1FB02E506F00042E0FB03E54FF0F9
:100600000006E1FB03569CF0000F18BF4EF0010EF0
:10061000A4F1FF04B6F5007F64F5407404D25FEAEC
:100620004E0E6D4146EB060642EAC62141EA55519F
:100630004FEAC52040EA5E504FEACE2EB4F1FD0CE1
:1006400088BFBCF5E06F1ED8BEF1004F08BF5FEA5F
:10065000500E50F1000041EB045170BD06F0004611
:1006600046EA010140EA020081EA0301B4EB5C04BE
:10067000C2BFD4EB0C0541EA045170BD41F48011B6
:100680004FF0000E013C00F3AB8014F1360FDEBFDB
:10069000002001F0004170BDC4F10004203C35DAB7
:1006A0000C341BDC04F11404C4F1200500FA05F33A
:1006B00020FA04F001FA05F240EA020001F00042DB
:1006C00021F0004110EBD37021FA04F642EB060151
:1006D0005EEA430E08BF20EAD37070BDC4F10C047B
:1006E000C4F1200500FA04F320FA05F001FA04F23F
:1006F00040EA020001F0004110EBD37041F100012B
:100700005EEA430E08BF20EAD37070BDC4F1200535
:1007100000FA05F24EEA020E20FA04F301FA05F29D
:1007200043EA020321FA04F001F0004121FA04F245
:1007300020EA020000EBD3705EEA430E08BF20EA15
:10074000D37070BD94F0000F0FD101F0004640004F
:1007500041EB010111F4801F08BF013CF7D041EAD1
:10076000060195F0000F18BF704703F000465200D5
:1007700043EB030313F4801F08BF013DF7D043EAA6
:100780000603704794EA0C0F0CEA135518BF95EA5C
:100790000C0F0CD050EA410618BF52EA4306D1D1E3
:1007A00081EA030101F000414FF0000070BD50EA02
:1007B000410606BF1046194652EA430619D094EA8C
:1007C0000C0F02D150EA013613D195EA0C0F05D176
:1007D00052EA03361CBF104619460AD181EA0301CA
:1007E00001F0004141F0FE4141F470014FF0000082
:1007F00070BD41F0FE4141F4780170BD70B54FF01D
:10080000FF0C4CF4E06C1CEA11541DBF1CEA13559C
:1008100094EA0C0F95EA0C0F00F0A7F8A4EB05047E
:1008200081EA030E52EA03354FEA013100F0888075
:100830004FEA03334FF0805545EA131343EA12633E
:100840004FEA022245EA111545EA10654FEA0026F3
:100850000EF000419D4208BF964244F1FD0404F5AC
:10086000407402D25B084FEA3202B61A65EB030508
:100870005B084FEA32024FF480104FF4002CB6EBC5
:10088000020E75EB030E22BFB61A754640EA0C0045
:100890005B084FEA3202B6EB020E75EB030E22BF85
:1008A000B61A754640EA5C005B084FEA3202B6EBC6
:1008B000020E75EB030E22BFB61A754640EA9C0085
:1008C0005B084FEA3202B6EB020E75EB030E22BF55
:1008D000B61A754640EADC0055EA060E18D04FEA13
:1008E000051545EA16754FEA06164FEAC30343EAB3
:1008F00052734FEAC2025FEA1C1CC0D111F4801F80
:100900000BD141EA00014FF000004FF0004CB6E778
:1009100011F4801F04BF01430020B4F1FD0C88BF17
:10092000BCF5E06F3FF6AFAEB5EB030C04BFB6EB22
:10093000020C5FEA500C50F1000041EB045170BD15
:100940000EF0004E4EEA113114EB5C04C2BFD4EB42
:100950000C0541EA045170BD41F480114FF0000EC6
:10096000013C90E645EA060E8DE60CEA135594EA42
:100970000C0F08BF95EA0C0F3FF43BAF94EA0C0F45
:100980000AD150EA01347FF434AF95EA0C0F7FF4BA
:1009900025AF104619462CE795EA0C0F06D152EA0E
:1009A00003353FF4FDAE1046194622E750EA4106F2
:1009B00018BF52EA43067FF4C5AE50EA41047FF403
:1009C0000DAF52EA43057FF4EBAE12E74FF0FF3C68
:1009D00006E000BF4FF0010C02E000BF4FF0010C39
:1009E0004DF804CD4FEA410C7FEA6C5C4FEA430CB2
:1009F00018BF7FEA6C5C1BD001B050EA410C0CBF01
:100A000052EA430C91EA030F02BF90EA020F002062
:100A1000704710F1000F91EA030F58BF994208BFC9
:100A200090422CBFD8176FEAE37040F00100704786
:100A30004FEA410C7FEA6C5C02D150EA013C07D1DD
:100A40004FEA430C7FEA6C5CD6D152EA033CD3D028
:100A50005DF8040B704700BF8446104662468C4622
:100A60001946634600E000BF01B5FFF7B7FF002855
:100A700048BF10F1000F01BD4DF808EDFFF7F4FF7E
:100A80000CBF012000205DF808FB00BF4DF808ED09
:100A9000FFF7EAFF34BF012000205DF808FB00BF2C
:100AA0004DF808EDFFF7E0FF94BF012000205DF84E
:100AB00008FB00BF4DF808EDFFF7CEFF94BF012003
:100AC00000205DF808FB00BF4DF808EDFFF7C4FFFC
:100AD00034BF012000205DF808FB00BF4FEA410C45
:100AE0007FEA6C5C02D150EA013C0AD14FEA430C28
:100AF0007FEA6C5C02D152EA033C02D14FF0000065
:100B000070474FF0010070474FEA410212F50012A2
:100B100015D211D56FF47873B3EB625212D94FEA44
:100B2000C12343F0004343EA505311F0004F23FA2E
:100B300002F018BF404270474FF00000704750EA83
:100B4000013005D111F0004008BF6FF00040704740
:100B50004FF00000704700BFB0B588B000AF0B4B3E
:100B60003C1D1D460FCD0FC495E8070003C422802D
:100B70000234130C237009F031FA3B1D184608F0BB
:100B8000C0F800BF2037BD46B0BD00BF60D0000830
:100B900080B584B000AFF8600B467A607B817A89BB
:100BA0007B68F968002001F04DF900BF1037BD46A1
:100BB00080BD000080B483B000AF7860074BD3F8ED
:100BC000803023F0070205497B681343C1F8803069
:100BD00000BF0C37BD465DF8047B70470004005829
:100BE00080B483B000AF7860064BD3F890200549FD
:100BF0007B681343C1F8903000BF0C37BD465DF8E9
:100C0000047B70470008005880B483B000AF786060
:100C10004FF0B0430A4AC3F89C204FF0B043D3F8DA
:100C20009C3023F47C527B681B024FF0B04113438D
:100C3000C1F89C3000BF0C37BD465DF8047B70479F
:100C4000FECAFECA80B483B000AF78604FF0B043F4
:100C50009B6823F400424FF0B0417B6813438B60E4
:100C600000BF0C37BD465DF8047B704780B400AF11
:100C7000044B1B68C3F30B031846BD465DF8047BA9
:100C8000704700BF002004E080B400AF044B1B6835
:100C90001B0C9BB21846BD465DF8047B704700BF35
:100CA000002004E080B483B000AF78607B68FF224E
:100CB0005A6200BF0C37BD465DF8047B704780B4B4
:100CC00083B000AF78607B68CA225A627B68532287
:100CD0005A6200BF0C37BD465DF8047B704780B494
:100CE00083B000AF786039607B689B6823F00702AF
:100CF0003B681A437B689A6000BF0C37BD465DF8BD
:100D0000047B704780B500AF044B4FF400421A617A
:100D100000F024F800F029F800BF80BD0040005822
:100D200080B500AF00F035F800F04EF80349002020
:100D300000F01CFE00F056F800BF80BD400500200A
:100D400080B400AF00BFBD465DF8047B704780B53E
:100D500000AF5020FFF744FF00BF80BD80B400AF5C
:100D600000BFBD465DF8047B704780B582B000AF20
:100D7000002007F087FF78607B68002B05D07B6838
:100D80009B791846FFF740FF00BF00BF0837BD46FC
:100D900080BD80B500AFFFF7D3FFFFF7D8FF00F0AD
:100DA00003F800BF80BD000080B500AF0548FFF725
:100DB00086FF00210348FFF792FF0248FFF772FF0A
:100DC00000BF80BD0028004080B500AF4FF4004058
:100DD000FFF738FF09F08EF90420FFF7EBFE00BFA4
:100DE00080BD000080B588B000AF08F041FF114A17
:100DF0000021402009F0BCFA0F4B3B600F4B7B6099
:100E00003B4619460E4808F057F80E4BBB600E4B98
:100E1000FB600E4B3B6140F23C537B6107F10803E2
:100E2000184609F067F808F01DFF00BF2037BD46DF
:100E300080BD00BFF18E000834070320510E00086A
:100E4000690E00084C09032040080320F801032024
:100E500080B483B000AF0346FB7100BF0C37BD46C2
:100E60005DF8047B7047000080B588B000AF786003
:100E70007B685B680B33FB61FB691B889BB2A3F546
:100E80001243072B60D801A252F823F0AD0E0008E0
:100E9000EF0E0008FD0E0008490F0008190F0008AA
:100EA000290F0008310F0008410F000807F10C035B
:100EB000184607F053FF3B7B19467B7B1A46BB7BEA
:100EC00024480AF0ADF83B7C194623480AF0A8F8FC
:100ED000BB7D1946FB7D1A463B7E20480AF0A0F8F0
:100EE0001F480AF09DF8786800F070F82DE01D4862
:100EF0000AF096F8786800F043F826E01A480AF0FD
:100F0000FFF8FB6902331968FB6902335B681A4614
:100F100016480AF085F818E0FB6902331B68194689
:100F200013480AF07DF810E012480AF079F80CE056
:100F3000FB6902331B6819460F480AF071F804E098
:100F40000E480AF06DF800E000BF00BF2037BD4634
:100F500080BD00BF7CD00008A0D00008BCD0000835
:100F6000D4D00008F4D0000818D1000868D10008D7
:100F700090D10008CCD10008F0D100082CD2000894
:100F800080B584B000AF78607B685B680B33FB6032
:100F9000FB680233BB60BB681B78194608480AF03F
:100FA0003FF8BB681B78002B03D106480AF0A8F86D
:100FB00003E005480AF0A4F800BF1037BD4680BD25
:100FC00050D2000880D20008BCD2000880B58AB098
:100FD00000AF786007F1080300221A605A609A6037
:100FE000DA6000237B6200233B627B685B680B3323
:100FF000FB61FB690233BB61BB691B78002B28D105
:101000001D480AF07DF8FFF7A7FD0F233B727F23F1
:10101000BB72FFF739FE7862796A18480AF000F867
:101020007B6A9BB2BB82FFF721FE3862396A1448A3
:1010300009F0F6FF3B6A9BB2FB8207F108031846F2
:1010400007F076FE01F006FB0021012009F064F8AC
:101050000EE0BB691B78012B06D10A4809F0E0FFBE
:101060007B6800221A7003E0074809F0D9FF00BF2F
:101070002837BD4680BD00BFF4D2000810D3000859
:1010800034D3000854D3000888D3000880B500AFDB
:101090004FF0FF3009F070F800BF80BD80B400AFA2
:1010A00000BFBD465DF8047B704780B582B000AFDD
:1010B000786039604FF0FF3009F05EF800BF083704
:1010C000BD4680BD80B582B000AF78600021402071
:1010D00009F070F900BF0837BD4680BD80B582B009
:1010E00000AF7860022009F0D1F900BF0837BD4693
:1010F00080BD80B582B000AF7860022009F0E6F9CB
:1011000000BF0837BD4680BD80B582B000AF034642
:10111000FB80FB88102B06D0102B0DDC012B05D09B
:10112000022B06D008E001F051FD06E001F06CFD55
:1011300003E001F08BFD00E000BF00BF0837BD46B3
:1011400080BD000080B483B000AF7860064BD3F858
:10115000802005497B681343C1F8803000BF0C37FD
:10116000BD465DF8047B70470008005880B483B02A
:1011700000AF7860054B1A6804497B6813430B6025
:1011800000BF0C37BD465DF8047B7047000800586F
:1011900080B483B000AF0D4B9B6A9BB27B600B4B5E
:1011A0009B6A9BB23B6005E03B687B60074B9B6A98
:1011B0009BB23B607A683B689A42F5D13B6818461F
:1011C0000C37BD465DF8047B704700BF0028004027
:1011D00080B485B000AF03460A46FB711346BB716D
:1011E000BA791D4913465B001344DB000B441533E9
:1011F0001B78FB73FB7B062B09D0FA7B1649134641
:101200005B001344DB000B441433FA791A70FA794B
:10121000114913465B001344DB000B441533FA7B82
:101220001A70FA790C4913465B001344DB000B4437
:101230001433BA791A70BA79074913465B0013441C
:10124000DB000B441533FA791A7000BF1437BD4622
:101250005DF8047B704700BF6402002080B485B055
:1012600000AF03460A46FB711346BB71294B1B783E
:10127000DBB2BA799A4232D0BA79274913465B0079
:101280001344DB000B4414331B78FB73FA7B2249B5
:1012900013465B001344DB000B441533FA791A70D4
:1012A000FA791D4913465B001344DB000B441533E8
:1012B000BA791A70FA79184913465B001344DB00B7
:1012C0000B441433FA7B1A70BA79134913465B0046
:1012D0001344DB000B441433FA791A7014E0FA79E2
:1012E0000D4913465B001344DB000B441533BA79F8
:1012F0001A70BA79084913465B001344DB000B44AB
:101300001433FA791A7000BF1437BD465DF8047BB8
:10131000704700BFF40200206402002080B584B052
:1013200000AF0346FB714E4B1B78DBB2062B18D186
:101330004B4B1B78DAB24B4B1A70494AFB7913704E
:10134000FA79494913465B001344DB000B4415331B
:1013500006221A70454B4FF0FF321A600023FB81C2
:1013600078E000F009F90346FB81FA793E4913461B
:101370005B001344DB000B4408331968FB89FA79DE
:101380001944394813465B001344DB000344083317
:101390001960FA79344913465B001344DB000B44AF
:1013A00008331B68BB602E4B1B78DBB219462E4AF4
:1013B0000B465B000B44DB00134408331B68BA6820
:1013C0009A4237D3264B1B787B737A7B2649134688
:1013D0005B001344DB000B4415331B783B7313E0B5
:1013E0007A7B214913465B001344DB000B44153321
:1013F0001B787B737A7B1C4913465B001344DB002C
:101400000B4415331B783B733B7B062B0BD03A7B8D
:10141000154913465B001344DB000B4408331B687B
:10142000BA689A42DCD27A7BFB7911461846FFF7FC
:10143000CFFE0FE00A4B1B78DAB2FB791146184653
:10144000FFF70CFF064B1B78DAB2064B1A70044A02
:10145000FB791370FB8918461037BD4680BD00BF6D
:10146000F4020020F502002064020020F8020020AF
:1014700080B485B000AF03460A46FB711346BB71CA
:10148000394B1B78DBB2FA799A4211D1364B1B7873
:10149000DAB2364B1A70FA79354913465B001344B9
:1014A000DB000B4415331B78DAB22F4B1A703EE089
:1014B000FA792F4913465B001344DB000B441433C5
:1014C0001B78FB73FA792A4913465B001344DB004F
:1014D0000B4415331B78BB73F979FA7B24480B4610
:1014E0005B000B44DB00034415331B78D8B2204962
:1014F00013465B001344DB000B44153302461A709D
:10150000BB7B062B13D0F979BA7B19480B465B00DD
:101510000B44DB00034414331B78D8B21449134640
:101520005B001344DB000B44143302461A70FA7953
:101530000F4913465B001344DB000B440C330122BC
:101540001A70094B1B78DBB2062B07D1BB79002B35
:1015500004D1084B4FF0FF321A6000BF00BF1437B0
:10156000BD465DF8047B7047F4020020F5020020C0
:1015700064020020F802002080B582B000AF1A4B50
:101580001B68B3F1FF3F26D0FFF702FE7860164BD1
:101590001B687A689A4205D8134B1A687B68D31A7D
:1015A0007B600AE0114B1B881A467B68D31A3B60AC
:1015B0000D4B1B683A6813447B600D4B1B781A4631
:1015C0007B6802FB03F37B600A4B1B781A467B683F
:1015D000D3407B6001E000237B607B689BB21846B0
:1015E0000837BD4680BD00BFF80200200003002080
:1015F000FE020020FD02002080B582B000AF03464D
:10160000FB80FB88002B08D1FFF7C2FD0346214A6F
:101610001360032002F05FFC39E0FB88012B03D844
:101620001D4B1B78012B02D0FB88013BFB8000BFC8
:101630001A4B1B68DB6803F00403002BF8D0174B30
:101640001B68DB68DAB2154B1B6862F49062DA60E3
:10165000134B4FF40022DA60032002F04AFC114BD6
:101660005B691B0C1B04FA880E4913434B61FFF79F
:101670008FFD0346074A1360084B1B689A68074BA7
:101680001B6842F480629A60AFF3008000BF0837A5
:10169000BD4680BDF8020020FD020020400500206C
:1016A000000800580028004080B584B000AF454BCA
:1016B0009B6803F48063B3F5806F07D100BF424B92
:1016C0001B68DB6803F00403002BF8D13E4B1B685A
:1016D0009A683D4B1B6822F480629A603B4B1B78F2
:1016E000FB73FA7B3A4913465B001344DB000B445F
:1016F00008331B68BB60FFF73FFF0346FB80FB8896
:10170000BA689A4205D20023BB81324B01221A707B
:101710004DE0FB88304A128892B213441A46BB68E7
:10172000934206D92C4B1B88BB812A4B00221A708E
:101730003DE0BB689AB2FB88D31ABB81254B0122DE
:101740001A7034E0FA7B224913465B001344DB0035
:101750000B4408331A68FB889A420AD2FA7B1C4968
:1017600013465B001344DB000B44083300221A606D
:1017700013E0FA7B164913465B001344DB000B446D
:1017800008331968FB88FA7BC91A114813465B00B5
:101790001344DB00034408331960FA7B0C491346F9
:1017A0005B001344DB000B4415331B78FB73FB7B9E
:1017B000062BC7D1BB891846FFF71EFF00BF1037A5
:1017C000BD4680BD0028004040050020F4020020F6
:1017D00064020020FC0200200203002080B58AB0D1
:1017E00000AFEFF310837B617B697B6272B600BF51
:1017F000594B1B68CA225A62574B1B6853225A62C4
:10180000554B1B689A68544B1B6822F480629A609F
:10181000524B1B7887F8233097F823205049134602
:101820005B001344DB000B440C331B78DBB2022B50
:101830006ED197F823204A4913465B001344DB001E
:101840000B441B68FB6197F82320454913465B0056
:101850001344DB000B4410331B68BB61414B1B7806
:10186000DBB2002B4CD097F823203D4913465B0098
:101870001344DB000B440D331B78DBB2012B24D166
:1018800097F8233001211846FFF7F2FD7B6A3B6190
:101890003B6983F3108800BF97F823203049134633
:1018A0005B001344DB000B4404331A6897F82330C1
:1018B0001146184600F032FA274B1B68CA225A62BA
:1018C000254B1B6853225A6212E07B6AFB60FB685F
:1018D00083F3108800BF97F82330184600F09AF978
:1018E0001D4B1B68CA225A621B4B1B6853225A624B
:1018F00097F82330FA691946B86900F095FA22E0A2
:10190000FFF7D2FE7B6ABB60BB6883F310881AE0E6
:1019100000BF114B1B68DB6803F00403002BF8D0F9
:101920000D4B1B68DB68DAB20B4B1B6862F49062EC
:10193000DA600D4B4FF40022DA607B6A7B607B68D3
:1019400083F3108800BF044B1B68FF225A6200BF5C
:101950002837BD4680BD00BF40050020F4020020AE
:1019600064020020FC0200200008005880B588B006
:1019700000AF03463960FB715E4B1B68CA225A6296
:101980005C4B1B6853225A625B4B9B685A4A43F07C
:1019900020039360584B9B68DBB203F00703DBB274
:1019A000C3F10403DAB2554B1A70534B1B6903F4AD
:1019B000FE034FF4FE023A613A6992FAA2F2FA602B
:1019C000FA687A617A69002A01D1202203E07A69F3
:1019D000B2FA82F2D2B2D340DBB20133DAB2484B70
:1019E0001A70454B1B699BB2C3F30E039BB20133C4
:1019F0009AB2444B1A80434B1B88013B404A1278F1
:101A000002FB03F3A3F5A0733C4A1278D340BB61F9
:101A1000BB694FF6FE72934204D93B4B4FF6FF72FF
:101A20001A8003E0BB699AB2374B1A804FF400204A
:101A3000FFF79CFB4FF40020FFF784FBFB79002BA2
:101A40003DD1324B01221A70314B4FF0FF321A60F8
:101A50000023FB770CE0FA7F2E4913465B0013440A
:101A6000DB000B440C3300221A70FB7F0133FB7741
:101A7000FB7F052BEFD9284B06221A701D4B1B68E4
:101A80009A681C4B1B6822F480629A60194B1B6891
:101A9000DB68DAB2174B1B6862F49062DA601F4BA6
:101AA0004FF40022DA60032002F023FA114B1B6886
:101AB0009A68104B1B6842F480429A6009E00D4B13
:101AC0001B68DB6803F48063002B02D0032002F064
:101AD00002FA084B1B68FF225A62002203210320EE
:101AE00002F0B7F9032002F0CEF900BF2037BD465F
:101AF00080BD00BF4005002000280040FD020020FE
:101B0000FE0200200003002002030020FC0200204F
:101B1000F802002064020020F402002000080058AF
:101B200080B48BB000AFF860B9603B601346FB71C6
:101B3000002387F82630EFF31083FB61FB693B62DB
:101B400072B600BF04E097F82630013387F82630DC
:101B500097F82630052B0CD897F826202C491346E9
:101B60005B001344DB000B440C331B78DBB2002B0F
:101B7000E9D197F82630062B38D097F8262024494B
:101B800013465B001344DB000B440C3301221A7034
:101B90003B6ABB61BB6983F3108800BF97F82620BE
:101BA0001B4913465B001344DB000B441033FA68F7
:101BB0001A6097F82620164913465B001344DB0091
:101BC0000B440D33FA791A7097F826201049134602
:101BD0005B001344DB000B443A681A60BB6897F85B
:101BE00026201A70002387F8273008E03B6A7B61C3
:101BF0007B6983F3108800BF012387F8273097F8AB
:101C0000273018462C37BD465DF8047B704700BF6F
:101C10006402002080B586B000AF0346FB71EFF38D
:101C20001083FB60FB687B6172B600BF032002F08B
:101C300038F9344B1B68CA225A62324B1B68532254
:101C40005A62FA79304913465B001344DB000B44B7
:101C50000C331B78DBB2022B42D1FB7900211846F2
:101C6000FFF706FC294B1B78FB74FB7C062B2FD15E
:101C7000274B9B6803F48063B3F5806F07D100BFE7
:101C8000204B1B68DB6803F00403002BF8D11D4BCD
:101C90001B689A681B4B1B6822F480629A6000BF25
:101CA000184B1B68DB6803F00403002BF8D0154BBE
:101CB0001B68DB68DAB2134B1B6862F49062DA606F
:101CC000144B4FF40022DA60032002F012F907E00F
:101CD000114B1B78DBB2FA7C9A4201D0FFF7E4FC8F
:101CE000084B1B68FF225A62032002F0CCF87B6984
:101CF000BB60BB6883F3108800BF00BF1837BD46C8
:101D000080BD00BF4005002064020020F4020020D6
:101D10000028004000080058F502002080B586B079
:101D200000AF03463960FB71FA793B4913465B000B
:101D30001344DB000B440C331B78DBB2022B03D1C2
:101D4000FB791846FFF766FFEFF31083FB60FB6833
:101D50007B6172B600BF032002F0A3F82F4B1B6813
:101D6000CA225A622D4B1B6853225A62FA792A49B9
:101D700013465B001344DB000B440C3302221A7041
:101D8000FA79254913465B001344DB000B44083302
:101D90003A681A60FA79204913465B001344DB0065
:101DA0000B4404333A681A60FB791846FFF7B6FA19
:101DB00003467B821A4B1B787B741A4B1B78DBB271
:101DC0007A7C9A4202D0FFF76FFC13E0FA7912494D
:101DD00013465B001344DB000B44083319687B8A0D
:101DE000FA79C91A0C4813465B001344DB0003441C
:101DF00008331960094B1B68FF225A62032002F066
:101E000042F87B69BB60BB6883F3108800BF00BFEA
:101E10001837BD4680BD00BF640200204005002089
:101E2000F4020020F502002080B584B000AFF86015
:101E30000B467A60FB727B68984700BF1037BD463F
:101E400080BD000080B586B000AFB9607B600346FE
:101E5000FB731346BB810023FB750023BB75FB7B23
:101E6000002B0ED1174A7B681360174B174A1A6074
:101E7000BB891A46B968144804F0ACFA0346FB75EE
:101E800000E000BFFB7D032B16D801A252F823F01F
:101E9000A11E0008A71E0008AD1E0008B31E000802
:101EA0000023BB7509E00123BB7506E00223BB7567
:101EB00003E00323BB7500E000BFBB7D1846183765
:101EC000BD4680BD04030020D80300200038014037
:101ED00080B582B000AF78607B681B681A46094BFA
:101EE0009A4207D1084B1B68002B05D0064B1B6894
:101EF000984701E000BF00E000BF00BF0837BD46C3
:101F000080BD00BF003801400403002080B483B0CE
:101F100000AF78604FF0B043D3F8903023F0180250
:101F20004FF0B0417B681343C1F8903000BF0C37CD
:101F3000BD465DF8047B704780B485B000AF786023
:101F40004FF0B0439A6C4FF0B0417B6813438B6401
:101F50004FF0B0439A6C7B681340FB60FB6800BF96
:101F60001437BD465DF8047B704780B485B000AF80
:101F700078604FF0B043DA6C4FF0B0417B681343A8
:101F8000CB644FF0B043DA6C7B681340FB60FB68B6
:101F900000BF1437BD465DF8047B704780B500AFC5
:101FA00001F096FDFEF7AEFE00F014F800F070F8B8
:101FB00000F08EF800F00FF900F0F0F800F0BAF839
:101FC00000F0A2F800F098F8FEF7AAFEFFF75EF81E
:101FD000FCE7000080B59AB000AF07F1200348226B
:101FE0000021184609F06CF93B1D00221A605A6066
:101FF0009A60DA601A615A619A6102F071FA0020FF
:10200000FFF784FF214B1B6823F4C0631F4A43F48E
:10201000007313601D4B1B6803F4C0633B603B6897
:1020200047233B624FF480337B620123BB624FF452
:102030008073FB620123BB6440233B630023FB648A
:1020400007F12003184602F0C7FD0346002B01D01C
:1020500000F0CEF86F237B600223BB600023FB609F
:1020600000233B6100237B610023BB610023FB61F4
:102070003B1D0121184603F023F90346002B01D034
:1020800000F0B6F800BF6837BD4680BD00040058B8
:1020900080B594B000AF3B4650220021184609F0AD
:1020A0000FF94FF440533B604FF480437B640223AD
:1020B000BB641023FB643B46184603F012FD034645
:1020C000002B01D000F094F800BF5037BD4680BD12
:1020D00080B500AF064B074A1A60054802F07AF94E
:1020E0000346002B01D000F083F800BF80BD00BF85
:1020F00008030020000C005880B400AF00BFBD46AC
:102100005DF8047B7047000080B500AF074B084ABC
:102110001A60064B00225A60044803F069FF034628
:10212000002B01D000F064F800BF80BD2C0500201A
:102130000010005880B500AF164B174A1A60154BB7
:1021400000225A60134B0F229A60124B47F6FF721F
:10215000DA60104B00221A610E4B00229A610D4B7F
:102160000022DA610B4B00225A610A4803F076FF25
:102170000346002B01D000F03BF800220021054867
:1021800004F06CF80346002B01D000F031F800BFDA
:1021900080BD00BF400500200028004080B500AF92
:1021A0000420FFF7C9FE0120FFF7C6FE0220FFF75B
:1021B000C3FE00220F210E2001F04BFE0E2001F085
:1021C00062FE00220F213A2001F043FE3A2001F086
:1021D0005AFE00BF80BD80B500AF0420FFF7C5FEEA
:1021E0000120FFF7C2FE0220FFF7BFFE00BF80BD47
:1021F00080B400AF00BFBD465DF8047B704780B47B
:1022000000AF4FF0B043D3F890304FF0B04243F4FA
:102210000043C2F8903000BFBD465DF8047B7047B4
:1022200080B485B000AF78604FF0B0431A6D4FF0C6
:10223000B0417B6813430B654FF0B0431A6D7B6868
:102240001340FB60FB6800BF1437BD465DF8047B9C
:10225000704780B485B000AF78604FF0B0439A6D9E
:102260004FF0B0417B6813438B654FF0B0439A6DDC
:102270007B681340FB60FB6800BF1437BD465DF808
:10228000047B704780B500AF4FF40020FFF7C8FF14
:10229000002200212E2001F0DCFD2E2001F0F3FDB4
:1022A00000BF80BD80B582B000AF78607B681B68DE
:1022B0000D4A934213D14FF48010FFF7B1FF002273
:1022C00000212C2001F0C5FD2C2001F0DCFD0022B6
:1022D00000212D2001F0BDFD2D2001F0D4FD00BF17
:1022E0000837BD4680BD00BF000C005880B596B0D1
:1022F00000AF786007F1080350220021184608F06B
:10230000DFFF7B681B680D4A934213D14FF40073C3
:10231000BB604FF080533B6407F10803184603F09D
:10232000E0FB0346002B01D0FFF762FF4FF4802053
:10233000FFF776FF00BF5837BD4680BD001000583C
:1023400080B596B000AF786007F1080350220021F5
:10235000184608F0B5FF7B681B68124A93421DD1EE
:102360004FF40063BB604FF48073BB6407F1080354
:10237000184603F0B6FB0346002B01D0FFF738FFE9
:10238000FFF73DFF4FF48060FFF763FF002200215D
:10239000032001F05EFD032001F075FD00BF5837FA
:1023A000BD4680BD0028004080B400AF00BFBD46E0
:1023B0005DF8047B704780B400AF00BFFDE780B4D8
:1023C00000AF00BFFDE780B400AF00BFFDE780B401
:1023D00000AF00BFFDE780B400AF00BFBD465DF8B1
:1023E000047B704780B400AF00BFBD465DF8047B3E
:1023F000704780B400AF00BFBD465DF8047B7047F6
:1024000080B500AF01F0BEFB00BF80BD80B500AF5E
:10241000FFF7E4F900BF80BD80B500AF024801F0CE
:10242000AFFE00BF80BD00BF6C04002080B500AFD0
:10243000024804F04FF800BF80BD00BFD803002061
:1024400080B500AF024804F045F800BF80BD00BF72
:102450004403002080B500AF01F06EF900BF80BDDD
:1024600080B500AF01F09EF900BF80BD80B500AF20
:1024700001F08CFF00BF80BD80B500AF024801F0C5
:102480007FFE00BF80BD00BFCC04002080B500AF40
:10249000102001F063FF00BF80BD80B500AF0120B8
:1024A00001F05CFF00BF80BD80B500AF022001F0ED
:1024B00055FF00BF80BD80B400AF01231846BD4664
:1024C0005DF8047B704780B582B000AF78603960FA
:1024D00008F048FF034616221A604FF0FF331846F3
:1024E0000837BD4680BD80B582B000AF78604FF040
:1024F000FF317868FFF7E7FF00BFFDE780B586B0E2
:1025000000AFF860B9607A6000237B610AE0AFF346
:1025100000800146BB685A1CBA60CAB21A707B6957
:1025200001337B617A697B689A42F0DB7B681846ED
:102530001837BD4680BD80B483B000AF78604FF0DF
:10254000FF3318460C37BD465DF8047B704780B4F6
:1025500083B000AF786039603B684FF400525A6036
:10256000002318460C37BD465DF8047B704780B4E5
:1025700083B000AF7860012318460C37BD465DF884
:10258000047B704780B485B000AFF860B9607A60B2
:10259000002318461437BD465DF8047B70470000E1
:1025A00080B586B000AF7860144A154BD31A7B61B2
:1025B0007B693B61134B1B68002B02D1114B124A04
:1025C0001A60104B1A687B6813443A699A4207D222
:1025D00008F0C8FE03460C221A604FF0FF3309E0F2
:1025E000084B1B68FB60074B1A687B681344054A5D
:1025F0001360FB6818461837BD4680BD00000320F5
:1026000000100000640500209808002080B400AF8E
:10261000034B1B681846BD465DF8047B704700BF3E
:102620008075FF1F80B400AF034B1B68DBB21846F8
:10263000BD465DF8047B70478475FF1F80B400AF12
:10264000034B1B681B0A1846BD465DF8047B7047A8
:102650008475FF1FB0B590B000AF324B3C1D1D46D6
:102660000FCD0FC40FCD0FC40FCD0FC495E80700D9
:1026700003C4228000F058FB0121022007F04CFD2A
:10268000294A0021042007F073FE3B1D184606F07E
:1026900021FB034687F83F3097F83F30002B08D0E6
:1026A00097F83F301946214808F0BAFCFFF7A0FD23
:1026B00002E01F4808F0B4FC00F04CFB07F02CFAD5
:1026C0001C4B002283F880201A4B4FF6FF72DA82EF
:1026D000194A0021012007F04BFE00F08BFE00F0AC
:1026E000C1FE164B8922DA70154B002215490020D5
:1026F000FFF716FA0F4B02225A760E4B01221A767A
:1027000041F60D0000F0E2FD0F4B80221A800F4BC6
:10271000A0221A80012000F0E9FC00BF4037BD462E
:10272000B0BD00BF70D400089D86000810D400081A
:1027300048D4000870050020353300080800002048
:1027400025330008F1050020F4050020F6050020DF
:10275000B0B590B004AF7860922387F82F307B68D3
:102760000133BB62BB6A1B78FF2B00F00C81FF2B8F
:1027700000F30482052B02D03E2B24D0FEE1BB6A7D
:102780000233FB60FB68B3F801309AB2AB4BDB8AD3
:102790009A4214D1A94B0022DA82A84B002283F876
:1027A0008020A74808F0ACFCFB68B3F801309BB26E
:1027B0001946FB68DB781A46A24808F031FC012074
:1027C00000F094FCDDE1BB6A0233FB61FB691B781E
:1027D0000C2B33D00C2B00F3D480012B6CD0032BAB
:1027E00040F0CF80FB6901337B61974808F088FC9B
:1027F0007B69B3F803309BB21846FDF76BFE4FF0D0
:102800000002924BFDF7D0FE02460B4610461946D9
:102810007B69B3F805309BB21C467B69B3F807307F
:102820009BB21A4613469B0013445B00019300942D
:1028300002460B46864808F0F3FBA3E0FB69013330
:10284000BB61844808F0ECFBBB691B78002B03D10B
:10285000814808F055FC02E0804808F051FC774BB5
:10286000DB8A07F10A0207F10B01184605F03EFC6E
:10287000034687F82F3097F82F30002B03D0784885
:1028800008F0CEFB7EE0774808F03AFCFB7A022B9A
:102890000AD1BB7A022B07D1FB7A1946BB7A1A46BA
:1028A000714808F0BDFB6DE0FB7A1946BB7A1A4609
:1028B0006D4808F0B5FB65E0FB6901333B615F4B98
:1028C00093F881301846FFF7A5F93B69B3F801305A
:1028D0009BB21946654808F0A3FB3B699B7A1846F2
:1028E0003B695B7A1C463B691B7A1D463B69DB7979
:1028F0001A463B699B7919463B695B7902930191C2
:1029000000922B4622460146594808F089FB3B6954
:10291000B3F80B309BB21846FDF7DCFD4FF0000218
:102920004A4BFDF741FE02460B46104619463B69ED
:10293000B3F80D309BB21C463B69B3F80F309BB225
:102940001A4613469B0013445B0001930094024611
:102950000B463F4808F064FB384B93F88030042B5B
:1029600004D1364B062283F8802003E0334B052246
:1029700083F880203B69B3F801309AB22F4BDA829A
:1029800000E000BFFDE0BB6A02337B627B6A1B880C
:102990009BB240F20A42934222DCB3F5806FC0F250
:1029A000EF80A3F580630A2B00F2EA8001A252F8BF
:1029B00023F000BFED2900082B2B0008F5290008A3
:1029C0002B2A0008332A0008912A0008812B0008CE
:1029D000612B0008C52A0008D52A0008CD2A000866
:1029E00040F60E42934200F0BF80C9E0214808F053
:1029F00087FBC2E0204808F083FB104BDB8A1F49AD
:102A0000184604F082FC034687F82F3097F82F30E1
:102A1000002B06D097F82F301946194808F000FB14
:102A2000ABE0184808F06CFBA7E0174808F068FB1B
:102A3000A3E0164808F064FB9FE000BF700500208B
:102A4000ACD40008D8D4000814D500080000F43F26
:102A500048D50008B4D50008E4D50008F0D5000832
:102A6000FCD500081CD600083CD6000860D600083B
:102A7000A8D60008F8D6000828D7000840E20100D0
:102A800050D7000884D70008ACD70008D8D7000872
:102A90003E4808F035FB3E4BDB8A184604F05AFEF0
:102AA000034687F82F3097F82F30002B06D097F881
:102AB0002F301946374808F0B3FA5EE0364808F080
:102AC0001FFB5AE0354808F01BFB56E0344808F07D
:102AD00017FB52E0334808F013FB7B6A0233D3F84C
:102AE00002301946304808F09BFA7B6A0233D3F86B
:102AF000023019462D4808F093FA254BDB8A012154
:102B0000184604F07BFE034687F82F3097F82F30E5
:102B1000002B06D097F82F301946254808F080FA88
:102B20002BE0244808F0ECFA27E07B6A02333B6292
:102B3000214808F0E5FA3B6A9B78002B03D11F4837
:102B400008F0DEFA08E03B6A9B7819463B6ADB78BE
:102B50001A461B4808F064FA0A2008F073FA0CE0E1
:102B6000184808F05DFA08E0174808F059FA084BD1
:102B7000DB8A184605F055F900BF01E000BF00E010
:102B800000BF012318463037BD46B0BD10D800083D
:102B90007005002034D8000864D800088CD80008DC
:102BA000B8D80008E8D800081CD9000838D90008AF
:102BB00050D90008A0D90008E8D9000814DA0008A4
:102BC0002CDA000868DA000890DA000880B582B0D4
:102BD00000AF9223FB7104F099FD0346FB71FB7972
:102BE000002B05D0FB791946054808F019FA02E0D8
:102BF000044808F085FA00BF0837BD4680BD00BF15
:102C0000B8DA0008ECDA000880B582B000AF922391
:102C1000FB710B4BDB8A184604F08BFC0346FB71FF
:102C2000FB79002B05D0FB791946064808F0F8F926
:102C300002E0054808F064FA00BF0837BD4680BDD1
:102C40007005002018DB000850DB000880B584B058
:102C500002AF9223FB712D4BDB8A7A1DB91D1846FA
:102C600005F044FA0346FB71FB79002B03D028489A
:102C700008F0D6F945E0274808F042FABB79194632
:102C80007B791A46244808F0CBF9BB79022B1DD179
:102C90007B79022B1AD101220121204808F0C0F9CA
:102CA0001A4BD88A0023009301230122002105F04A
:102CB00018FB0346FB71FB79002B03D0184808F082
:102CC000AFF91EE0174808F0ABF91AE00222022122
:102CD000124808F0A5F90D4BD88A0023009302236F
:102CE0000222002105F0FDFA0346FB71FB79002B5F
:102CF00003D00B4808F094F903E00A4808F090F973
:102D0000FFE700BF0837BD4680BD00BF700500204B
:102D10007CDB00089CDB0008BCDB0008E0DB000873
:102D200014DC00081CDC000880B582B000AF064B44
:102D30003B60064B7B603B461946054805F092FC1C
:102D400000BF0837BD4680BD28000320BF33000800
:102D500087330008F0B58DB006AF4FF450733B8059
:102D60009223FB75924808F0CBF905F09BF90346D6
:102D7000FB75FB7D002B05D0FB7D19468D4808F0C7
:102D80004FF902E08C4808F0BBF900F05BFA3861BB
:102D90003A690621002005F099F80346FB75FB7D92
:102DA000002B05D0FB7D1946844808F039F921E055
:102DB000834808F0A5F93B6905331B7818463B6941
:102DC00004331B781C463B6903331B781D463B6963
:102DD00002331B781A463B6901331B7819463B695D
:102DE0001B780293019100922B46224601467548BA
:102DF00008F016F93B6905331A78734B1A723B6970
:102E000004331A78704B5A723B6903331A786E4B4D
:102E10009A723B6902331A786B4BDA723B69013361
:102E20001A78694B1A733B691A78674B5A73674A69
:102E30001021182005F04AF80346FB75FB7D002B96
:102E400005D0FB7D1946624808F0EAF802E06148C7
:102E500008F056F9604A1021082005F037F80346BB
:102E6000FB75FB7D002B05D0FB7D19465B4808F008
:102E7000D7F802E05A4808F043F91821012005F07C
:102E8000AAF80346FB75FB7D002B05D0FB7D194698
:102E9000544808F0C5F802E0534808F031F904F04E
:102EA00014FD0346FB75FB7D002B05D0FB7D194609
:102EB0004E4808F0B5F802E04D4808F021F900232B
:102EC000FB73FB7B43F00103FB73FB7B002B35D0D3
:102ED000484BBB60BA1DF87BBB1C01933B1D0093A4
:102EE00013460722002104F077FA0346FB75FB7DA9
:102EF000002B05D0FB7D19463F4808F091F802E011
:102F00003E4808F0FDF8FC88BD88B868FDF788F9F0
:102F10000346DAB2BB6800931346002229462046D6
:102F200004F0D6FE0346FB75FB7D002B03D034482E
:102F300008F0E6F802E0334808F0E2F8F88879880B
:102F40003B4600930223002204F0C2FE0346FB75B9
:102F5000FB7D002B03D02C4808F0D2F802E02B4870
:102F600008F0CEF802220221002005F03DF90346C8
:102F7000FB75FB7D002B05D0FB7D1946244808F02E
:102F80004FF802E0234808F0BBF8234B01221A70E7
:102F9000214B1B78184604F0A0F80346FB75FB7D17
:102FA000002B3DD0FB7D19461C4808F039F83AE06B
:102FB00028DC000854DC000884DC0008A4DC0008DD
:102FC00000DD00084CDD0008080000205CE8000877
:102FD00088DD0008E0DD00086CE8000828DE000855
:102FE00080DE0008C8DE000808DF000838DF0008BF
:102FF0006CDF000890DF0008A4DF0008D4DF0008C1
:10300000F4DF000828E000085CE0000890E0000819
:10301000C4E0000800E10008700500202CE1000871
:103020002A4808F06DF82A4B01225A70284B0822D2
:103030001A71274B10225A71254B0022DA70244B4B
:10304000244A9A60224B01229A70214B9C78204B93
:103050005D781F4B1B791E4A52791D49C9781C485F
:103060008068002604960390029101920093002349
:1030700001222946204604F084F80346FB75FB7DB7
:10308000002B05D0FB7D1946134807F0C9FF02E06D
:10309000124808F035F80E4B9B78002B0FD004F047
:1030A00011FB0346FB75FB7D002B05D0FB7D19460C
:1030B0000B4807F0B5FF02E00A4808F021F80A487B
:1030C00007F0AEFF00BF1C37BD46F0BD6CE1000845
:1030D0007005002007B201009CE10008E8E100084B
:1030E00024E2000864E2000894E2000880B58CB095
:1030F00008AF0346FB719223FB72FB79012B06D1CB
:10310000414B1B88FB81414B1B88BB8105E04FF481
:10311000C863FB814FF47A63BB813D4B93F88130E8
:103120001846FEF777FDFB79022B19D1384B93F83F
:103130008030012B04D0364B93F88030022B0FD116
:1031400003F0ADFE0346FB72FB7A002B05D0FB7A41
:103150001946304807F064FF02E02F4807F0D0FF1F
:103160002B4AFB7982F88030294B1B7EBA89F9897A
:103170000020069000200590284804900393284BD7
:10318000029306230193002300930023002003F001
:10319000AAFE0346FB72FB7A002B05D0FB7A194688
:1031A000204807F03DFF02E01F4807F0A9FF1F4934
:1031B0000E2004F015FA0346FB72FB7A002B0ED0AA
:1031C000FB79012B05D1FB7A1946194807F028FF36
:1031D00017E0FB7A1946174807F022FF11E0FB7948
:1031E000012B0AD1144807F01BFF094B93F88130DB
:1031F00012491846FEF792FD03E0114807F010FF50
:1032000000BF1037BD4680BDF4050020F605002044
:1032100070050020C0E200080CE3000889050020CA
:103220007CE8000854E300088CE300080800002054
:10323000B4E30008E8E3000820E4000846E00100E9
:1032400048E4000880B586B000AFFFF7DFF93861C9
:103250003B69B3F1FF3F23D0FFF7F0F9B860FFF708
:10326000E1F978603B69DAB2164B1A703B691B0AC8
:10327000DAB2144B5A707B68DAB2124B9A70BB68A0
:10328000DAB2104BDA70BB681B0ADAB20D4B1A7156
:10329000BB681B0CDAB20B4B5A710A4B7B610BE01B
:1032A000002005F0EFFCF860FB68002B02D0FB6803
:1032B0007B6101E0044B7B617B6918461837BD4692
:1032C00080BD00BF6805002054E8000880B483B0CA
:1032D00000AF0346FB80124B1B7E1946FB88DAB217
:1032E0000F4B0B445A760E4B1B7E0133DAB20C4B5C
:1032F0001A76FB881B0A9AB2094B1B7E1946D2B27A
:10330000074B0B445A76064B1B7E0133DAB2044B53
:103310001A7600BF0C37BD465DF8047B704700BFCE
:103320007005002080B500AF0021012007F042F8B1
:1033300000BF80BD80B500AF0220FFF7D7FE00BF01
:1033400080BD80B582B000AF78600021042007F016
:1033500031F800BF0837BD4680BD80B582B000AFF0
:103360007860012007F092F800BF0837BD4680BDA5
:1033700080B582B000AF7860012007F0A7F800BFE9
:103380000837BD4680BD80B584B000AF78607B68EB
:10339000FB60FB685B680833184606F00FFC0346C9
:1033A000FB72FB7A002B03D0FB6801221A7003E04A
:1033B000FB6800221A7000BF1037BD4680BD80B583
:1033C00084B000AF0346FB71FB79002B02D0012BC8
:1033D00006D00BE03F23FB60F86807F017F805E024
:1033E0003F23FB60F86807F031F800BF00BF1037DB
:1033F000BD4680BD80B582B000AF074B3B60042363
:103400003B713B46194642F6292005F005F900BFFD
:103410000837BD4680BD00BF78E4000880B582B0A3
:1034200000AF78607B681B78012B02D0022B0DD097
:1034300012E00B4B5B7A1846FEF7ECFB084B5B7A0D
:1034400040F601011846FEF769FC05E0044B5B7A83
:103450001846FEF7DFFB00BF00BF0837BD4680BD42
:10346000F805002080B582B000AF1B4A0021022081
:1034700006F07EFF194B00221A72184B04221A70B4
:10348000164942F6382005F0C3FB144B1F22DA71AF
:10349000124BDB7903F01003002B12D00F4B0122EB
:1034A0009A710023FB7109E0FB790C4A5B0013441D
:1034B0004FF480629A80FB790133FB71FB79002B1A
:1034C000F2D0074B012207490020FEF729FB00BF7D
:1034D0000837BD4680BD00BFE9340008F80500206C
:1034E000153500080106002080B582B000AF0C231E
:1034F0007B607B689AB2054B5A80054942F63720BB
:1035000005F086FB00BF0837BD4680BDF8050020EA
:10351000FA05002080B500AF0021022006F04AFF26
:1035200000BF80BD80B400AF054BDB68044A43F4A4
:103530000043D36000BFBD465DF8047B704700BF09
:103540000004005880B483B000AF7860064BD3F815
:10355000D42005497B681343C1F8D43000BF0C3731
:10356000BD465DF8047B70470008005880B483B006
:1035700000AF7860054B1A6A04497B6813430B62FD
:1035800000BF0C37BD465DF8047B7047000800584B
:1035900080B485B000AF78604FF0B0431A6D4FF043
:1035A000B0417B6813430B654FF0B0431A6D7B68E5
:1035B0001340FB60FB6800BF1437BD465DF8047B19
:1035C000704780B485B000AF78604FF0B043D3F857
:1035D00050214FF0B0417B681343C1F850314FF098
:1035E000B043D3F850217B681340FB60FB6800BFF9
:1035F0001437BD465DF8047B704780B483B000AFDC
:1036000078607B681B6843F480327B681A6000BF77
:103610000C37BD465DF8047B704780B483B000AFC3
:1036200078607B681B6843F001027B681A6000BF0A
:103630000C37BD465DF8047B704780B483B000AFA3
:10364000786039607B685A683B681B04DB431A402A
:103650007B685A6000BF0C37BD465DF8047B70473D
:1036600080B483B000AF786039607B685A683B688B
:103670001B041A437B685A6000BF0C37BD465DF8D7
:10368000047B704780B483B000AF786039607B689A
:103690005A683B68DB431A407B685A6000BF0C37AE
:1036A000BD465DF8047B704780B483B000AF78609E
:1036B00039607B683A689A6000BF0C37BD465DF898
:1036C000047B704780B483B000AF786039603B689A
:1036D0001A047B689A6000BF0C37BD465DF8047B16
:1036E000704780B483B000AF786039607B68DA6877
:1036F0003B6813403A689A4201D1012300E000235D
:1037000018460C37BD465DF8047B704780B483B023
:1037100000AF786039607B68DA693B6813403A68CB
:103720009A4201D1012300E0002318460C37BD4620
:103730005DF8047B7047000080B500AF0221184897
:10374000FFF7E4FF0346002B08D0154B5B6803F03E
:103750000203002B02D100F0D5F81EE00121104831
:10376000FFF7D4FF0346002B08D00D4B5B6803F036
:103770000103002B02D100F089F80EE0082108486F
:10378000FFF7C4FF0346002B08D0054B5B6803F02E
:103790000803002B02D100F001F900BF00BF80BD7B
:1037A000000C005880B500AF02211848FFF799FFC0
:1037B0000346002B08D1154B5B6803F40033002B44
:1037C00002D100F093F81EE008211048FFF789FFAE
:1037D0000346002B08D10D4B5B6803F40023002B3C
:1037E00002D100F0BDF80EE020210848FFF779FF74
:1037F0000346002B08D1054B5B6803F40013002B34
:1038000002D100F04FF800BF00BF80BD000C00588F
:1038100080B500AF4FF48010FFF7D3FE4FF4007077
:10382000FFF7A4FE4FF40070FFF78CFE40BF20BFEF
:10383000FFF778FE00BF80BD80B500AF4FF4801069
:10384000FFF7A6FE0648FFF7E8FE0548FFF7D5FE9E
:103850002C2000F018FB2D2000F015FB00BF80BDD0
:10386000000C005880B500AF01210248FFF70AFFA5
:1038700000BF80BD000C005880B500AF0121024898
:10388000FFF720FF00BF80BD000C005880B500AFDF
:1038900006F078FA01210248FFF706FF00BF80BD5D
:1038A000000C005880B500AF20210348FFF7D8FE78
:1038B00006F098FA00BF80BD000C005880B500AF3C
:1038C00002210248FFF7DEFE00BF80BD000C005859
:1038D00080B500AF02210448FFF7F4FE0221024840
:1038E000FFF7ABFE00BF80BD000C005880B500AFF5
:1038F00002210348FFF7B4FE06F0C4FA00BF80BD02
:10390000000C005880B500AF06F0D2FA0221024840
:10391000FFF7CAFE00BF80BD000C005880B582B022
:1039200000AF786008210C48FFF7DBFE0346002B50
:1039300007D00A4A7B68136008210748FFF77DFE1D
:1039400006E07B68984708210348FFF7BBFE00BFED
:103950000837BD4680BD00BF000C0058040600209B
:1039600080B500AF08210648FFF77AFE054B1B68BB
:10397000984708210248FFF7A5FE00BF80BD00BFA1
:10398000000C00580406002080B500AF0821024852
:10399000FFF778FE00BF80BD000C005880B500AF77
:1039A00006F02EFB08210248FFF77EFE00BF80BD17
:1039B000000C0058D458C4500433C4188C42F9D3B6
:1039C0007047036004308842FBD370470C4885463B
:1039D00000F028F80B480C490C4A0023FFF7EDFFD4
:1039E0000B480C490023FFF7EEFF0B480B4900235F
:1039F000FFF7E9FF07F0BCFCFEF7D0FAFEE7000096
:103A00000000032008000020F401002098EC0008CA
:103A10004802002094080020E4010320670A0320E4
:103A2000FEE7000080B400AF264B00229A60254BD1
:103A3000D3F88830234A43F47003C2F888304FF03B
:103A4000B0431B684FF0B04243F0010313604FF0E6
:103A5000B0434FF4E0229A604FF0B0431A684FF041
:103A6000B041194B13400B604FF0B043D3F8943082
:103A70004FF0B04223F00503C2F894304FF0B0434A
:103A8000D3F898304FF0B04223F00103C2F89830D9
:103A90004FF0B0430D4ADA604FF0B0430B4A1A6161
:103AA0004FF0B0431B684FF0B04223F48023136003
:103AB0004FF0B04300229A6100BFBD465DF8047B21
:103AC000704700BF00ED00E0FBFEF6FA0010042294
:103AD00080B582B000AF0023FB710C4B1B680B4A12
:103AE00043F480731360032000F0A8F9002000F075
:103AF0000FF80346002B02D00123FB7101E0FEF713
:103B0000C1FBFB7918460837BD4680BD0040005810
:103B100080B584B000AF78600023FB73174B1B782F
:103B2000002B24D001F078FD0246144B1B78194677
:103B30004FF47A73B3FBF1F3B2FBF3F3184600F0E2
:103B4000BEF90346002B0FD17B680F2B09D800224A
:103B500079684FF0FF3000F07CF9094A7B68136008
:103B600007E00123FB7304E00123FB7301E0012361
:103B7000FB73FB7B18461037BD4680BD200000203C
:103B80001C00002080B400AF064B1B781A46064B81
:103B90001B681344044A136000BFBD465DF8047BF4
:103BA000704700BF200000200806002080B400AF4E
:103BB000034B1B681846BD465DF8047B704700BF89
:103BC0000806002080B400AF034B1B681846BD46B2
:103BD0005DF8047B704700BF1C00002080B485B0F6
:103BE00000AF78607B6803F00703FB600C4BDB6879
:103BF000BB60BA684FF6FF031340BB60FB681A0254
:103C0000BB68134343F0BF6343F40033BB60044A13
:103C1000BB68D36000BF1437BD465DF8047B7047B6
:103C200000ED00E080B400AF044BDB681B0A03F03A
:103C300007031846BD465DF8047B704700ED00E0C1
:103C400080B483B000AF0346FB7197F90730002BB7
:103C50000BDBFB7903F01F02074997F907305B097B
:103C6000012000FA02F241F8232000BF0C37BD46C4
:103C70005DF8047B704700BF00E100E080B483B0D2
:103C800000AF0346FB7197F90730002B12DBFB797D
:103C900003F01F020A4997F907305B09012000FA77
:103CA00002F2203341F82320BFF34F8F00BFBFF350
:103CB0006F8F00BF00BF0C37BD465DF8047B7047B7
:103CC00000E100E080B483B000AF0346FB7197F9D8
:103CD0000730002B0CDBFB7903F01F02074997F933
:103CE00007305B09012000FA02F2403341F823203B
:103CF00000BF0C37BD465DF8047B704700E100E073
:103D000080B483B000AF0346FB7197F90730002BF6
:103D10000CDBFB7903F01F02074997F907305B09B9
:103D2000012000FA02F2603341F8232000BF0C3773
:103D3000BD465DF8047B704700E100E080B483B0CD
:103D400000AF03463960FB7197F90730002B0ADB9F
:103D50003B68DAB20C4997F907301201D2B20B4432
:103D600083F800230AE03B68DAB20849FB7903F0E4
:103D70000F03043B1201D2B20B441A7600BF0C377A
:103D8000BD465DF8047B704700E100E000ED00E017
:103D900080B489B000AFF860B9607A60FB6803F066
:103DA0000703FB61FB69C3F10703042B28BF04234E
:103DB000BB61FB690433062B02D9FB69033B00E0BE
:103DC00000237B614FF0FF32BB6902FA03F3DA4351
:103DD000BB681A407B699A404FF0FF317B6901FA5A
:103DE00003F3D9437B680B40134318462437BD4681
:103DF0005DF8047B7047000080B582B000AF78604A
:103E00007B68013BB3F1807F01D301230FE00A4AB5
:103E10007B68013B53600F214FF0FF30FFF78EFFAF
:103E2000054B00229A60044B07221A6000231846B3
:103E30000837BD4680BD00BF10E000E080B582B00D
:103E400000AF78607868FFF7C9FE00BF0837BD464D
:103E500080BD80B586B000AF0346B9607A60FB7361
:103E6000FFF7E0FE78617A68B9687869FFF790FF3C
:103E7000024697F90F3011461846FFF75FFF00BF63
:103E80001837BD4680BD80B582B000AF0346FB71D8
:103E900097F907301846FFF7D3FE00BF0837BD4635
:103EA00080BD80B582B000AF0346FB7197F9073043
:103EB0001846FFF7E3FE00BF0837BD4680BD80B55A
:103EC00082B000AF78607868FFF796FF0346184627
:103ED0000837BD4680BD80B582B000AF0346FB7198
:103EE00097F907301846FFF7EDFE00BF0837BD46CB
:103EF00080BD80B582B000AF0346FB7197F90730F3
:103F00001846FFF7FDFE00BF0837BD4680BD80B5EF
:103F100086B000AFF860B9607A603B600023FB7543
:103F2000FB6893F82430012B01D1022366E0FB6883
:103F3000012283F82420FB6893F82530DBB2012BA3
:103F400055D1FB68022283F82520FB680022DA6342
:103F5000FB681B681A68FB681B6822F001021A6084
:103F60003B687A68B968F86800F0B9F9FB681B6BC0
:103F7000002B08D0FB681B681A68FB681B6842F0BE
:103F80000E021A600FE0FB681B681A68FB681B686A
:103F900022F004021A60FB681B681A68FB681B6841
:103FA00042F00A021A60FB689B6C1B6803F48033C2
:103FB000002B07D0FB689B6C1A68FB689B6C42F473
:103FC00080721A60FB685B6D002B07D0FB685B6D2D
:103FD0001A68FB685B6D42F480721A60FB681B68AC
:103FE0001A68FB681B6842F001021A6005E0FB6872
:103FF000002283F824200223FB75FB7D1846183726
:10400000BD4680BD80B483B000AF78607B68002B74
:1040100001D101234FE07B6893F82530DBB2022BFE
:1040200008D07B680422DA637B68002283F82420AE
:10403000012340E07B681B681A687B681B6822F0DC
:104040000E021A607B689B6C1A687B689B6C22F47A
:1040500080721A607B681B681A687B681B6822F094
:1040600001021A607B685B6C03F01C027B681B6CAE
:10407000012101FA02F25A607B68DB6C7A68126DEA
:104080005A607B685B6D002B0CD07B685B6D1A6897
:104090007B685B6D22F480721A607B689B6D7A6826
:1040A000D26D5A607B68012283F825207B6800224C
:1040B00083F82420002318460C37BD465DF8047BA6
:1040C000704780B584B000AF78600023FB737B68D5
:1040D00093F82530DBB2022B05D07B680422DA632B
:1040E0000123FB7347E07B681B681A687B681B68C9
:1040F00022F00E021A607B681B681A687B681B68D6
:1041000022F001021A607B689B6C1A687B689B6CCA
:1041100022F480721A607B685B6C03F01C027B687F
:104120001B6C012101FA02F25A607B68DB6C7A6831
:10413000126D5A607B685B6D002B0CD07B685B6DE9
:104140001A687B685B6D22F480721A607B689B6DD5
:104150007A68D26D5A607B68012283F825207B68DB
:10416000002283F824207B689B6B002B03D07B68A4
:104170009B6B78689847FB7B18461037BD4680BD1F
:1041800080B584B000AF78607B681B6C1B68FB60F7
:104190007B681B681B68BB607B685B6C03F01C035F
:1041A00004229A40FB681340002B26D0BB6803F022
:1041B0000403002B21D07B681B681B6803F02003DD
:1041C000002B07D17B681B681A687B681B6822F08C
:1041D00004021A607B685B6C03F01C027B681B6C3A
:1041E000042101FA02F25A607B681B6B002B71D02C
:1041F0007B681B6B786898476CE07B685B6C03F0AE
:104200001C0302229A40FB681340002B2ED0BB688F
:1042100003F00203002B29D07B681B681B6803F0A6
:104220002003002B0BD17B681B681A687B681B6816
:1042300022F00A021A607B68012283F825207B683D
:104240005B6C03F01C027B681B6C022101FA02F21A
:104250005A607B68002283F824207B68DB6A002B8D
:1042600038D07B68DB6A7868984733E07B685B6CA2
:1042700003F01C0308229A40FB681340002B2AD04D
:10428000BB6803F00803002B25D07B681B681A6805
:104290007B681B6822F00E021A607B685B6C03F07F
:1042A0001C027B681B6C012101FA02F25A607B68D8
:1042B0000122DA637B68012283F825207B680022D3
:1042C00083F824207B685B6B002B04D07B685B6BDE
:1042D0007868984700BF00BF1037BD4680BD80B4E6
:1042E00085B000AFF860B9607A603B60FB68DB6C5A
:1042F000FA68126D5A60FB685B6D002B04D0FB6896
:104300009B6DFA68D26D5A60FB685B6C03F01C020F
:10431000FB681B6C012101FA02F25A60FB681B6802
:104320003A685A60FB689B68102B08D1FB681B68D1
:104330007A689A60FB681B68BA68DA6007E0FB6815
:104340001B68BA689A60FB681B687A68DA6000BF0D
:104350001437BD465DF8047B7047000080B582B01D
:1043600000AF0346FB80084BDA68FB881340002B44
:1043700006D0054AFB88D360FB881846FCF7C4FECC
:1043800000BF0837BD4680BD0008005880B582B028
:1043900000AF0A4BDB687B60084B1A687B68DB4325
:1043A000064913400B60054A7B685360786800F04B
:1043B00007F800BF0837BD4680BD00BF0015005894
:1043C00080B483B000AF786000BF0C37BD465DF8A5
:1043D000047B704780B584B000AF78600023FB7326
:1043E0007B68002B1ED0134BBB607B6893F8383082
:1043F000DBB2002B02D17868FDF754FFB86800F0FB
:104400005BF8BB681B6843F00112BB681A607868F0
:1044100000F02CF87B6800225A637B68012283F845
:10442000382001E00123FB73FB7B18461037BD46A3
:1044300080BD00BF000C005880B485B000AFF860AC
:10444000B9601346FB7100BF1437BD465DF8047BAD
:10445000704780B485B000AFF860B9601346FB7157
:1044600000BF1437BD465DF8047B704780B485B04B
:1044700000AF78600023FB600FE07A68FB689B0068
:1044800013440B4A5A607A68FB6806339B00134456
:10449000084A5A60FB680133FB60FB68052BECD9C6
:1044A00000BF00BF1437BD465DF8047B704700BFF6
:1044B000394400085344000880B483B000AF7860EA
:1044C0007B6800221A607B684FF03F125A607B685D
:1044D0003F229A6000BF0C37BD465DF8047B7047F1
:1044E00080B400AF054B1B68044A43F4807313602B
:1044F00000BFBD465DF8047B704700BF0004005854
:1045000080B400AF044B1B6803F4C0631846BD467B
:104510005DF8047B704700BF0004005880B400AF12
:104520004FF0B0431B6803F48013B3F5801F01D133
:10453000012300E000231846BD465DF8047B704768
:1045400080B400AF4FF0B0431B684FF0B04243F46B
:104550008033136000BFBD465DF8047B704780B4B4
:1045600000AF4FF0B0431B684FF0B04223F48033EC
:10457000136000BFBD465DF8047B704780B400AF98
:104580004FF0B0431B6803F40033B3F5003F01D193
:10459000012300E000231846BD465DF8047B704708
:1045A00080B400AF4FF0B0431B684FF0B04243F40B
:1045B0008073136000BFBD465DF8047B704780B414
:1045C00000AF4FF0B0431B684FF0B04223F480734C
:1045D000136000BFBD465DF8047B704780B400AF38
:1045E0004FF0B0431B6803F48063B3F5806F01D1D3
:1045F000012300E000231846BD465DF8047B7047A8
:1046000080B483B000AF78604FF0B0435B6823F0B4
:10461000FE427B681B064FF0B04113434B6000BF66
:104620000C37BD465DF8047B704780B400AF4FF097
:10463000B043D3F898304FF0B04243F00103C2F8D2
:10464000983000BFBD465DF8047B704780B400AF72
:104650004FF0B043D3F898304FF0B04223F001034D
:10466000C2F8983000BFBD465DF8047B704780B447
:1046700000AF4FF0B043D3F8983003F00203022BA1
:1046800001D1012300E000231846BD465DF8047BFC
:10469000704780B400AF4FF0B043D3F890304FF084
:1046A000B04243F00103C2F8903000BFBD465DF850
:1046B000047B704780B400AF4FF0B043D3F8903024
:1046C0004FF0B04223F00103C2F8903000BFBD4666
:1046D0005DF8047B704780B400AF4FF0B043D3F86F
:1046E00090304FF0B04243F00403C2F8903000BF66
:1046F000BD465DF8047B704780B400AF4FF0B04317
:10470000D3F890304FF0B04223F00403C2F8903059
:1047100000BFBD465DF8047B704780B400AF4FF02A
:10472000B043D3F8903003F00203022B01D10123F0
:1047300000E000231846BD465DF8047B704780B456
:1047400000AF4FF0B043D3F894304FF0B04243F095
:104750000103C2F8943000BFBD465DF8047B70478A
:1047600080B400AF4FF0B043D3F894304FF0B04274
:1047700023F00103C2F8943000BFBD465DF8047B0E
:10478000704780B400AF4FF0B043D3F8943003F0DB
:104790000203022B01D1012300E000231846BD468D
:1047A0005DF8047B704780B400AF4FF0B043D3F89E
:1047B00094304FF0B04243F00403C2F8943000BF8D
:1047C000BD465DF8047B704780B400AF4FF0B04346
:1047D000D3F894304FF0B04223F00403C2F8943081
:1047E00000BFBD465DF8047B704780B400AF4FF05A
:1047F000B043D3F8943003F00803082B01D1012310
:1048000000E000231846BD465DF8047B704780B485
:1048100083B000AF78604FF0B043D3F8943023F406
:1048200070627B681B024FF0B0411343C1F89430B3
:1048300000BF0C37BD465DF8047B704780B400AF05
:104840004FF0B0431B684FF0B04243F001031360D8
:1048500000BFBD465DF8047B704780B400AF4FF0E9
:10486000B0431B684FF0B04223F00103136000BF58
:10487000BD465DF8047B704780B400AF4FF0B04395
:104880001B6803F00203022B01D1012300E0002387
:104890001846BD465DF8047B704780B483B000AF16
:1048A00078604FF0B0431B6823F0F0024FF0B04146
:1048B0007B6813430B6000BF0C37BD465DF8047B7B
:1048C000704780B483B000AF4FF0B0431B6803F073
:1048D000F0037B607B68B02B01D9B0237B607B68E1
:1048E00018460C37BD465DF8047B704780B483B032
:1048F00000AF78604FF0B0435B6823F47F427B6881
:104900001B024FF0B04113434B6000BF0C37BD4654
:104910005DF8047B704780B483B000AF78604FF0DF
:10492000B0439B6823F003024FF0B0417B68134310
:104930008B6000BF0C37BD465DF8047B704780B4C8
:1049400000AF4FF0B0439B6803F00C031846BD4620
:104950005DF8047B704780B483B000AF78604FF09F
:10496000B0439B6823F0F0024FF0B0417B681343E3
:104970008B6000BF0C37BD465DF8047B704780B488
:1049800083B000AF78604FF0B043D3F8083123F024
:10499000F0024FF0B0417B681343C1F8083100BF0B
:1049A0000C37BD465DF8047B704780B483B000AF20
:1049B00078604FF0B043D3F8083123F00F027B68E2
:1049C0001B094FF0B0411343C1F8083100BF0C3749
:1049D000BD465DF8047B704780B483B000AF78605B
:1049E0004FF0B0439B6823F4E0624FF0B0417B6826
:1049F00013438B6000BF0C37BD465DF8047B7047E6
:104A000080B483B000AF78604FF0B0439B6823F46C
:104A100060524FF0B0417B6813438B6000BF0C378E
:104A2000BD465DF8047B704780B400AF4FF0B043E3
:104A30009B6803F0F0031846BD465DF8047B7047A1
:104A400080B400AF4FF0B043D3F808311B0103F03E
:104A5000F0031846BD465DF8047B704780B400AF94
:104A60004FF0B0431B684FF0B04243F080731360C7
:104A700000BFBD465DF8047B704780B400AF4FF0C7
:104A8000B0431B684FF0B04223F08073136000BF47
:104A9000BD465DF8047B704780B400AF4FF0B04373
:104AA0001B6803F00073B3F1007F01D1012300E024
:104AB00000231846BD465DF8047B704780B400AF04
:104AC0004FF0B043DB681B0A03F07F031846BD4676
:104AD0005DF8047B704780B400AF4FF0B043DB68F3
:104AE00003F060431846BD465DF8047B704780B410
:104AF00000AF4FF0B043DB6803F070031846BD46CB
:104B00005DF8047B704780B400AF4FF0B043DB68C2
:104B100003F003031846BD465DF8047B704780B47C
:104B200000AF4FF0B0439B6803F48033B3F5803F90
:104B300001D1012300E000231846BD465DF8047B47
:104B4000704780B400AF4FF0B043D3F8083103F49E
:104B50000033B3F5003F01D1012300E000231846E4
:104B6000BD465DF8047B704780B400AF4FF0B043A2
:104B7000D3F8083103F48033B3F5803F01D101232A
:104B800000E000231846BD465DF8047B704780B402
:104B900000AF4FF0B0439B6803F40033B3F5003F20
:104BA00001D1012300E000231846BD465DF8047BD7
:104BB000704780B400AF4FF0B0439B6803F480238C
:104BC000B3F5802F01D1012300E000231846BD4634
:104BD0005DF8047B7047000090B58DB000AF786041
:104BE0007B68002B01D1012363E37B681B6803F022
:104BF0002003002B00F08D80FFF7A1FEF862FFF785
:104C000082FFB862FB6A002B05D0FB6A0C2B47D1F0
:104C1000BB6A012B44D17B68DB69002B01D10123E6
:104C200047E37B685C6AFFF74CFE03469C4214D95D
:104C30007B685B6A184600F003FD0346002B01D039
:104C4000012336E37B685B6A1846FFF726FE7B6824
:104C50001B6A1846FFF74AFE13E07B685B6A18463A
:104C6000FFF71BFE7B681B6A1846FFF73FFE7B6859
:104C70005B6A184600F0E4FC0346002B01D00123D8
:104C800017E300F0C9FC0346A44A1360A44B1B6859
:104C90001846FEF73DFF0346002B39D0012308E3F9
:104CA0007B68DB69002B1ED0FFF7C8FDFEF77EFF97
:104CB000786208E0FEF77AFF02467B6AD31A022B7D
:104CC00001D90323F5E2FFF7D7FD0346002BF1D00E
:104CD0007B685B6A1846FFF7E0FD7B681B6A184635
:104CE000FFF704FE15E0FFF7B8FDFEF75FFF7862FF
:104CF00008E0FEF75BFF02467B6AD31A022B01D95C
:104D00000323D6E2FFF7B8FD0346002BF1D100E004
:104D100000BF7B681B6803F00103002B47D0FFF73F
:104D20000EFE3862FFF7EFFEF8613B6A082B05D0F4
:104D30003B6A0C2B08D1FB69032B05D17B685B68B0
:104D4000002B34D10123B4E27B685B68B3F5803F6C
:104D500002D1FFF7F5FB01E0FFF701FC7B685B6820
:104D6000002B12D0FEF722FF786208E0FEF71EFF4C
:104D700002467B6AD31A642B01D9032399E2FFF719
:104D8000FDFB0346002BF1D011E0FEF70FFF786228
:104D900008E0FEF70BFF02467B6AD31A642B01D9A9
:104DA000032386E2FFF7EAFB0346002BF1D17B6881
:104DB0001B6803F00203002B4CD0FFF7C0FDB86165
:104DC000FFF7A1FE7861BB69042B05D0BB690C2BF2
:104DD0000ED17B69022B0BD17B68DB68002B01D1E4
:104DE000012366E27B681B691846FFF709FC31E086
:104DF0007B68DB68002B19D0FFF7D2FBFEF7D6FEED
:104E0000786208E0FEF7D2FE02467B6AD31A022BD4
:104E100001D903234DE2FFF7E1FB0346002BF1D05C
:104E20007B681B691846FFF7EBFB13E0FFF7C7FB36
:104E3000FEF7BCFE786208E0FEF7B8FE02467B6A29
:104E4000D31A022B01D9032333E2FFF7C7FB034632
:104E5000002BF1D17B681B6803F00803002B06D1FF
:104E60007B681B6803F01003002B00F0A3807B68B5
:104E70005B69002B76D07B681B6803F01003002B66
:104E800046D0FFF77EFC0346002B13D1FFF757FCFB
:104E9000FEF78CFE786208E0FEF788FE02467B6A29
:104EA000D31A022B01D9032303E2FFF76AFC03465E
:104EB000002BF1D0FFF777FCFEF778FE786208E070
:104EC000FEF774FE02467B6AD31A032B01D9032333
:104ED000EFE1FFF78AFC0346002BF1D07B689B696A
:104EE0001846FFF794FCFFF73BFCFEF75FFE786285
:104EF00008E0FEF75BFE02467B6AD31A022B01D95B
:104F00000323D6E1FFF73DFC0346002BF1D151E02E
:104F1000FFF715FCFEF74AFE78620CE0180000204F
:104F20001C000020FEF742FE02467B6AD31A022BC9
:104F300001D90323BDE1FFF724FC0346002BF1D088
:104F4000FFF742FC08E0FEF731FE02467B6AD31A07
:104F5000032B01D90323ACE1FFF747FC0346002BE9
:104F6000F1D127E0FFF730FCFEF720FE786208E081
:104F7000FEF71CFE02467B6AD31A032B01D90323DA
:104F800097E1FFF732FC0346002BF1D1FFF7E8FB76
:104F9000FEF70CFE786208E0FEF708FE02467B6A28
:104FA000D31A022B01D9032383E1FFF7EAFB03465F
:104FB000002BF1D17B681B6803F00403002B5BD04E
:104FC000A74B1B6803F48073002B14D1FFF788FAFA
:104FD000FEF7ECFD786208E0FEF7E8FD02467B6A2A
:104FE000D31A022B01D9032363E19D4B1B6803F401
:104FF0008073002BF0D07B689B68012B02D1FFF7F8
:1050000048FB0CE07B689B68052B04D1FFF763FB32
:10501000FFF73FFB03E0FFF74DFBFFF76DFB7B68FE
:105020009B68002B14D0FEF7C1FD78620AE0FEF702
:10503000BDFD02467B6AD31A41F28832934201D900
:10504000032336E1FFF769FB0346002BEFD013E0A3
:10505000FEF7ACFD78620AE0FEF7A8FD02467B6A27
:10506000D31A41F28832934201D9032321E1FFF799
:1050700054FB0346002BEFD17B681B6803F0400311
:10508000002B2CD07B689B6A002B14D0FFF7CDFA45
:10509000FEF78CFD786208E0FEF788FD02467B6A29
:1050A000D31A022B01D9032303E1FFF7E0FA0346E9
:1050B000002BF1D013E0FFF7C9FAFEF777FD786215
:1050C00008E0FEF773FD02467B6AD31A022B01D972
:1050D0000323EEE0FFF7CBFA0346002BF1D17B6808
:1050E000DB6A002B00F0E480FFF729FC38614FF009
:1050F000B043DB68FB607B68DB6A022B40F0B48066
:10510000FB6803F003027B681B6B9A4223D1FB68A8
:1051100003F070027B685B6B9A421CD1FB681B0A30
:1051200003F07F027B689B6B9A4214D1FB6803F407
:1051300078127B68DB6B9A420DD1FB6803F06062EA
:105140007B681B6C9A4206D1FB6803F060427B6867
:105150005B6C9A425DD03B690C2B58D04FF0B0434A
:105160001B6803F08063002B01D00123A1E0FFF74F
:1051700084FCFEF71BFD786208E0FEF717FD02468F
:105180007B6AD31A022B01D9032392E04FF0B0437C
:105190001B6803F00073002BEFD14FF0B043DA68C7
:1051A000304B13407A68116B7A68526B11437A68FE
:1051B000926B120211437A68D26B11437A68126CB7
:1051C00011437A68526C0A434FF0B0411343CB60ED
:1051D000FFF744FC4FF0B043DB684FF0B04243F0C0
:1051E0008053D360FEF7E2FC786208E0FEF7DEFC55
:1051F00002467B6AD31A022B01D9032359E04FF0F0
:10520000B0431B6803F00073002BEFD050E0012384
:105210004FE04FF0B0431B6803F00073002B47D101
:10522000FFF71CFC4FF0B043DB684FF0B04243F097
:105230008053D360FEF7BAFC786208E0FEF7B6FC54
:1052400002467B6AD31A022B01D9032331E04FF0C7
:10525000B0431B6803F00073002BEFD028E000BFC1
:10526000000400588C80C1113B690C2B1ED0FFF745
:1052700004FCFEF79BFC786208E0FEF797FC024610
:105280007B6AD31A022B01D9032312E04FF0B043FB
:105290001B6803F00073002BEFD14FF0B043DA68C6
:1052A0004FF0B041054B1340CB6001E0012300E01B
:1052B000002318463437BD4690BD00BFFCFFFEEE0C
:1052C00080B584B000AF786039607B68002B01D175
:1052D00001232DE1984B1B6803F007033A689A42BB
:1052E0001BD9954B1B6823F0070293493B68134376
:1052F0000B60FEF75BFCF86008E0FEF757FC024627
:10530000FB68D31A022B01D9032311E18A4B1B68D6
:1053100003F007033A689A42EFD17B681B6803F0F9
:105320000203002B16D07B689B681846FFF713FB1F
:10533000FEF73CFCF86008E0FEF738FC0246FB682C
:10534000D31A022B01D90323F2E0FFF7E8FB03464F
:10535000002BF1D07B681B6803F02003002B16D0D4
:105360007B685B691846FFF70AFBFEF71FFCF860D5
:1053700008E0FEF71BFC0246FB68D31A022B01D99A
:105380000323D5E0FFF7DDFB0346002BF1D07B685C
:105390001B6803F04003002B16D07B689B691846FE
:1053A000FFF703FBFEF702FCF86008E0FEF7FEFBE8
:1053B0000246FB68D31A022B01D90323B8E0FFF79A
:1053C000D3FB0346002BF1D07B681B6803F004037A
:1053D000002B16D07B68DB681846FFF7FDFAFEF756
:1053E000E5FBF86008E0FEF7E1FB0246FB68D31A34
:1053F000022B01D903239BE0FFF7C9FB0346002BD7
:10540000F1D07B681B6803F00803002B17D07B6882
:105410001B69DB001846FFF7F3FAFEF7C7FBF860DD
:1054200008E0FEF7C3FB0246FB68D31A022B01D942
:1054300003237DE0FFF7BDFB0346002BF1D07B6823
:105440001B6803F00103002B43D07B685B68022BD1
:1054500006D1FFF793F80346002B1ED1012367E026
:105460007B685B68032B06D1FFF716FB0346002B16
:1054700013D101235CE07B685B68002B06D1FFF74A
:10548000FBF90346002B08D1012351E0FFF7A6F8F2
:105490000346002B01D101234AE07B685B68184674
:1054A000FFF739FAFEF782FBF8600AE0FEF77EFBB1
:1054B0000246FB68D31A41F28832934201D9032392
:1054C00036E0FFF73CFA02467B685B689B009A4235
:1054D000ECD1194B1B6803F007033A689A421BD2C0
:1054E000154B1B6823F0070213493B6813430B60FD
:1054F000FEF75CFBF86008E0FEF758FB0246FB682D
:10550000D31A022B01D9032312E00B4B1B6803F0C3
:1055100007033A689A42EFD100F07EF80346074A43
:105520001360FEF74FFB03461846FEF7F1FA0346F9
:1055300018461037BD4680BD0040005818000020B6
:1055400090B585B000AFFFF7FAF978607B68002B63
:105550000AD1FFF7B6F903461B0903F00F032B4AE4
:1055600052F82330FB604BE07B68042B02D1284BC0
:10557000FB6045E07B68082B0AD1FEF7CFFF0346AE
:10558000012B02D1224BFB603AE0224BFB6037E05B
:10559000FFF7B9FA38603B68022B03D03B68032B56
:1055A00003D00DE01A4BBB6015E0FEF7B7FF0346D2
:1055B000012B02D1164BBB600DE0164BBB600AE01D
:1055C000FFF77FF903461B0903F00F030F4A52F858
:1055D0002330BB6000BFFFF771FA0246BB6803FBD4
:1055E00002F4FFF784FA03461B090133B4FBF3F41A
:1055F000FFF771FA03465B0F0133B4FBF3F3FB6073
:10560000FB6818461437BD4690BD00BFC4E80008CB
:105610000024F4000048E80198B500AFFFF790FFC0
:105620000446FFF701FA03461B0903F00F03034A80
:1056300052F82330B4FBF3F3184698BD84E8000811
:1056400090B585B000AF78607B68B02B03D9154B5F
:10565000DB6AFB6007E07B681B0903F00F03114A5C
:1056600052F82330FB60FFF7EBF903461B0903F008
:105670000F030D4A52F82330FA68B2FBF3F3BB6014
:10568000BB680A4AA2FB03239C0CFEF739FF0346C2
:105690001946204600F00CF8034618461437BD465C
:1056A00090BD00BFC4E8000884E8000883DE1B4307
:1056B00090B593B000AF78603960374B07F128049C
:1056C0000FCB84E80F00354A07F11C0307CA83E8B3
:1056D0000700334B07F10C040FCB84E80F000023C5
:1056E0007B643B68B3F5007F1AD100233B6413E071
:1056F0003B6C9B0048333B4453F8203C7A689A4209
:1057000007D83B6C9B0048333B4453F83C3C7B64DC
:1057100020E03B6C01333B643B6C032BE8D919E080
:105720000023FB6313E0FB6B9B0048333B4453F8BF
:105730002C3C7A689A4207D8FB6B9B0048333B4469
:1057400053F83C3C7B6405E0FB6B0133FB63FB6B74
:10575000022BE8D9134B1B6823F0070211497B6C1D
:1057600013430B60FEF722FAB86308E0FEF71EFA57
:105770000246BB6BD31A022B01D9032307E0094B66
:105780001B6803F007037A6C9A42EFD10023184696
:105790004C37BD4690BD00BF7CE400088CE4000897
:1057A00098E400080040005880B400AF4FF0B043C8
:1057B000D3F8903003F00103012B01D1012300E065
:1057C00000231846BD465DF8047B704780B400AFE7
:1057D0004FF0B043D3F8903003F00203022B01D115
:1057E000012300E000231846BD465DF8047B7047A6
:1057F00080B483B000AF78604FF0B043D3F89430FA
:1058000023F440424FF0B0417B681343C1F8943019
:1058100000BF0C37BD465DF8047B704780B483B091
:1058200000AF78604FF0B0435B6A23F003024FF0A3
:10583000B0417B6813434B6200BF0C37BD465DF837
:10584000047B704780B483B000AF78604FF0B04302
:105850005B6A23F030024FF0B0417B6813434B6228
:1058600000BF0C37BD465DF8047B704780B483B041
:1058700000AF78604FF0B043D3F8883023F00302D4
:105880004FF0B0417B681343C1F8883000BF0C373C
:10589000BD465DF8047B704780B483B000AF78608C
:1058A0004FF0B043D3F8883023F440624FF0B0415A
:1058B0007B681343C1F8883000BF0C37BD465DF8E4
:1058C000047B704780B483B000AF78604FF0B04382
:1058D000D3F888207B681B0903F47F23DB431A403D
:1058E0007B681B0103F47F234FF0B0411343C1F8E1
:1058F000883000BF0C37BD465DF8047B704780B42C
:1059000083B000AF78604FF0B043D3F888207B6855
:105910001B0C1B04DB431A407B681B044FF0B04197
:105920001343C1F8883000BF0C37BD465DF8047BD7
:10593000704780B483B000AF78604FF0B043D3F8C5
:10594000883023F440024FF0B0417B681343C1F824
:10595000883000BF0C37BD465DF8047B704780B4CB
:1059600083B000AF78604FF0B043D3F8883023F0B5
:1059700040424FF0B0417B681343C1F8883000BF0C
:105980000C37BD465DF8047B704780B483B000AF30
:1059900078604FF0B043D3F8883023F040624FF086
:1059A000B0417B681343C1F8883000BF0C37BD4657
:1059B0005DF8047B704780B582B000AF786078688E
:1059C000FFF7E3FF00BF0837BD4680BD80B483B05A
:1059D00000AF78604FF0B043D3F8883023F04052E6
:1059E0004FF0B0417B681343C1F8883000BF0C37DB
:1059F000BD465DF8047B704780B483B000AF78602B
:105A00004FF0B043D3F8903023F440724FF0B041E0
:105A10007B681343C1F8903000BF0C37BD465DF87A
:105A2000047B704780B400AF4FF0B043D3F89030A0
:105A300003F440731846BD465DF8047B704780B49C
:105A400000AF4FF0B043D3F890304FF0B04243F482
:105A50008033C2F8903000BFBD465DF8047B7047CC
:105A600080B400AF4FF0B043D3F890304FF0B04265
:105A700023F48033C2F8903000BFBD465DF8047B4C
:105A8000704780B400AF4FF0B0431B684FF0B04296
:105A900043F08063136000BFBD465DF8047B704730
:105AA00080B400AF4FF0B0431B684FF0B04223F01A
:105AB0008063136000BFBD465DF8047B704780B40F
:105AC00000AF4FF0B0431B6803F00063B3F1006F09
:105AD00001D1012300E000231846BD465DF8047B98
:105AE000704780B588B000AF78600023FB77002353
:105AF000BB777B681B6803F04003002B34D07B68C6
:105B00001B6BB3F5400F21D0B3F5400F1BD8B3F595
:105B1000000F1DD0B3F5000F15D8002B0BD0B3F537
:105B2000800F10D14FF0B043DB684FF0B04243F428
:105B30008033D3600DE07B680433184600F047F9EA
:105B40000346FB7705E00123FB7702E000BF00E09E
:105B500000BFFB7F002B05D17B681B6B1846FFF74E
:105B6000E8FE01E0FB7FBB777B681B6803F4006302
:105B7000002B46D0FFF756FFB8617B681B6CBA69F3
:105B80009A423CD0FEF7ACFCBB69002B05D17B6888
:105B90001B6C1846FFF730FF2EE04FF0B043D3F8F0
:105BA00090307B61FFF74BFFFFF75AFF7B6923F4CF
:105BB00040727B681B6C13437B614FF0B0427B6982
:105BC000C2F89030FFF7F0FD0346012B14D1FDF72A
:105BD000EDFF38610BE0FDF7E9FF02463B69D31AA0
:105BE00041F28832934202D90323FB7704E0FFF7A6
:105BF000EDFD0346012BEED1FB7FBB7701E0FB7F80
:105C0000BB777B681B6803F00103002B04D07B6823
:105C10009B691846FFF72AFE7B681B6803F00203A6
:105C2000002B04D07B68DB691846FFF735FE7B68E4
:105C30001B6803F01003002B04D07B689B6A184696
:105C4000FFF75DFE7B681B6803F02003002B04D088
:105C50007B68DB6A1846FFF752FE7B681B6803F01F
:105C60000403002B04D07B681B6A1846FFF72AFE4A
:105C70007B681B6803F00803002B04D07B685B6A19
:105C80001846FFF71FFE7B681B6803F48073002B28
:105C900022D07B685B6B1846FFF78DFE7B685B6BE1
:105CA000B3F1006F07D14FF0B043DB684FF0B04263
:105CB00043F08073D3607B685B6BB3F1806F0BD173
:105CC0007B680433184600F0DDF80346FB77FB7F62
:105CD000002B01D0FB7FBB777B681B6803F400734C
:105CE000002B2BD07B689B6BB3F1804F08D07B6877
:105CF0009B6BB3F1004F03D07B689B6B002B05D1EE
:105D00007B689B6B1846FFF72AFE0AE07B689B6B5B
:105D100023F08053FB600020FFF721FEF868FFF7B7
:105D200034FE7B689B6BB3F1C05F07D14FF0B0438B
:105D3000DB684FF0B04243F08073D3607B681B6830
:105D400003F48063002B22D07B68DB6B1846FFF7DF
:105D50003DFE7B68DB6BB3F1005F07D14FF0B043D2
:105D6000DB684FF0B04243F48033D3607B68DB6B79
:105D7000B3F1805F0BD17B680433184600F0DDF887
:105D80000346FB77FB7F002B01D0FB7FBB777B6853
:105D90001B6803F48053002B04D07B685B6C1846AF
:105DA000FFF726FD7B681B6803F40053002B09D026
:105DB0007B68DB6C1846FFF745FD7B689B6C1846DB
:105DC000FFF72CFDBB7F18462037BD4680BD80B550
:105DD00084B000AF78600023FB73FFF761FEFDF72E
:105DE000E5FEB86009E0FDF7E1FE0246BB68D31AA4
:105DF000022B02D90323FB7304E0FFF760FE034686
:105E0000002BF0D1FB7B002B37D14FF0B0431B6947
:105E100023F4FE427B681B681B024FF0B041134322
:105E20000B614FF0B0431B6923F478127B685B6809
:105E30004FF0B04113430B61FFF723FEFDF7B6FEB1
:105E4000B86009E0FDF7B2FE0246BB68D31A022B28
:105E500002D90323FB7304E0FFF731FE0346012B55
:105E6000F0D1FB7B002B08D14FF0B0431A697B685F
:105E70001B694FF0B04113430B61FB7B1846103791
:105E8000BD4680BD80B584B000AF78600023FB7351
:105E9000FFF706FEFDF78AFEB86009E0FDF786FE13
:105EA0000246BB68D31A022B02D90323FB7304E01A
:105EB000FFF705FE0346002BF0D1FB7B002B37D10B
:105EC0004FF0B0431B6923F4FE427B681B681B0242
:105ED0004FF0B04113430B614FF0B0431B6923F007
:105EE00060627B689B684FF0B04113430B61FFF722
:105EF000C8FDFDF75BFEB86009E0FDF757FE0246FE
:105F0000BB68D31A022B02D90323FB7304E0FFF70B
:105F1000D6FD0346012BF0D1FB7B002B08D14FF0BF
:105F2000B0431A697B681B694FF0B04113430B61A2
:105F3000FB7B18461037BD4680BD80B584B000AFEE
:105F400078600023FB73FFF7ABFDFDF72FFEB86011
:105F500009E0FDF72BFE0246BB68D31A022B02D9DB
:105F60000323FB7304E0FFF7AAFD0346002BF0D1E7
:105F7000FB7B002B37D14FF0B0431B6923F4FE426B
:105F80007B681B681B024FF0B04113430B614FF05D
:105F9000B0431B6923F060427B68DB684FF0B0417F
:105FA00013430B61FFF76DFDFDF700FEB86009E0DC
:105FB000FDF7FCFD0246BB68D31A022B02D903236E
:105FC000FB7304E0FFF77BFD0346012BF0D1FB7B65
:105FD000002B08D14FF0B0431A697B681B694FF062
:105FE000B04113430B61FB7B18461037BD4680BDA3
:105FF00080B582B000AF78607B68002B01D10123AF
:1060000027E07B685B7ADBB2002B05D17B6800223E
:106010001A727868FCF76AF97B6802225A727B6808
:106020001B681B6823F020017B685A687B681B682B
:106030000A431A607B681B681A687B681B6842F019
:1060400004021A607B6801225A727B680022DA60BF
:10605000002318460837BD4680BD000080B584B0D7
:1060600000AF78607B68002B01D101239FE07B6843
:1060700093F82130DBB2002B06D17B68002283F835
:1060800020207868FCF75CF97B68022283F82120E5
:10609000494BDB6803F01003102B7ED07B681B6834
:1060A000CA225A627B681B6853225A62786800F0E1
:1060B000ABF80346002B0AD07B681B68FF225A62AC
:1060C0007B68042283F821200123FB7367E07B684F
:1060D0001B689B687A68126823F4E00323F040038E
:1060E00093607B681B6899687B685A687B681B694A
:1060F0001A437B689B691A437B681B680A439A6052
:106100007B681B687A68D2681A617B681B681969AA
:106110007B689B681A047B681B680A431A617B686A
:106120001B68DA687B681B6822F08002DA607B6893
:106130001B68DA6C7B681B6822F00302DA647B68F8
:106140001B68D96C7B68DA697B685B691A437B687A
:106150001B680A43DA647B681B689B6803F02003B2
:10616000002B13D1786800F029F80346002B0DD0DE
:106170007B681B68FF225A627B68042283F8212017
:106180007B68002283F82020012310E07B681B68D5
:10619000FF225A620023FB7301E00023FB73FB7BA9
:1061A000002B03D17B68012283F82120FB7B18465A
:1061B0001037BD4680BD00BF0028004080B584B0C8
:1061C00000AF78607B681B68DA687B681B6822F028
:1061D000A002DA60FDF7EAFCF86009E0FDF7E6FCF2
:1061E0000246FB68D31AB3F57A7F01D9032307E08F
:1061F0007B681B68DB6803F02003002BEED00023D4
:1062000018461037BD4680BD80B584B000AF7860B9
:106210007B681B68DB6803F04003002B19D17B68A7
:106220001B684FF0FF32DA60FDF7C0FCF86009E050
:10623000FDF7BCFC0246FB68D31AB3F57A7F01D99F
:10624000032307E07B681B68DB6803F04003002B37
:10625000EED0002318461037BD4680BD80B586B00D
:1062600000AFF860B9607A60FB6893F82030012BCA
:1062700001D10223A8E0FB68012283F82020FB68FB
:10628000022283F82120FB681B68CA225A62FB683D
:106290001B6853225A62FB681B689B6803F4806387
:1062A000002B20D0FDF782FC786115E0FDF77EFC25
:1062B00002467B69D31AB3F57A7F0DD9FB681B6858
:1062C000FF225A62FB68032283F82120FB68002228
:1062D00083F82020032377E0FB681B68DB6803F06A
:1062E0000403002BE2D1FB681B689A68FB681B68FB
:1062F00022F480629A60FB681B68DB68DAB2FB6894
:106300001B6862F49062DA60FDF750FC786115E07A
:10631000FDF74CFC02467B69D31AB3F57A7F0DD9A1
:10632000FB681B68FF225A62FB68032283F8212066
:10633000FB68002283F82020032345E0FB681B68EC
:10634000DB6803F00403002BE2D0FB681B68BA682B
:106350005A61FB681B689A68FB681B6822F0070299
:106360009A60FB681B689968FB681B687A680A4337
:106370009A60174BD3F88030154A43F40023C2F8D3
:106380008030134B1B68124A43F400231360FB68F0
:106390001B689A68FB681B6842F480429A60FB683D
:1063A0001B689A68FB681B6842F480629A60FB680D
:1063B0001B68FF225A62FB68012283F82120FB68D8
:1063C000002283F82020002318461837BD4680BDE0
:1063D0000008005880B58AB000AFF860B960134675
:1063E000FB80FB68D3F88830202B67D1BB68002B7B
:1063F00002D0FB88002B01D1012360E0FB68BA6862
:106400001A65FB68FA88A3F85420FB68FA88A3F899
:106410005620FB680022C3F89020FB682122C3F8B5
:106420008820FB68DB6F002B28D0FB68DB6F264AD7
:10643000DA62FB68DB6F254A1A63FB68DB6F244A6C
:106440005A63FB68DB6F00229A63FB68D86FFB68B6
:106450001B6D1946FB681B6828331A46FB88FDF73D
:1064600056FD0346002B09D0FB681022C3F890208C
:10647000FB682022C3F88820012320E0FB681B680A
:1064800040221A62FB681B6808337B617B6953E812
:10649000003F3B613B6943F080037B62FB681B6804
:1064A00008337A6A3A62FB61F9693A6A41E8002383
:1064B000BB61BB69002BE5D1002300E00223184635
:1064C0002837BD4680BD00BFAB6C0008456D000895
:1064D000616D000880B5BAB000AF78607B681B685A
:1064E000DB69C7F8E4307B681B681B68C7F8E030DD
:1064F0007B681B689B68C7F8DC30D7F8E42040F65F
:106500000F031340C7F8D830D7F8D830002B1BD171
:10651000D7F8E43003F02003002B15D0D7F8E03093
:1065200003F02003002B05D1D7F8DC3003F08053B3
:10653000002B09D07B685B6F002B00F0E3827B6847
:106540005B6F78689847DDE2D7F8D830002B00F011
:106550002381D7F8DC208D4B1340002B06D1D7F8D0
:10656000E0208B4B1340002B00F01681D7F8E4306D
:1065700003F00103002B11D0D7F8E03003F480734F
:10658000002B0BD07B681B6801221A627B68D3F852
:10659000903043F001027B68C3F89020D7F8E430D4
:1065A00003F00203002B11D0D7F8DC3003F0010315
:1065B000002B0BD07B681B6802221A627B68D3F821
:1065C000903043F004027B68C3F89020D7F8E430A1
:1065D00003F00403002B11D0D7F8DC3003F00103E3
:1065E000002B0BD07B681B6804221A627B68D3F8EF
:1065F000903043F002027B68C3F89020D7F8E43073
:1066000003F00803002B17D0D7F8E03003F0200385
:10661000002B05D1D7F8DC205C4B1340002B0BD0AE
:106620007B681B6808221A627B68D3F8903043F0BD
:1066300008027B68C3F89020D7F8E43003F40063C5
:10664000002B12D0D7F8E03003F08063002B0CD081
:106650007B681B684FF400621A627B68D3F8903045
:1066600043F020027B68C3F890207B68D3F8903019
:10667000002B00F04982D7F8E43003F02003002B10
:1066800013D0D7F8E03003F02003002B05D1D7F862
:10669000DC3003F08053002B07D07B685B6F002B4E
:1066A00003D07B685B6F786898477B68D3F890303D
:1066B000C7F8D4307B681B689B6803F04003402B0D
:1066C00005D0D7F8D43003F02803002B54D07868D5
:1066D00000F085FA7B681B689B6803F04003402B41
:1066E00046D17B681B680833C7F89C30D7F89C30CC
:1066F00053E8003FC7F89830D7F8983023F04003AC
:10670000C7F8D0307B681B680833D7F8D020C7F8AB
:10671000A820C7F8A430D7F8A410D7F8A82041E8DB
:106720000023C7F8A030D7F8A030002BD9D17B6860
:10673000D3F88030002B17D07B68D3F88030154A0F
:106740009A637B68D3F880301846FDF7BAFC03469D
:10675000002B19D07B68D3F880309B6B7A68D2F815
:106760008020104698470FE0786800F0E1F90BE0D0
:10677000786800F0DDF907E0786800F0D9F97B6807
:106780000022C3F89020BFE100BFBDE1010000106E
:1067900020010004E16D00087B68DB6E012B40F0F6
:1067A0005381D7F8E43003F01003002B00F04C8144
:1067B000D7F8E03003F01003002B00F045817B6830
:1067C0001B6810221A627B681B689B6803F04003F9
:1067D000402B40F0BB807B68D3F880301B685B683F
:1067E000A7F8BE30B7F8BE30002B00F08F817B6871
:1067F000B3F85C30B7F8BE209A4280F087817B689E
:10680000B7F8BE20A3F85E207B68D3F880301B6801
:106810001B6803F02003002B40F087807B681B6817
:10682000C7F88830D7F8883053E8003FC7F884307D
:10683000D7F8843023F48073C7F8B8307B681B68BE
:106840001A46D7F8B830C7F89430C7F89020D7F870
:106850009010D7F8942041E80023C7F88C30D7F87F
:106860008C30002BDAD17B681B6808337B677B6F29
:1068700053E8003F3B673B6F23F00103C7F8B43098
:106880007B681B680833D7F8B420C7F88020FB6703
:10689000F96FD7F8802041E80023BB67BB6F002B5E
:1068A000E1D17B681B6808333B663B6E53E8003FD1
:1068B000FB65FB6D23F04003C7F8B0307B681B68B5
:1068C0000833D7F8B020FA66BB66B96EFA6E41E8B5
:1068D00000237B667B6E002BE3D17B682022C3F80C
:1068E0008C207B680022DA667B681B68FB64FB6C8B
:1068F00053E8003FBB64BB6C23F01003C7F8AC3017
:106900007B681B681A46D7F8AC30BB657A65796D31
:10691000BA6D41E800233B653B6D002BE4D17B68F9
:10692000D3F880301846FDF76DFB7B6802221A67AA
:106930007B68B3F85C207B68B3F85E309BB2D31AF7
:106940009BB21946786800F0FDF8DFE07B68B3F889
:106950005C207B68B3F85E309BB2D31AA7F8CE30C8
:106960007B68B3F85E309BB2002B00F0D180B7F8A3
:10697000CE30002B00F0CC807B681B68BB63BB6B08
:1069800053E8003F7B637B6B23F49073C7F8C830F8
:106990007B681B681A46D7F8C8307B643A64396C48
:1069A0007A6C41E80023FB63FB6B002BE4D17B682E
:1069B0001B6808337B627B6A53E8003F3B623B6A9B
:1069C00023F0805323F00103C7F8C4307B681B68B1
:1069D0000833D7F8C4203A63FB62F96A3A6B41E89E
:1069E0000023BB62BB6A002BE1D17B682022C3F885
:1069F0008C207B680022DA667B6800225A677B68FD
:106A00001B683B613B6953E8003FFB60FB6823F078
:106A10001003C7F8C0307B681B681A46D7F8C0302F
:106A2000FB61BA61B969FA6941E800237B617B695E
:106A3000002BE4D17B6802221A67B7F8CE301946E2
:106A4000786800F07FF863E0D7F8E43003F480134F
:106A5000002B0ED0D7F8DC3003F48003002B08D0D5
:106A60007B681B684FF480121A62786800F0F9F9AD
:106A700051E0D7F8E43003F08003002B14D0D7F8AE
:106A8000E03003F08003002B05D1D7F8DC3003F4AD
:106A90000003002B08D07B689B6F002B3AD07B68EB
:106AA0009B6F7868984735E0D7F8E43003F04003EF
:106AB000002B09D0D7F8E03003F04003002B03D0BF
:106AC000786800F0A3F926E0D7F8E43003F4000377
:106AD000002B09D0D7F8E03003F08043002B03D01F
:106AE000786800F0D2F916E0D7F8E43003F080734C
:106AF000002B10D0D7F8E030002B0CDA786800F0CB
:106B0000BAF908E000BF06E000BF04E000BF02E001
:106B100000BF00E000BFE837BD4680BD80B483B051
:106B200000AF786000BF0C37BD465DF8047B70474E
:106B300080B483B000AF786000BF0C37BD465DF80D
:106B4000047B704780B483B000AF78600B467B80D5
:106B500000BF0C37BD465DF8047B704780B48FB032
:106B600000AF78607B681B683B623B6A53E8003F7C
:106B7000FB61FB6923F0C0037B637B681B681A46DB
:106B80007B6BFB62BA62B96AFA6A41E800237B62F6
:106B90007B6A002BE6D17B681B680833FB60FB68CF
:106BA00053E8003FBB60BB6823F400033B637B6892
:106BB0001B6808333A6BBA617B617969BA6941E84D
:106BC00000233B613B69002BE5D17B682022C3F8A1
:106BD000882000BF3C37BD465DF8047B704780B419
:106BE00095B000AF78607B681B687B637B6B53E874
:106BF000003F3B633B6B23F49073FB647B681B6833
:106C00001A46FB6C3B64FA63F96B3A6C41E800236B
:106C1000BB63BB6B002BE6D17B681B6808333B6210
:106C20003B6A53E8003FFB61FB6923F0805323F08C
:106C30000103BB647B681B680833BA6CFA62BB62F1
:106C4000B96AFA6A41E800237B627B6A002BE3D1D0
:106C50007B68DB6E012B18D17B681B68FB60FB68CF
:106C600053E8003FBB60BB6823F010037B647B6884
:106C70001B681A467B6CBB617A617969BA6941E825
:106C800000233B613B69002BE6D17B682022C3F8DF
:106C90008C207B680022DA667B6800225A6700BF7E
:106CA0005437BD465DF8047B704780B590B000AFA7
:106CB00078607B689B6AFB637B681B681B6803F0DA
:106CC0002003002B37D1FB6B0022A3F85620FB6B6F
:106CD0001B6808337B627B6A53E8003F3B623B6A78
:106CE00023F08003BB63FB6B1B680833BA6B3A630A
:106CF000FB62F96A3A6B41E80023BB62BB6A002B76
:106D0000E5D1FB6B1B683B613B6953E8003FFB60CF
:106D1000FB6843F040037B63FB6B1B681A467B6B8D
:106D2000FB61BA61B969FA6941E800237B617B695B
:106D3000002BE6D102E0F86BFBF7CAF800BF403742
:106D4000BD4680BD80B584B000AF78607B689B6A2B
:106D5000FB60F868FFF7E2FE00BF1037BD4680BD5C
:106D600080B586B000AF78607B689B6A7B617B6989
:106D7000D3F888303B617B69D3F88C30FB607B694A
:106D80001B689B6803F08003802B09D13B69212B92
:106D900006D17B690022A3F856207869FFF7DEFE52
:106DA0007B691B689B6803F04003402B09D1FB689B
:106DB000222B06D17B690022A3F85E207869FFF7B9
:106DC0000EFF7B69D3F8903043F010027B69C3F863
:106DD00090207869FFF7ACFE00BF1837BD4680BD34
:106DE00080B584B000AF78607B689B6AFB60FB680D
:106DF0000022A3F85E20FB680022A3F85620F86862
:106E0000FFF796FE00BF1037BD4680BD80B588B045
:106E100000AF78607B681B68FB60FB6853E8003F4D
:106E2000BB60BB6823F04003FB617B681B681A46AC
:106E3000FB69BB617A617969BA6941E800233B610A
:106E40003B69002BE6D17B682022C3F888207B6851
:106E500000229A677868FBF73BF800BF2037BD46F1
:106E600080BD80B483B000AF786000BF0C37BD46F2
:106E70005DF8047B704780B483B000AF786000BFDA
:106E80000C37BD465DF8047B704780B483B000AF1B
:106E9000786000BF0C37BD465DF8047B704780B555
:106EA00088B000AF0023FB7107F10803182200210E
:106EB000184601F0D6FE3F233B8181237B81FB1DD9
:106EC000BB610123FB6107F108030021184601F0B3
:106ED00033FC0346002B01DAFF2300E0FB79184660
:106EE0002037BD4680BDB0B5CEB000AF05460C46DC
:106EF0001046194607F59C73A3F231132A461A70FF
:106F000007F59C73A3F59A7322461A8007F59C73C4
:106F1000A3F59B7302461A8007F59C73A3F599733A
:106F20000A461A7007F11003C7F8343197F84C314C
:106F3000083307F110021344C7F8303197F84C2199
:106F400097F854311344093307F110021344C7F87A
:106F50002C3107F59C73A3F2291300221A70002329
:106F6000C7F82831D7F8343107F59C72A2F23112F4
:106F700012781A70D7F828310133C7F82831D7F8BA
:106F8000343107F59C72A2F59A721288A3F8012099
:106F9000D7F828310233C7F82831D7F8343107F54C
:106FA0009C72A2F59B721288A3F80320D7F82831AF
:106FB0000233C7F82831D7F8343107F59C72A2F5AF
:106FC000997212785A71D7F828310133C7F82831ED
:106FD000D7F8343197F848219A71D7F8283101331E
:106FE000C7F82831D7F8343197F84C21DA71D7F83F
:106FF00028310133C7F82831D7F83431083397F8EE
:107000004C21D7F85011184601F01BFE97F84C316F
:10701000D7F828211344C7F82831D7F8303197F82A
:1070200054211A70D7F828310133C7F82831D7F81E
:107030003031013397F85421D7F85811184601F030
:1070400000FE97F85431D7F828211344C7F82831A7
:10705000D7F82C31B7F85C211A80D7F828310233E1
:10706000C7F82831D7F82C31B7F860215A80D7F803
:1070700028310233C7F8283107F588731822002118
:10708000184601F0EEFD3F23A7F810318323A7F83F
:10709000123107F11003C7F81831D7F82831C7F8B3
:1070A0001C3107F10F03C7F820310123C7F8243141
:1070B00007F588730021184601F03EFB0346002BBC
:1070C00001DAFF2304E007F59C73A3F229131B7870
:1070D000184607F59C77BD46B0BD80B5CCB000AF73
:1070E000024607F59873A3F229131A7007F11003EB
:1070F000C7F82C3107F59873A3F2211300221A70F8
:107100000023C7F82831D7F82C3107F59872A2F27E
:10711000291212781A70D7F828310133C7F82831AC
:1071200007F5887318220021184601F09AFD3F23C5
:10713000A7F810318523A7F8123107F11003C7F81B
:107140001831D7F82831C7F81C3107F10F03C7F8F9
:1071500020310123C7F8243107F588730021184630
:1071600001F0EAFA0346002B01DAFF2304E007F5F9
:107170009873A3F221131B78184607F59877BD463C
:1071800080BDB0B5CCB000AF05460C4610461946E0
:1071900007F59873A3F229132A461A7007F5987316
:1071A000A3F5957322461A7007F59873A3F22B1373
:1071B00002461A7007F59873A3F596730A461A707B
:1071C00007F11003C7F82C3107F59873A3F22113C8
:1071D00000221A700023C7F82831D7F82C3107F5A0
:1071E0009872A2F2291212781A70D7F82831013356
:1071F000C7F82831D7F82C3107F59872A2F59572A7
:1072000012785A70D7F828310133C7F82831D7F8E7
:107210002C3107F59872A2F22B1212789A70D7F8D7
:1072200028310133C7F82831D7F82C3107F5987287
:10723000A2F596721278DA70D7F828310133C7F8C0
:107240002831D7F82C3197F840211A71D7F8283116
:107250000133C7F82831D7F82C3197F844215A71F7
:10726000D7F828310133C7F82831D7F82C3197F8EF
:1072700048219A71D7F828310133C7F82831D7F857
:107280002C31D7F84C21C3F80720D7F82831043324
:10729000C7F82831D7F82C3197F85021DA72D7F88F
:1072A00028310133C7F8283107F5887318220021E7
:1072B000184601F0D6FC3F23A7F810318623A7F823
:1072C000123107F11003C7F81831D7F82831C7F881
:1072D0001C3107F10F03C7F820310123C7F824310F
:1072E00007F588730021184601F026FA0346002BA3
:1072F00001DAFF2304E007F59873A3F221131B784A
:10730000184607F59877BD46B0BD80B5CCB000AF44
:10731000024607F59873A3F59873196007F59873FB
:10732000A3F595731A8007F11003C7F82C3107F500
:107330009873A3F2211300221A700023C7F8283192
:10734000D7F82C3107F59872A2F5957212881A8039
:10735000D7F828310233C7F82831D7F82C3107F590
:107360009872A2F598721268C3F80220D7F82831F3
:107370000433C7F8283107F588731822002118460E
:1073800001F06FFC3F23A7F810318823A7F81231D2
:1073900007F11003C7F81831D7F82831C7F81C31A6
:1073A00007F10F03C7F820310123C7F8243107F58F
:1073B00088730021184601F0BFF90346002B01DA5B
:1073C000FF2304E007F59873A3F221131B781846F6
:1073D00007F59877BD4680BD90B5CDB000AF0446A7
:1073E0000846114607F59872A2F59872136007F5E2
:1073F0009873A3F2291322461A7007F59873A3F520
:10740000957302461A7007F59873A3F22B130A4678
:107410001A7007F11003C7F82C3107F1080307228F
:107420000021184601F01DFC0023C7F82831D7F8C9
:107430002C3107F59872A2F2291212781A70D7F837
:1074400028310133C7F82831D7F82C3107F5987265
:10745000A2F5957212785A70D7F828310133C7F81F
:107460002831D7F82C3107F59872A2F22B12127836
:107470009A70D7F828310133C7F8283107F5887397
:1074800018220021184601F0ECFB3F23A7F8103129
:107490008A23A7F8123107F11003C7F81831D7F87B
:1074A0002831C7F81C3107F10803C7F8203107233A
:1074B000C7F8243107F588730021184601F03CF91C
:1074C0000346002B01DAFF232EE007F59873A3F59E
:1074D00094731B78002B05D007F59873A3F594736C
:1074E0001B7821E007F59873A3F59473B3F8013086
:1074F0009AB207F59873A3F598731B681A8007F57D
:107500009873A3F59473B3F803309AB2D7F8403167
:107510001A8007F59873A3F59473B3F805309AB2FF
:10752000D7F844311A800023184607F59A77BD46EC
:1075300090BD80B5CCB000AF024607F59873A3F5B7
:1075400095731A8007F11003C7F82C3107F598736B
:10755000A3F2211300221A700023C7F82831D7F8AC
:107560002C3107F59872A2F5957212881A80D7F817
:1075700028310233C7F8283107F588731822002113
:10758000184601F06EFB3F23A7F810318D23A7F8B2
:1075900012310F23C7F8143107F11003C7F818315F
:1075A000D7F82831C7F81C3107F10F03C7F820318D
:1075B0000123C7F8243107F588730021184601F02C
:1075C000BBF80346002B01DAFF2304E007F59873AC
:1075D000A3F221131B78184607F59877BD4680BDA6
:1075E00080B5CCB000AF024607F59873A3F5987349
:1075F000196007F59873A3F229131A7007F11003A5
:10760000C7F82C3107F59873A3F2211300221A70E2
:107610000023C7F82831D7F82C3107F59872A2F269
:10762000291212781A70D7F828310133C7F8283197
:10763000D7F82C31581C07F59873A3F229131A7840
:1076400007F59873A3F59873196801F0FAFA07F52E
:107650009873A3F229131B78D7F828211344C7F88D
:10766000283107F5887318220021184601F0F9FA2D
:107670003F23A7F810318E23A7F8123107F110032A
:10768000C7F81831D7F82831C7F81C3107F10F03B4
:10769000C7F820310123C7F8243107F5887300218A
:1076A000184601F049F80346002B01DAFF2304E0F5
:1076B00007F59873A3F221131B78184607F59877FE
:1076C000BD4680BD80B588B000AF0023FB7107F1D7
:1076D000080318220021184601F0C3FA3F233B811A
:1076E00092237B81FB1DBB610123FB6107F1080332
:1076F0000021184601F020F80346002B01DAFF2391
:1077000000E0FB7918462037BD4680BD80B588B0C3
:1077100000AF0023FB7107F108031822002118466F
:1077200001F09FFA3F233B8194237B81FB1DBB61CA
:107730000123FB6107F108030021184600F0FCFF5C
:107740000346002B01DAFF2300E0FB7918462037BF
:10775000BD4680BD80B5CCB000AF024607F598733A
:10776000A3F595731A8007F11003C7F82C3107F5BC
:107770009873A3F2211300221A700023C7F828314E
:10778000D7F82C3107F59872A2F5957212881A80F5
:10779000D7F828310233C7F8283107F58873182243
:1077A0000021184601F05DFA3F23A7F81031952318
:1077B000A7F8123107F11003C7F81831D7F82831AC
:1077C000C7F81C3107F10F03C7F820310123C7F8B0
:1077D000243107F588730021184600F0ADFF0346F9
:1077E000002B01DAFF2304E007F59873A3F22113BD
:1077F0001B78184607F59877BD4680BD80B5CCB09C
:1078000000AF024607F59873A3F595731A8007F544
:107810009873A3F22B130A461A7007F11003C7F8E6
:107820002C3107F59873A3F2211300221A7000235C
:10783000C7F82831D7F82C3107F59872A2F5957260
:1078400012881A80D7F828310233C7F82831D7F8C0
:107850002C3107F59872A2F22B1212789A70D7F891
:1078600028310133C7F8283107F588731822002121
:10787000184601F0F6F93F23A7F81031A523A7F821
:10788000123107F11003C7F81831D7F82831C7F8BB
:107890001C3107F10F03C7F820310123C7F8243149
:1078A00007F588730021184600F046FF0346002BB9
:1078B00001DAFF2304E007F59873A3F221131B7884
:1078C000184607F59877BD4680BD80B588B000AFF3
:1078D0000023FB7107F1080318220021184601F06C
:1078E000C0F93F233B8140F201137B81FB1DBB614B
:1078F0000123FB6107F108030021184600F01CFF7B
:107900000346002B01DAFF2300E0FB7918462037FD
:10791000BD4680BD90B5CFB000AF044607F59C7062
:10792000A0F59C7001601046194607F59C73A3F200
:10793000311322461A7007F59C73A3F5997302461A
:107940001A7007F59C73A3F233130A461A7007F1F5
:107950001003C7F8303107F59C73A3F231131B787D
:10796000012B0AD007F59C73A3F231131B78022B6D
:1079700001D1112302E0012300E0032307F11002EB
:107980001344C7F82C3107F10C03032200211846D9
:1079900001F067F90023C7F82831D7F8303107F52F
:1079A0009C72A2F2311212781A70D7F82831013382
:1079B000C7F8283107F59C73A3F231131B78012B0C
:1079C00002D0022B04D007E0022387F8373105E00C
:1079D000102387F8373101E097236CE0D7F8303176
:1079E000581C97F8372107F59C73A3F59C73196809
:1079F00001F027F997F83731D7F828211344C7F851
:107A00002831D7F82C3107F59C72A2F599721278BB
:107A10001A70D7F828310133C7F82831D7F82C313C
:107A200007F59C72A2F2331212785A70D7F82831F7
:107A30000133C7F8283107F588731822002118464A
:107A400001F00FF93F23A7F810314FF48173A7F825
:107A5000123107F11003C7F81831D7F82831C7F8E9
:107A60001C3107F10C03C7F820310323C7F8243178
:107A700007F588730021184600F05EFE0346002BD0
:107A800001DAFF2317E007F59C73A3F596731B78C3
:107A9000002B05D007F59C73A3F596731B780AE0BD
:107AA00007F59C73A3F59673B3F801309AB2D7F833
:107AB00048311A800023184607F59E77BD4690BDD1
:107AC00090B5D1B000AF0446084607F5A071A1F506
:107AD0009C710A60194607F5A073A3F599732246B5
:107AE0001A8007F5A073A3F2331302461A7007F544
:107AF000A073A3F59D730A461A8007F11803C7F80F
:107B0000383107F5A073A3F233131B78012B0AD089
:107B100007F5A073A3F233131B78022B01D11323B3
:107B200002E0032300E0052307F118021344C7F81D
:107B3000343107F1140303220021184601F091F8B3
:107B40000023C7F83031D7F8383107F5A072A2F515
:107B5000997212881A80D7F830310233C7F8303161
:107B6000D7F8383107F5A072A2F2331212789A7062
:107B7000D7F830310133C7F8303107F5A073A3F2DD
:107B800033131B78012B02D0022B04D007E0022311
:107B900087F83F3105E0102387F83F3101E0972354
:107BA00091E0D7F83831D81C97F83F2107F5A0733A
:107BB000A3F59C73196801F044F897F83F31D7F8A2
:107BC00030211344C7F83031D7F8343107F5A072AB
:107BD000A2F59D7212881A80D7F830310233C7F8A7
:107BE0003031D7F8343197F850219A70D7F83031C6
:107BF0000133C7F83031D7F8343197F85421DA70AF
:107C0000D7F830310133C7F83031D7F8343197F82D
:107C100058211A71D7F830310133C7F83031D7F80D
:107C2000343197F85C215A71D7F830310133C7F8F5
:107C30003031D7F8343197F860219A71D7F8303164
:107C40000133C7F8303107F58C731822002118462C
:107C500001F007F83F23A7F818314FF48273A7F813
:107C60001A3107F11803C7F82031D7F83031C7F8B7
:107C7000243107F11403C7F828310323C7F82C3146
:107C800007F58C730021184600F056FD0346002BC3
:107C900001DAFF2317E007F5A073A3F596731B78AD
:107CA000002B05D007F5A073A3F596731B780AE0A7
:107CB00007F5A073A3F59673B3F801309AB2D7F81D
:107CC00064311A800023184607F5A277BD4690BD9F
:107CD000B0B5CCB000AF05460C461046194607F5C6
:107CE0009873A3F595732A461A8007F59873A3F540
:107CF000967322461A8007F59873A3F22D13024655
:107D00001A7007F59873A3F597730A461A7007F16E
:107D10001003C7F82C3107F59873A3F22113002242
:107D20001A700023C7F82831D7F82C3107F598725C
:107D3000A2F5957212881A80D7F828310233C7F855
:107D40002831D7F82C3107F59872A2F5967212886F
:107D50005A80D7F828310233C7F82831D7F82C31A8
:107D600007F59872A2F22D1212781A71D7F82831FD
:107D70000133C7F82831D7F82C3107F59872A2F5EE
:107D8000977212785A71D7F828310133C7F8283121
:107D9000D7F82C31981D07F59873A3F597731B78C6
:107DA0001A46D7F8401100F04CFF07F59873A3F579
:107DB00097731B78D7F828211344C7F8283107F5A3
:107DC000887318220021184600F04BFF3F23A7F8C4
:107DD00010314FF48373A7F8123107F11003C7F87D
:107DE0001831D7F82831C7F81C3107F10F03C7F84D
:107DF00020310123C7F8243107F588730021184684
:107E000000F09AFC0346002B01DAFF2304E007F59B
:107E10009873A3F221131B78184607F59877BD468F
:107E2000B0BD80B5CCB000AF024607F59873A3F59E
:107E300095731A8007F11003C7F82C3107F5987372
:107E4000A3F2211300221A700023C7F82831D7F8B3
:107E50002C3107F59872A2F5957212881A80D7F81E
:107E600028310233C7F8283107F58873182200211A
:107E7000184600F0F6FE3F23A7F8103140F2251314
:107E8000A7F8123107F11003C7F81831D7F82831D5
:107E9000C7F81C3107F10F03C7F820310123C7F8D9
:107EA000243107F588730021184600F045FC03468D
:107EB000002B01DAFF2304E007F59873A3F22113E6
:107EC0001B78184607F59877BD4680BD80B5CCB0C5
:107ED00000AF07F59873A3F598731A6007F59873C8
:107EE000A3F2291302461A7007F59873A3F5957348
:107EF0000A461A7007F11003C7F82C3107F598737A
:107F0000A3F2211300221A700023C7F82831D7F8F2
:107F10002C3107F59872A2F2291212781A70D7F84C
:107F200028310133C7F82831D7F82C3107F598727A
:107F3000A2F5957212785A70D7F828310133C7F834
:107F40002831D7F82C31981C07F59873A3F5957351
:107F50001A7807F59873A3F59873196800F071FE05
:107F600007F59873A3F595731B78D7F82821134468
:107F7000C7F8283107F5887318220021184600F049
:107F800070FE3F23A7F810310C23A7F8123107F138
:107F90001003C7F81831D7F82831C7F81C3107F19A
:107FA0000F03C7F820310123C7F8243107F5887380
:107FB0000021184600F0C0FB0346002B01DAFF2326
:107FC00004E007F59873A3F221131B78184607F510
:107FD0009877BD4680BD80B5CCB000AF024607F5AE
:107FE0009873A3F229131A7007F59873A3F5957384
:107FF0000A461A7007F11003C7F82C3107F5987379
:10800000A3F2211300221A700023C7F82831D7F8F1
:108010002C3107F59872A2F2291212781A70D7F84B
:1080200028310133C7F82831D7F82C3107F5987279
:10803000A2F5957212785A70D7F828310133C7F833
:10804000283107F5887318220021184600F009FE30
:108050003F23A7F810310F23A7F8123107F11003BF
:10806000C7F81831D7F82831C7F81C3107F10F03CA
:10807000C7F820310123C7F8243107F588730021A0
:10808000184600F059FB0346002B01DAFF2304E0F9
:1080900007F59873A3F221131B78184607F5987714
:1080A000BD4680BD80B588B000AF0023FB7107F1ED
:1080B000080318220021184600F0D3FD03233B815A
:1080C00003237B81FB1DBB610123FB6107F10803D7
:1080D0000021184600F030FB0346002B01DAFF2395
:1080E00000E0FB7918462037BD4680BD80B5CEB094
:1080F00000AF07F59C73A3F59873196007F59C739F
:10810000A3F59A731A6007F59C73A3F5957302465D
:108110001A8007F11803C7F8343107F1100305225C
:108120000021184600F09DFD0023C7F83031D7F834
:10813000343107F59C72A2F5957212881A80D7F82F
:1081400030310233C7F8303107F58C731822002123
:10815000184600F086FD0823A7F818313023A7F849
:108160001A3107F11803C7F82031D7F83031C7F8B2
:10817000243107F11003C7F828310523C7F82C3143
:1081800007F58C730021184600F0D6FA0346002B41
:1081900001DAFF2323E007F59C73A3F594731B78A2
:1081A000002B05D007F59C73A3F594731B7816E09C
:1081B00007F59C73A3F59473DA7807F59C73A3F520
:1081C00098731B681A7007F59C73A3F594731A795A
:1081D00007F59C73A3F59A731B681A700023184661
:1081E00007F59C77BD4680BD90B5CDB000AF044685
:1081F0000846114607F59873A3F2291322461A7010
:1082000007F59873A3F5957302461A7007F59873EE
:10821000A3F22B130A461A7007F11003C7F82C318A
:1082200007F59873A3F2211300221A700023C7F8F0
:108230002831D7F82C3107F59872A2F2291212785A
:108240001A70D7F828310133C7F82831D7F82C3104
:1082500007F59872A2F5957212785A70D7F82831FE
:108260000133C7F82831D7F82C3107F59872A2F2FC
:108270002B1212789A70D7F828310133C7F82831B9
:1082800007F5887318220021184600F0EAFC08233D
:10829000A7F810313123A7F8123107F11003C7F8FE
:1082A0001831D7F82831C7F81C3107F10F03C7F888
:1082B00020310123C7F8243107F5887300211846BF
:1082C00000F03AFA0346002B01DAFF2304E007F539
:1082D0009873A3F221131B78184607F59A77BD46C9
:1082E00090BDB0B5CCB000AF05460C46104619465F
:1082F00007F59873A3F595732A461A8007F59873C6
:10830000A3F22B1322461A7007F59873A3F5967300
:1083100002461A7007F59873A3F22D130A461A70D5
:1083200007F11003C7F82C3107F59873A3F2211356
:1083300000221A700023C7F82831D7F82C3107F52E
:108340009872A2F5957212881A80D7F828310233F4
:10835000C7F82831D7F82C3107F59872A2F22B1202
:1083600012789A70D7F828310133C7F82831D7F836
:108370002C3107F59872A2F596721278DA70D7F858
:1083800028310133C7F82831D7F82C3107F5987216
:10839000A2F22D1212781A71D7F828310133C7F8DA
:1083A0002831D7F82C31B7F84021A3F80520D7F8A9
:1083B00028310233C7F8283107F5887318220021C5
:1083C000184600F04EFC0823A7F810313223A7F816
:1083D00012310F23C7F8143107F11003C7F8183111
:1083E000D7F82831C7F81C3107F10F03C7F820313F
:1083F0000123C7F8243107F588730021184600F0DF
:108400009BF90346002B01DAFF2304E007F598737C
:10841000A3F221131B78184607F59877BD46B0BD27
:1084200080B586B000AFEFF31083FB60FB687B6123
:1084300072B600BFBB1C1946124801F059F9BB1CAB
:108440001946104801F043FA38613B69002B0CD003
:108450007B69BB60BB6883F3108800BF7B880A4AD6
:1084600019463869F8F794FB08E0084B01221A70A6
:108470007B697B607B6883F3108800BF00BF18377F
:10848000BD4680BD0C06002021840008210000208C
:1084900080B584B000AFF860B9607A607A68B96876
:1084A000F86800F005F8034618461037BD4680BD51
:1084B00080B58AB000AFF860B9607A6000237B6253
:1084C000EFF31083BB61BB693B62FB68B3F1FF3F15
:1084D00002D100237B6237E0FB68012B06D0FB68EA
:1084E000022B03D04FF0FF337B622DE07B68002B23
:1084F0002AD07B687B6272B600BF7B689AB2012388
:10850000B968144800F0CEFEF861FB69002B15D065
:10851000114B1B78DBB2002B10D00F4B00221A70CE
:108520003B6A7B617B6983F3108800BF7B689BB2E9
:108530000A4A1946F869F8F72BFB05E03B6A3B61EC
:108540003B6983F3108800BF7B6A18462837BD4615
:1085500080BD00BF0C0600202100002021840008FF
:1085600080B588B006AF04220021254802F0A8FE9D
:1085700041F60A03BB80391D214B009303230122DE
:108580000120FFF7C7F90346FB71FB79002B06D1E9
:108590001B4B1B8819461B4802F042FD04E0FB7987
:1085A0001946194802F03CFD42F62923BB80144BC2
:1085B00018883A1D154B0593012304930A2303934E
:1085C000002302930023019302230093202301211F
:1085D000FFF776FA0346FB71FB79002B06D1084BB7
:1085E0005B8819460A4802F01BFD05E0FB79194635
:1085F000084802F015FD00BF0837BD4680BD00BF2A
:10860000F4010020A8E40008E8E40008F6010020D6
:1086100028E5000864E5000880B586B002AF03468F
:108620003960FB80FB8842F6292293420FD10C4B24
:1086300018880B4B59883B681A793B681B68009374
:1086400013460022FFF744FB0346FB7302E0972327
:10865000FB7300BFFB7B18461037BD4680BD00BFD3
:10866000F401002080B582B000AF786039603B68CB
:108670005B68084A1360084A7B68D361064800F0CB
:1086800079F93B681B68184600F0DAF800BF083734
:10869000BD4680BD540600202C06002080B584B065
:1086A00000AF224800F050FD0346002B2BD1204B99
:1086B0001B78002B27D007F10C0319461B4800F04C
:1086C000D2FD1C4BDB69002B0CD0FB68BB60012387
:1086D0003B71184BDB693A1D104698473A79144BA9
:1086E0001A7002E0124B01221A70114B1B78002BFA
:1086F00004D0FB68184601F039FC04E0FB68194619
:108700000A4800F043FD094800F01EFD0346002B17
:1087100007D1074B1B78002B03D00448FAF711FE52
:1087200000BF00BF1037BD4680BD00BFFC01002068
:10873000080200202C06002080B588B000AF7860C9
:108740000B46FB70002000F0D1F80023FB777B681C
:108750005B881BB2C3F309031AB27B681B889B02B8
:108760001BB213431BB2BB83334B01221A707B68CD
:10877000DB68D9B27B689A68BB8B184600F090F82A
:108780004EE048F2E800FAF7F3FD43E007F10C038E
:1087900019462A4800F067FDFB685B7A0F2B14D15D
:1087A000FB680B333B613B695B889BB2BA8B9A4297
:1087B00004D17B681B693A6912781A703B695B784F
:1087C000002B27D00123FB7724E0FB680B33BB6130
:1087D000BB69B3F801309BB2BA8B9A4214D1FB68E3
:1087E0009B7A033BFB757B685A69FB7D9A42A8BF65
:1087F0001A467B685A617B681869BB69D91C7B681B
:108800005B691A4602F0DBFDBB691B78002B01D0C7
:108810000123FB77094800F097FC0346002BB5D0F5
:10882000FB7F002BADD0012000F060F8002318463C
:108830002037BD4680BD00BF580600204C060020F2
:1088400080B586B000AF78600F4800F06DFC0F4A2D
:108850007B6813600E4800F067FC0E4B01221A7013
:108860000D4B1B68002B0AD07B683B610B4BBB6038
:10887000094B1B6807F108021046984700BF00BF6C
:108880001837BD4680BD00BF4C0600200402002002
:10889000FC010020080200202C0600202D89000881
:1088A00080B582B000AF03463A60FB800B467B7117
:1088B0000C4B1B68FA88A3F809200A4B1B687A79CD
:1088C000DA72084B1B680C337A793968184602F063
:1088D00076FD054B1B6900210020984700BF083733
:1088E000BD4680BD040200202C06002080B582B069
:1088F00000AF0346FB71FB79002B08D10A4B1B68C4
:10890000002B0DD0084B1B680020984708E0064B51
:108910001B68002B04D0044B1B680120984700BF44
:1089200000BF0837BD4680BD5406002080B582B028
:1089300000AF78607B685B7A0F2B03D07B685B7A33
:108940000E2B07D17968094800F046FC0020FAF7A1
:1089500004FD06E07968064800F03EFC0448FAF79A
:10896000F0FC00BF0837BD4680BD00BF4C060020AC
:10897000FC01002080B483B000AF78607B68054ABA
:108980001A607B68044A1A6100BF0C37BD465DF867
:10899000047B7047E59C00084D9D000880B58AB0B7
:1089A00000AF7860002387F827307B6801333B6293
:1089B0003B6A1B78FF2B39D13B6A0233FB61FB69B1
:1089C0001B889BB21A4640F601439A422AD1FB69A2
:1089D0000233BB61BB695B889BB21A46174B5B884D
:1089E00002339A4220D1012387F82730BB691B7AD2
:1089F00003F00103002B0AD0114802F081FB012390
:108A00003B7207F108031846FAF708FD0CE00D4821
:108A100002F076FB02233B7207F108031846FAF7CF
:108A2000FDFC01E000BF02E000BF00E000BF97F8DE
:108A3000273018462837BD4680BD00BF0C020020F5
:108A4000A4E50008E4E5000880B588B002AF7860CE
:108A500000233B757B685B793B730123FB757B6867
:108A60005B7903F00103002B18D07B681A88FB7D2B
:108A7000D2B218333B4403F80C2CFB7D0133FB7559
:108A80007B681B881B0A9AB2FB7DD2B218333B4429
:108A900003F80C2CFB7D0133FB750AE07B681A8818
:108AA000FB7DD2B218333B4403F80C2CFB7D013321
:108AB000FB757B685B7903F01003002B34D07B6877
:108AC0005B7903F00103002B03D07B681B797B7576
:108AD00002E07B681B797B750023BB7520E0BB7DC2
:108AE0007A685B0013445A88FB7DD2B218333B444A
:108AF00003F80C2CFB7D0133FB75BB7D7A685B00B2
:108B000013445B881B0A9AB2FB7DD2B218333B44F4
:108B100003F80C2CFB7D0133FB75BB7D0133BB756A
:108B2000BA7D7B7D9A42DAD3094B1888084B598865
:108B3000FA7D07F10C03009313460022FFF7C8F8F3
:108B400003463B753B7D18461837BD4680BD00BFC8
:108B50000C02002080B588B006AF0023FB712548C9
:108B600001F012F841F60D03BB80391D224B009332
:108B7000042301220120FEF7CDFE0346FB71FB79A1
:108B8000002B06D11C4B1B8819461C4802F048FAE2
:108B900004E0FB7919461A4802F042FA42F63723FC
:108BA000BB80154B18883A1D164B0593012304937F
:108BB0000A230393002302930023019310230093BD
:108BC00005230121FEF77CFF0346FB71FB79002B97
:108BD00006D1094B5B8819460B4802F021FA05E0E3
:108BE000FB791946094802F01BFA00BF0837BD4659
:108BF00080BD00BF9D8900080C02002028E6000807
:108C000060E600080E02002098E60008DCE6000896
:108C100080B584B000AF03463960FB800023FB734E
:108C2000FB8842F63722934205D13868FFF70CFFE4
:108C30000346FB7300E000BFFB7B18461037BD46C0
:108C400080BD80B584B000AFF860B9607A607A68A2
:108C5000B968F86802F0B3FB034618461037BD4602
:108C600080BD80B584B000AFF860B9607A607A6882
:108C7000B968F86802F024FB034618461037BD4671
:108C800080BD000080B485B000AF0346FB710F4B80
:108C9000FB6002E0FB68083BFB60FB6807331B7866
:108CA000FA799A4203D0FB68094A9342F2D1FB68F1
:108CB00007331B78FA799A4201D00023FB60FB68E6
:108CC00018461437BD465DF8047B7047F873FF1FE4
:108CD0000070FF1F80B588B000AF786007F10C030B
:108CE000FB617B6803F10C02FB692E214FF66640A5
:108CF00000F04CF9FB690B33DB7818462037BD4692
:108D000080BD80B588B000AF786007F10C03FB61CF
:108D10007B6803F10C02FB690F214FF6684000F0FD
:108D200035F9FB690B33DB7818462037BD4680BD2B
:108D300080B588B000AF786007F10C03FB61FB6978
:108D40007A6810214FF6754000F020F9FB690B336B
:108D5000DB7818462037BD4680BD000080B48BB05C
:108D600000AF786000233B610023FB6000237B623F
:108D700000233B620023FB610023BB600023BB6137
:108D800000237B614A4BDB6BC3F30D033B613B6903
:108D90009B0003F1005303F540331B68BB60BB68C5
:108DA0001B68444A93420FD1BB685B697B62BB6816
:108DB0009B693B62BB68DB69FB61BB68DB68BB61CD
:108DC000BB681B697B611AE03B699B0003F10053A0
:108DD00003F54033FB60FB681B681B697B62FB6823
:108DE0001B685B693B62FB681B689B69FB61FB68F6
:108DF0001B685B68BB61FB681B689B687B617B6A67
:108E00001B0EDAB27B681A707B6A1B0CDAB27B68C5
:108E10005A707B6A1B0ADAB27B689A707B6A1B09FC
:108E2000DBB203F00F03DAB27B68DA707B6ADBB285
:108E300003F00F03DAB27B681A713B6A1B0EDAB2D9
:108E40007B685A713B6A1B0CDAB27B689A713B6A89
:108E50001B0ADAB27B68DA713B6ADAB27B681A7293
:108E6000FB69DAB27B685A72BB691B0EDAB27B68A7
:108E70009A72BB691B0CDAB27B68DA72BB691B0A97
:108E8000DAB27B681A737B691B0EDAB27B685A739D
:108E90007B691B0CDAB27B689A737B69DAB27B68F8
:108EA000DA73002318462C37BD465DF8047B704703
:108EB00000400058B95646A980B582B000AF78602E
:108EC00039603B685B68084A1360084A7B68D36175
:108ED000064800F015F93B681B68184600F098F842
:108EE00000BF0837BD4680BD7C0600205C06002020
:108EF00080B584B000AF224800F026F90346002B6D
:108F00002BD1204B1B78002B27D007F10C031946DF
:108F10001B4800F0A8F91C4BDB69002B0CD0FB6848
:108F2000BB6001233B71184BDB693A1D1046984723
:108F30003A79144B1A7002E0124B01221A70114B4D
:108F40001B78002B04D0FB68184601F00FF804E0F2
:108F5000FB6819460A4800F019F9094800F0F4F8CE
:108F60000346002B07D1074B1B78002B03D0044886
:108F7000F8F7A8F800BF00BF1037BD4680BD00BF9E
:108F800034020020440200205C06002080B584B03A
:108F900000AFBA607B600346FB810B467B73002009
:108FA00000F068F8174B1B68FA89A3F80920154BE5
:108FB0001B687A7BDA72134B1B680C337A7BB968B7
:108FC000184602F0FCF9104B01221A700F4B1B6976
:108FD00000210020984748F2E800F8F78AF87B68FB
:108FE00003F10800074B1968064B1B689B78033395
:108FF0001A4602F0E4F9012000F03CF800BF1037F7
:10900000BD4680BD40020020800600205C06002096
:1090100080B586B000AF7860104A7B681360104856
:1090200000F082F8012000F025F80E4B01221A70A2
:109030000D4B1B68002B0CD07B687B610B4BFB60DE
:109040000B4B3B61084B1B6807F10C02104698471D
:1090500000BF00BF1837BD4680BD00BF40020020E2
:1090600034020020440200205C060020C590000865
:10907000DD90000880B582B000AF0346FB71FB793C
:10908000002B0BD10D4B1B68002B03D00B4B1B6827
:10909000002098470A4B00221A700BE0084B01226F
:1090A0001A70064B1B68002B04D0044B1B68012070
:1090B000984700BF00BF0837BD4680BD7C06002032
:1090C0003C02002080B582B000AF78600020F8F745
:1090D00005F800BF0837BD4680BD000080B582B0EE
:1090E00000AF78607968054800F076F80348F7F734
:1090F000E9FF00BF0837BD4680BD00BF3402002035
:1091000080B483B000AF78607B68054A1A607B68E2
:10911000044A1A6100BF0C37BD465DF8047B7047F6
:10912000F99D00084D9E000880B483B000AF7860C0
:109130007B687A681A607B687A685A6000BF0C376F
:10914000BD465DF8047B704780B487B000AF78609F
:10915000EFF31083FB60FB683B6172B600BF7B6876
:109160001B687A689A4202D10123FB7501E0002353
:10917000FB753B69BB60BB6883F3108800BFFB7D58
:1091800018461C37BD465DF8047B704780B487B035
:1091900000AF78603960EFF31083FB60FB687B61A0
:1091A00072B600BF7B681A683B681A603B687A68D1
:1091B0005A607B683A681A603B681B683A685A6074
:1091C0007B693B613B6983F3108800BF00BF1C379C
:1091D000BD465DF8047B704780B487B000AF78600F
:1091E0003960EFF31083FB60FB687B6172B600BFF0
:1091F0003B687A681A607B685A683B685A607B688B
:109200003A685A603B685B683A681A607B693B6100
:109210003B6983F3108800BF00BF1C37BD465DF873
:10922000047B704780B487B000AF7860EFF31083A1
:10923000FB60FB687B6172B600BF7B685B687A6825
:1092400012681A607B681B687A6852685A607B698A
:109250003B613B6983F3108800BF00BF1C37BD46EC
:109260005DF8047B704780B586B000AF78603960E8
:10927000EFF31083FB60FB687B6172B600BF7B6815
:109280001A683B681A607B681B681846FFF7CAFFBC
:109290007B693B613B6983F3108800BF00BF1837CF
:1092A000BD4680BD80B58EB000AFF860B9603B6050
:1092B0001346FB8000233B620023FB860023FB77E1
:1092C0000023BB6200237B620023BB770023BB83A8
:1092D000FB681B89002B01D1022300E00023FB77F0
:1092E000FB685B69002B29D0FB681B89002B22D10E
:1092F000FB681A68FB681B6913441B781846FB68F7
:109300001A68FB681B69591CFB685B68994206D3A5
:10931000FB681969FB685B68CB1A013302E0FB68E4
:109320001B69013313441B781B029BB203449BB29D
:1093300002339BB201E0FB681B89FB86FB681B893B
:10934000002B02D0FB681B89FB80FB681A69FB6855
:10935000DB689A4207D3FB685A68FB681969FB8E81
:109360000B44D31A00E00023BB61FA88FB7F13444F
:109370001A463B6802FB03F3BA699A420BD8FA8893
:10938000FB7F13441A46BB69B3FBF2F101FB02F207
:109390009B1ADBB200E00023FB75FA7DFB7F9A424B
:1093A0008CBF01230023DBB2BB77BB7F002B08D02F
:1093B000FB681B7F03F00103002B02D0FB7D9BB2F7
:1093C00000E0BB8BBB83BB7F002B08D0FB681B7FFF
:1093D00003F00203002B02D0FB7F9BB200E0BB8BAB
:1093E000BB83FB88002B00F07E81FB685A69F988FB
:1093F000FB7F0B4419463B6801FB03F31A44BB8B0C
:109400001A44FB685B689A4200F26D810023FB629C
:109410004AE1FB681A69FB8E1A44FB685B689A4252
:1094200007D3FB681A69FB8E1A44FB685B68D31A82
:1094300003E0FB681A69FB8E1344FA681361FB684A
:109440001B693B63FB681B89002B30D1FB681A68E2
:109450003B6B591C39631344FA88D2B21A70FB680B
:109460005B683A6B9A4204D3FB685B683A6BD31A29
:1094700000E03B6B3B63FB881B0A98B2FB681A68F1
:109480003B6B591C39631344C2B21A70FB685B68AA
:109490003A6B9A4204D3FB685B683A6BD31A00E0DC
:1094A0003B6B3B63FB685B699A1CFB685A61FA88FB
:1094B000FB6859683B6BCB1A934228BF1346BB62CB
:1094C000FB88BA6A9A4207D0FB88BA6A9A4225D2C8
:1094D000FB681B7F002B21D1FB681A683B6BD018FF
:1094E000FB88FA6A02FB03F3BA681344BA6A1946A6
:1094F00001F065FFFB685A69BB6A1A44FB685A6150
:1095000000233B63BB6A7B62FA88BB6AD31ABB62E7
:10951000FB7F9AB2FB881344FB86A4E0BB6A002B56
:1095200000F0A180FB681B7F03F00103002B3AD001
:10953000FB681B89002B0DD1FB681A683B6B023B53
:109540001344FF221A70FB681A683B6B013B1344FB
:10955000FF221A70FB685A69BB6A1A44FB685A6199
:1095600000237B62FB88BB6200233B63FB681B8993
:10957000002B6FD1FB681A683B6B591C396313448D
:10958000BA6AD2B21A70BB6A180AFB681A683B6BD7
:10959000591C39631344C2B21A70FB685B699A1C88
:1095A000FB685A6156E0FB681B7F03F00203002B47
:1095B00050D0FB681B89002B4AD1FB681A683B6BB3
:1095C000023B1344BA6AD2B21A70BB6A190AFB682A
:1095D0001A683B6B013B1344CAB21A70FB681A68E5
:1095E0003B6BD018FB88FA6A02FB03F3BA6813449A
:1095F000BA6A194601F0E3FEFB685A69BB6A1A446D
:10960000FB685A61BB6A7B62FA88BB6AD31ABB6289
:10961000FB689B695A1CFB689A6100233B63FB68EB
:109620001A683B6B591C39631344BA6AD2B21A7078
:10963000BB6A180AFB681A683B6B591C39631344F0
:10964000C2B21A70FB685B699A1CFB685A6101E040
:10965000002349E0FB7F9AB2BB6A9BB21344FB86AE
:10966000FB6800221A61BB6A002B15D0FB681A68E0
:109670003B6BD018FB88FA6A03FB02F27B6A134447
:10968000BA681344BA6A194601F099FEFB685A6930
:10969000BB6A1A44FB685A61FB689B695A1CFB68E9
:1096A0009A61FB6A0133FB62FA6A3B689A42FFF4F3
:1096B000B0AEFB681A68FB681969FB7F1944FB6848
:1096C0005B68994207D3FB681969FB7F1944FB6803
:1096D0005B68CB1A03E0FB681969FB7F0B441344FA
:1096E0003B623B6A00E0002318463837BD4680BD28
:1096F00080B485B000AF7860396000237B720023AE
:10970000FB607B681B89002B01D1022300E0002352
:109710007B7200237B817B685B69002B00F0CA8031
:109720007B681B89002B20D17B681A687B68DB680B
:1097300013441B7818467B681A687B68DB68591CE1
:109740007B685B68994206D37B68D9687B685B68F5
:10975000CB1A013302E07B68DB68013313441B78CA
:109760001B029BB203449BB201E07B681B897B8197
:109770007B681B7F03F00103002B56D07B681B7FA7
:1097800003F00203002B50D17B894FF6FF72934206
:1097900003D17B681B89002B12D07B68DA687B6859
:1097A0001B699A4241D97B681B89002B3DD07B689D
:1097B0005A687B68DB68D31A7A681289934234D27C
:1097C0007B685A697B68D9687B685B68CB1A1A44E6
:1097D0007B685A617B680022DA607B681B89002BFA
:1097E00020D17B681A687B68DB6813441B781846B5
:1097F0007B681A687B68DB68591C7B685B689942E8
:1098000006D37B68D9687B685B68CB1A013302E0BA
:109810007B68DB68013313441B781B029BB2034453
:109820009BB201E07B681B897B817B681A687B683F
:10983000D9687B7A19447B685B68994207D37B6857
:10984000D9687B7A19447B685B68CB1A03E07B6834
:10985000D9687B7A0B441344FB607B685B69798928
:109860007A7A0A449A1A7B685A617B685B69002B92
:109870001BD07B68DA687B891A447B7A1A447B6840
:109880005B689A4209D37B68DA687B891A447B7AE1
:109890001A447B685B68D31A05E07B68DA687B89C9
:1098A0001A447B7A13447A68D3607B689B695A1E9A
:1098B0007B689A613B68002B02D03B687A891A80EA
:1098C000FB6818461437BD465DF8047B704780B4CA
:1098D00087B000AF786039600023FB7200237B61A2
:1098E0007B681B89002B01D1022300E00023FB725F
:1098F00000237B820023FB607B685B69002B00F008
:109900008E807B68DB68FB607B681B89002B20D125
:109910007B681A687B68DB6813441B7818467B6891
:109920001A687B68DB68591C7B685B68994206D3C0
:109930007B68D9687B685B68CB1A013302E07B687F
:10994000DB68013313441B781B029BB203449BB2B8
:1099500001E07B681B897B827B681B7F03F001032E
:10996000002B47D07B681B7F03F00203002B41D103
:109970007B8A4FF6FF72934203D17B681B89002BD1
:1099800012D07B68DA687B681B699A4232D97B689F
:109990001B89002B2ED07B685A687B68DB68D31A42
:1099A0007A681289934225D20023FB607B681B8969
:1099B000002B1CD17B681A68FB6813441B7818467F
:1099C0007B681A68FB68591C7B685B68994205D301
:1099D0007B685B68F968CB1A013301E0FB680133EF
:1099E00013441B781B029BB203449BB201E07B68CB
:1099F0001B897B827B681A68F97AFB6819447B684B
:109A00005B68994206D3F97AFB6819447B685B6806
:109A1000CB1A02E0F97AFB680B4413447B613B6884
:109A2000002B02D03B687A8A1A807B6918461C3763
:109A3000BD465DF8047B704780B400AF00BFBD46F3
:109A40005DF8047B704780B400AF00BFBD465DF891
:109A5000047B704780B400AF00BFBD465DF8047B57
:109A6000704780B400AF00BFBD465DF8047B70470F
:109A700080B400AF00BFBD465DF8047B704780B482
:109A800000AF00BFBD465DF8047B704780B400AFF7
:109A900000BFBD465DF8047B704780B400AF00BFD7
:109AA000BD465DF8047B704780B400AF00BFBD4683
:109AB0005DF8047B704780B400AF00BFBD465DF821
:109AC000047B704780B400AF00BFBD465DF8047BE7
:109AD000704780B400AF00BFBD465DF8047B70479F
:109AE00080B400AF00BFBD465DF8047B704780B412
:109AF00000AF00BFBD465DF8047B704780B400AF87
:109B000000BFBD465DF8047B704780B400AF00BF66
:109B1000BD465DF8047B704780B500AF044B002262
:109B20001A77044B00221A7000F006F800BF80BDBF
:109B3000100200203002002080B500AFFFF77CFF4C
:109B4000FFF781FFFFF786FFFEF70AFDFFF789FFAA
:109B5000FFF78EFFFEF7FEFFFFF791FFFFF796FF7F
:109B6000FFF79BFFFFF7A0FFFFF7A5FFFFF7AAFF97
:109B7000FFF7AFFFFFF7B4FFFFF7C0FFFFF7B7FF37
:109B8000FFF7C3FF00BF80BD80B483B000AF786033
:109B9000094B1B7F1946084A7B6842F82130064B67
:109BA0001B7F0133DAB2044B1A7700BF0C37BD4676
:109BB0005DF8047B704700BF1002002080B586B0BE
:109BC00000AF78607B6801333B610023FB753B6924
:109BD0001B78FF2B25D13B690233FB60FB681B8898
:109BE0009BB203F47F43B3F5406F18D100237B751C
:109BF0000DE07B7D1A4A52F8233078689847034677
:109C0000FB75FB7D002B08D17B7D01337B75144BED
:109C10001B7F7A7D9A42ECD302E000BF00E000BFD8
:109C200000E000BFFB7D022B0FD0022B10DC002BCD
:109C300002D0012B06D00BE07868F8F789FD0346C7
:109C4000BB7508E00123BB7505E00023BB7502E08E
:109C50000123BB7500BFBB7D18461837BD4680BDCC
:109C60001002002080B500AFF9F7D2FD00BF80BD23
:109C700080B500AF104B114A1A600F4B104A5A6062
:109C80000D4B104A9A600C4B0F4A1A620A4B0F4A4E
:109C90005A62094B0E4ADA60074B0E4A1A61064BAC
:109CA0000D4A5A61044B0D4A9A61034B0C4ADA6122
:109CB000F9F7C2FD00BF80BD00000320340103207E
:109CC0005401032064010320740103207C0103205C
:109CD000840103208C010320A8010320AC01032090
:109CE000B801032080B584B000AF78607B68FB606A
:109CF0001148FFF719FA114B5B68BB60FB689A6863
:109D0000BB681A60FB68DA68BB68DA60BB680C4A3B
:109D10005A60BB68084A9A60F9F7A4FDFB681B68A3
:109D2000084A1360FB685B68074A13600023184603
:109D30001037BD4680BD00BFD401032000000320C2
:109D4000580A03208C0600209006002080B582B0BF
:109D500000AF78600B467B80094B5B681B68012273
:109D60001A72074B5B681B681946012000F06CF9FA
:109D7000F9F782FD002318460837BD4680BD00BFB5
:109D80000000032080B582B000AF1CE03B1D1946E7
:109D90001248FFF768FA7B685B7A0F2B03D07B6869
:109DA0005B7A0E2B05D17B681946022000F04CF936
:109DB00004E07B681946032000F046F9084B1B6855
:109DC0007A68104698470548FFF7BEF90346002B0E
:109DD000DCD000BF0837BD4680BD00BFD4010320E2
:109DE0008C06002080B500AF024B1B68984700BF6F
:109DF00080BD00BF9006002080B584B000AF7860C1
:109E00007B68FB600D48FFF78FF90D4BDB68BB608B
:109E1000FB689A68BB681A60BB68084A5A60F9F721
:109E20004DFDFB681B68074A1360FB685B68064AC8
:109E30001360002318461037BD4680BDDC010320A7
:109E400000000320940600209806002080B582B010
:109E500000AF78600B467B80094BDB681B681022E3
:109E60001A72074BDB681B681946042000F0ECF8F7
:109E7000F9F72EFD002318460837BD4680BD00BF08
:109E80000000032080B500AF074BDB681B68194654
:109E9000052000F0D9F8054B1B68034AD268126808
:109EA0001046984700BF80BD0000032094060020A4
:109EB00080B582B000AF0EE03B1D19460B48FFF79E
:109EC000D2F97B681946062000F0BEF8084B1B68E3
:109ED0007A68104698470548FFF736F90346002B85
:109EE000EAD000BF0837BD4680BD00BFDC010320BB
:109EF0009806002080B582B000AF78601748FFF761
:109F000013F91748FFF710F9164B1B69164A13602F
:109F1000154B1B687A6892689A60134B1B687A68C5
:109F2000D268DA60104B1B680C4A1A610E4B1B6832
:109F30007A6812681A600C4B1B687A6852685A601B
:109F4000094B1B687A6812695A61074B1B687A686B
:109F500052699A6100BF0837BD4680BDC401032025
:109F600084060020000003209C06002080B582B0FB
:109F700000AF786079680748FFF72EF9796800200C
:109F800000F062F80448F9F7C9FC00BF0837BD4685
:109F900080BD00BF840600209D9F000880B582B070
:109FA00000AF0CE03B1D19460A48FFF75CF90A4B6D
:109FB0001B691B697A6811461846FFF70DF90548B9
:109FC000FFF7C2F80346002BECD000BF0837BD46B0
:109FD00080BD00BF840600200000032080B500AFD4
:109FE0000548FFF7A1F8054B5B69034A1A60F9F7CA
:109FF000CBFC00BF80BD00BFCC01032000000320CC
:10A0000080B582B000AF08E03B1D19460848FFF755
:10A010002AF97B68184600F00DF80548FFF794F818
:10A020000346002BF0D000BF0837BD4680BD00BFFF
:10A03000CC01032080B483B000AF786000BF0C3740
:10A04000BD465DF8047B704780B485B000AF034621
:10A050003960FB71FB79062B45D801A252F823F039
:10A060007DA00008A1A00008A7A00008BBA00008D0
:10A07000C7A00008CDA00008DBA000083B68FB607B
:10A08000FB685B7AFF2B05D0FF2B05DC0E2B05D080
:10A090000F2B01E000BF27E000BF25E000BF23E059
:10A0A0003B68BB6020E03B68FB60FB685B7A0E2B83
:10A0B00001D00F2B00E000BF16E03B68FB60FB689F
:10A0C0005B7AFF2B10E03B68BB600DE03B68FB60F8
:10A0D000FB685B7A0E2B00BF06E03B68FB60FB6809
:10A0E0005B7AFF2B00E000BF00BF1437BD465DF870
:10A0F000047B704780B400AF054B00221A60054B0B
:10A1000000221A6000BFBD465DF8047B704700BFA7
:10A11000A0060020A406002080B487B000AF7860BD
:10A120000B46FB70EFF310833B613B697B6172B6BA
:10A1300000BFFB78002B08D0012B0ED10D4B1A6805
:10A140007B6813430B4A136008E07B68DA43094BD2
:10A150001B681340074A136000E000BF7B69FB6087
:10A16000FB6883F3108800BF00BF1C37BD465DF855
:10A17000047B7047A406002080B590B000AF7860E3
:10A18000734B1B68BB62724B1A687B681340704A42
:10A190001360704B1B68BB636F4B1B687B636F4B1B
:10A1A0001B683B636E4B1B68FB628DE00023FB6307
:10A1B00002E0FB6B0133FB636A4AFB6B52F833200E
:10A1C0003B6B1A40624B1B681340002BF1D0654A71
:10A1D000FB6B52F833203B6B1A405D4B1B681340FE
:10A1E0007B62604AFB6BDB0013445A687B6A134056
:10A1F000002B06D15B4AFB6BDB0013444FF0FF32B0
:10A200005A60584AFB6BDB0013445A687B6A134060
:10A21000184600F0B3F903461A46534B1A60514AE8
:10A22000FB6BDB0013445A684F4B1B68012101FA9A
:10A2300003F3DB431A404B49FB6BDB000B445A60D2
:10A24000EFF31083BB61BB693B6272B600BF464B44
:10A250001B68012202FA03F3DA433E4B1B681340EA
:10A260003C4A13600223FB6313E0FB6B013B3D4A56
:10A2700052F833103C4B1B68012202FA03F3DA4315
:10A28000FB6B013B0A40374941F83320FB6B013B34
:10A29000FB63FB6B002BE8D13B6A7B617B6983F33B
:10A2A000108800BF304B1B68304A52F82330984763
:10A2B000284B1B68BB63284B1B687B63274B1B68C1
:10A2C0003B63274B1B68FB62BA6B3B6B1A40204B0E
:10A2D0001B681340002B05D07A6BFB6A1340002BE0
:10A2E0003FF464AF204B4FF0FF321A6000F038F9B2
:10A2F000EFF310833B613B69FB6172B600BF154B06
:10A300001B68BB63144B1B687B63144B1B683B636C
:10A31000BA6B3B6B1A400E4B1B681340002B07D1E6
:10A320000F4B1A687B6B1340002B01D1F6F7B6FE7A
:10A33000FB69FB60FB6883F3108800BF00F017F92E
:10A34000034ABB6A136000BF4037BD4680BD00BFF3
:10A3500028000020A8060020AC06002024000020D1
:10A36000B006002038070020B4060020B806002000
:10A3700080B588B000AFF860B9607A60EFF3108301
:10A380007B617B69FB6172B600BFF86800F0F6F88C
:10A3900003461946064A7B6842F82130FB69BB61D7
:10A3A000BB6983F3108800BF00BF2037BD4680BD66
:10A3B000B806002080B487B000AF78603960EFF352
:10A3C0001083FB60FB687B6172B600BF0D4B1A689F
:10A3D0007B6813430B4A13600B4A3B6852F83320E7
:10A3E0007B681A4308493B6841F833207B693B612D
:10A3F0003B6983F3108800BF00BF1C37BD465DF882
:10A40000047B7047A80600203807002080B487B07E
:10A4100000AF7860EFF31083FB60FB687B6172B67E
:10A4200000BF7B68DA43084B1B681340064A136081
:10A430007B693B613B6983F3108800BF00BF1C3719
:10A44000BD465DF8047B70472400002080B487B0CF
:10A4500000AF7860EFF31083FB60FB687B6172B63E
:10A4600000BF094B1A687B681343074A13607B6976
:10A470003B613B6983F3108800BF00BF1C37BD46BA
:10A480005DF8047B704700BF2400002080B487B0D3
:10A4900000AF7860EFF31083FB60FB687B6172B6FE
:10A4A00000BF094B1A687B681343074A13607B6936
:10A4B0003B613B6983F3108800BF00BF1C37BD467A
:10A4C0005DF8047B704700BFAC06002080B588B003
:10A4D00000AF78601F4B1B68BB611E4B1B68B3F15C
:10A4E000FF3F02D10023FB6105E01A4B1B680122EC
:10A4F00002FA03F3FB61184B1B687B61164A7B6809
:10A50000136003E07968F869F6F7CFFD134B1A681A
:10A510007B681340002BF5D00E4ABB691360EFF344
:10A520001083BB60BB683B6172B600BF7B68DA43D7
:10A530000A4B1B681340094A13603B69FB60FB68C8
:10A5400083F3108800BF044A7B69136000BF203783
:10A55000BD4680BDB4060020B0060020AC06002039
:10A5600080B400AF00BFBD465DF8047B704780B487
:10A5700000AF00BFBD465DF8047B704780B485B076
:10A5800000AF78600023FB737B68BB60BB68B3F5EA
:10A59000803F04D21023FB73BB681B04BB60BB6805
:10A5A000B3F1807F05D2FB7B0833FB73BB681B02D2
:10A5B000BB60BB68B3F1805F05D2FB7B0433FB73E8
:10A5C000BB681B01BB60BB681B0F074AD25CFB7BEF
:10A5D0001344FB73FB7BC3F11F03DBB21846143734
:10A5E000BD465DF8047B704704E900082DE9FF478C
:10A5F00057EC106B002F0C4619463B46BBBF07F1CA
:10A6000000431F4600232D230B700D9BDDF830A067
:10A61000914623F02008BCBF32461646B8F1460FDB
:10A6200005D0B8F1450F00D10134022100E003212B
:10A6300003AB019302AB009347EC106B53462246E9
:10A6400000F056FFB8F1470F054619D119F0010F78
:10A650000ED000EB04090022002330463946F6F7FD
:10A660000BFA08B1CDF80C903022039B4B451ED35A
:10A67000039B0E9A5B1B2846136004B0BDE8F0876D
:10A68000B8F1460F00EB0409E5D10378302B0AD16D
:10A690000022002330463946F6F7EEF918B9C4F126
:10A6A0000104CAF80040DAF800309944D3E7591C95
:10A6B00003911A70D9E7F7B50029BABF49422D2393
:10A6C0002B2309290270437029DD0DF107031D4674
:10A6D0000A271A46B1FBF7F607FB1614303402F8C6
:10A6E000014C0C46632C03F1FF333146F1DC303171
:10A6F000941E03F8011C411C2346AB420AD30DF102
:10A7000009039B1AAC4288BF002302330344181A82
:10A7100003B0F0BD13F8016B01F8016FEDE73023D2
:10A7200030318370C170031DF1E700002DE9F04F57
:10A730008DB00C46DDF8588016461F46054600F0E1
:10A74000C7FD036804931846F5F76AFD00230A93D2
:10A75000D8F800300590073323F0070303F108020F
:10A7600094F818A0D4F800B0C8F80020D3E9008904
:10A7700029F000430793CDF81880C4E91289DDE978
:10A7800006019C4B4FF0FF32F6F7A8F970BBDDE9EC
:10A790000601984B4FF0FF32F6F782F930BB0022EA
:10A7A000002340464946F6F771F910B12D2384F88D
:10A7B0004330914A914BBAF1470F94BF9046984667
:10A7C000032323612BF0040323604FF0000900975B
:10A7D00033460BAA2146284600F0D2F9013040F05A
:10A7E0008D804FF0FF300DB0BDE8F08F42464B46F4
:10A7F00040464946F6F772F940B14B46002BBCBFC4
:10A800002D2384F843307E4A7E4BD4E763680AF0F8
:10A81000DF0206925A1C3BD1062363604BF4806230
:10A820000023226003930AABCDE901A309AB009397
:10A83000616849EC108B0DF123032846FFF7D6FE23
:10A84000069B0999472B804629D1C81C02DB636807
:10A85000994241DDAAF1020A5FFA8AFA01395246A9
:10A8600004F150000991FFF726FF0A9A1318012AF4
:10A870008146236102DC2268D20701D501332361BE
:10A880009DF82330002BA2D02D2384F843309EE77F
:10A89000069A472AC2D1002BC0D10123BDE7BAF1E5
:10A8A000650FDBD9BAF1660F18D1002963680BDD9B
:10A8B000216113B92268D00702D501330B4423610B
:10A8C000A1654FF00009DBE713B92268D20701D573
:10A8D0000233F4E70123F2E74FF0670A0A9B99423B
:10A8E00005DB23682161D807EAD54B1CE7E700297F
:10A8F000D4BFC1F1020201221344E0E723685A05E4
:10A9000007D42369424631462846B84701302BD147
:10A9100067E7BAF1650F40F2DD80D4E91201002249
:10A920000023F6F7A9F8002833D0374A012331462F
:10A930002846B84701303FF454AFDDE909384345B4
:10A9400002DB2368D8070FD5DDE90423314628460A
:10A95000B84701303FF445AF4FF0000908F1FF3828
:10A9600004F11A0AC84509DC23689B0700F103813A
:10A97000E0680B9B9842B8BF184634E70123524663
:10A9800031462846B84701303FF42BAF09F10109A1
:10A99000E8E7099B002B39DC1B4A01233146284696
:10A9A000B84701303FF41DAFDDE9093959EA030327
:10A9B00002D12368D907D7D5DDE9042331462846DB
:10A9C000B84701303FF40DAF4FF0000A04F11A0B05
:10A9D000099B5B42534501DC4B4693E701235A46F2
:10A9E00031462846B84701303FF4FBAE0AF1010A70
:10A9F000EEE700BFFFFFEF7F14E9000818E9000849
:10AA00001CE9000820E9000824E90008A36DDDF82E
:10AA100028A05345A8BF5346002B994636DC4FF07B
:10AA2000000B29EAE97904F11A02A36D0693A3EB5E
:10AA300009035B4531DC099B9A453ADC2368DA0758
:10AA400037D4099BAAEB0309069BAAEB030399459C
:10AA5000A8BF9946B9F1000F33DC4FF0000829EA8E
:10AA6000E97904F11A0B099BAAEB0303A3EB090391
:10AA700043457FF779AF01235A4631462846B84708
:10AA800001303FF4AEAE08F10108ECE74246314632
:10AA90002846B8470130C2D1A3E6012331462846F3
:10AAA0000692B84701303FF49CAE069A0BF1010BB9
:10AAB000BBE7DDE9042331462846B8470130C0D161
:10AAC0008FE6069A4B46424431462846B847013045
:10AAD000C3D186E6DDF828A0BAF1010F01DCDB075F
:10AAE00036D50123424631462846B84701303FF467
:10AAF00078AEDDE9042331462846B84701303FF4FB
:10AB000070AED4E91201002200230AF1FF3AF5F7F2
:10AB1000B3FFC0B9534608F1010231462846B84791
:10AB200001300CD15DE601235A4631462846B8472C
:10AB300001303FF456AE08F10108D045F3DB4B4637
:10AB400004F15002DFE64FF0000804F11A0BF4E7BD
:10AB500001234246E1E701234A4631462846B847E9
:10AB600001303FF43EAE08F10108E3680B995B1A2F
:10AB70004345F0DCFCE64FF0000804F11909F4E766
:10AB80002DE9F047164698468A680B69DDF8209053
:10AB90009342B8BF1346336091F8432007460C46F2
:10ABA0000AB1013333602368990642BF3368023328
:10ABB0003360256815F0060506D104F1190AE3682B
:10ABC00032689B1AAB4226DC94F843302268003B83
:10ABD00018BF012392062BD404F1430241463846A4
:10ABE000C84701301ED02368226903F00603042BF6
:10ABF00002BFE5683368ED1AA3680CBF25EAE57566
:10AC000000259342C4BF9B1AED1800261A34B542A2
:10AC10001AD1002008E00123524641463846C84771
:10AC2000013003D14FF0FF30BDE8F0870135C6E7B2
:10AC3000E1185A1C302081F84300224494F8451052
:10AC400082F843100233C7E70123224641463846C3
:10AC5000C8470130E6D00136D9E700002DE9FF47AB
:10AC60000F7E0C9E782F914680460C469A4601F145
:10AC7000430207D8622F0AD8002F00F0D280582F45
:10AC800000F0B98004F1420684F842703AE0A7F17E
:10AC90006303152BF6D801A151F823F0F5AC000899
:10ACA00009AD000885AC000885AC000885AC00083B
:10ACB00085AC000809AD000885AC000885AC00082B
:10ACC00085AC000885AC000809AE000833AD00086B
:10ACD000C3AD000885AC000885AC00082BAE0008A9
:10ACE00085AC000833AD000885AC000885AC0008D1
:10ACF000CBAD000833681A1D1B68326004F14206B0
:10AD000084F8423001239DE033682068191D3160CA
:10AD1000060601D51D6803E04506FBD5B3F90050D2
:10AD2000002D03DA2D236D4284F8433059480A235D
:10AD300011E021683368080653F8045B02D4490621
:10AD400048BFADB26F2F5348336014BF0A230823A6
:10AD5000002184F843106668A660002EA2BF216817
:10AD600021F0040121600DB9002E4BD01646B5FB31
:10AD7000F3F103FB1157C75D06F8017D2F46BB4277
:10AD80000D46F4D9082B0BD12368DF0708D52369BA
:10AD900061689942DEBF302306F8013C06F1FF36B8
:10ADA000921B2261CDF800A04B4603AA21464046E3
:10ADB000FFF7E6FE01304AD14FF0FF3004B0BDE8A6
:10ADC000F087236843F0200323603348782784F812
:10ADD0004570236831681F0651F8045B02D45F0692
:10ADE00048BFADB23160D90744BF43F020032360B0
:10ADF0001DB11023ACE72748E9E7236823F02003BF
:10AE00002360F6E71646BDE7336825686169181DBB
:10AE100030602E061B6801D5196002E06806FBD57C
:10AE20001980002323611646BCE733681A1D32607F
:10AE30001E68626800213046F5F7A2F908B1801B50
:10AE4000606063682361002384F84330AAE72369C4
:10AE5000324649464046D0470130ADD023689B0773
:10AE600013D4E068039B9842B8BF1846A6E70123B5
:10AE7000324649464046D04701309DD00135E3680F
:10AE800003995B1AAB42F2DCEBE7002504F11906EB
:10AE9000F5E700BF26E9000837E90008002310B5F0
:10AEA0000446C0E90033C0E904338360818143660E
:10AEB000C2818361194608225C3000F001FA0D4B13
:10AEC00063620D4BA3620D4BE3620D4B23630D4B8D
:10AED00024629C4206D003F16802944202D0D0332F
:10AEE0009C4205D104F15800BDE8104000F064BA5E
:10AEF00010BD00BF11B1000833B100086BB10008EC
:10AF00008FB1000848070020024A0349034800F0B7
:10AF100069B800BF2C00002009CD00083C000020CB
:10AF200041680C4B994210B5044601D001F0ECFE8B
:10AF3000A168094B994202D0204601F0E5FEE16884
:10AF4000064B994204D02046BDE8104001F0DCBE1B
:10AF500010BD00BF48070020B007002018080020DF
:10AF600010B50B4B0B4C0C4A1A60204600220421F2
:10AF7000FFF794FF04F1680001220921FFF78EFF1B
:10AF800004F1D0000222BDE810401221FFF786BF75
:10AF9000800800204807002009AF0008014800F0A1
:10AFA0000CBA00BF89080020014800F007BA00BFB2
:10AFB0008908002010B50446FFF7F0FF236A1BB193
:10AFC000BDE81040FFF7F0BF044B2362044B1B6841
:10AFD000002BF5D1FFF7C4FFF2E700BF21AF000857
:10AFE000800800202DE9F8430746884614460026CD
:10AFF000D4E90195B9F1010905D52468002CF7D1F0
:10B000003046BDE8F883AB89012B07D9B5F90E307E
:10B01000013303D029463846C04706436835E9E77F
:10B020000FB407B5064904AB086853F8042B8168D0
:10B03000019301F0CDFC03B05DF804EB04B0704760
:10B0400038000020024B01461868826801F0E6BE15
:10B0500038000020036A70B5846805460E460BB9B7
:10B06000FFF7A8FF636EDB0705D4A389980502D418
:10B07000A06D00F0A2F9A389190702D52369002B5E
:10B0800035D12146284600F0C5F880B34FF0FF3592
:10B09000636EDA0705D4A3899B0502D4A06D00F086
:10B0A0008DF9284670BD002B04DAA2699A4217DC9C
:10B0B0000A2915D023685A1C22601970A36816F853
:10B0C000011F013BA3600029EDD1002B11DA2246BC
:10B0D0000A21284600F05FF80130D7D00A25D7E7CB
:10B0E0002246284600F057F80130E7D1CEE7013E6E
:10B0F000E4E723685A1C22600A221A70EEE7000077
:10B10000024B01461868FFF7A5BF00BF38000020BA
:10B1100010B50C46B1F90E1000F000F90028ABBFD5
:10B12000636DA3891B1823F48053ACBF6365A381AF
:10B1300010BD2DE9F0411F468B89DB0505460C4605
:10B14000164605D5B1F90E100223002200F0D4F8FE
:10B15000A389B4F90E1023F48053A38132463B46F1
:10B160002846BDE8F04100F0EBB810B50C46B1F947
:10B170000E1000F0C1F8431CA38915BF606523F4CD
:10B18000805343F48053A38118BFA38110BDB1F94C
:10B190000E1000F0A1B8F8B50E461446054618B1D9
:10B1A000036A0BB9FFF706FFA369A360A3891A0717
:10B1B00001D5236943B92146284600F02BF818B180
:10B1C0004FF0FF373846F8BD23682269981A636943
:10B1D000F6B28342374605DC2146284601F094FD4D
:10B1E0000028EDD1A368013BA36023685A1C2260AC
:10B1F0001E706269431C9A4204D0A389DB07E1D523
:10B200000A2EDFD12146284601F07EFD0028D9D044
:10B21000D6E7000038B5294B054618680C4618B12A
:10B22000036A0BB9FFF7C6FEB4F90C30190722D434
:10B23000DA0607D409222A6043F04003A3814FF0C5
:10B24000FF3033E0580712D5616B41B104F144037C
:10B25000994202D0284600F00FFF00236363A389C0
:10B2600023F02403A3810023636023692360A3895F
:10B2700043F00803A38123694BB9A38903F4207326
:10B28000B3F5007F03D02146284601F08BFDB4F9C9
:10B290000C3013F001020AD00022A260626952420F
:10B2A000A261226942B913F08000C5D138BD990767
:10B2B00058BF6269A260F4E70020F7E73800002079
:10B2C00002440346934200D1704703F8011BF9E79B
:10B2D000004870477801002038B5064D0023044629
:10B2E00008462B60F7F727F9431C02D12B6803B1FE
:10B2F000236038BD8408002038B5074D0446084651
:10B30000114600222A601A46F7F73CF9431C02D185
:10B310002B6803B1236038BD8408002038B5074D81
:10B3200004460846114600222A601A46F7F7E6F856
:10B33000431C02D12B6803B1236038BD8408002070
:10B3400038B5074D04460846114600222A601A46C1
:10B35000FDF79EF8431C02D12B6803B1236038BD72
:10B3600084080020014B1868704700BF3800002097
:10B3700070B50D4D0D4C641BA4100026A64209D1DA
:10B380000B4D0C4C01F060FE641BA4100026A6427D
:10B3900005D170BD55F8043B98470136EEE755F8E6
:10B3A000043B98470136F2E790EC000890EC000867
:10B3B00090EC000894EC00087047704770470A440E
:10B3C000914200F1FF3300D1704710B511F8014BE5
:10B3D00003F8014F9142F9D110BD2DE9F74F0369F0
:10B3E0000C69A34207467EDB013C01F11408A3006F
:10B3F00000F11405009305EB8403019358F8243001
:10B4000055F8242001339A4208EB8409B2FBF3F685
:10B410002ED34FF0000AC446AE46D3465CF8043B38
:10B4200098B206FB00A0020C1B0C06FB0323DEF8FF
:10B43000002080B292B2121A5A44DEF800004FEA9D
:10B44000134A9BB2C3EB224303EB104392B242EA8E
:10B450000342E1454EF8042B4FEA234BDED2009B1A
:10B46000EB582BB9019B043B9D421A462FD33C61FC
:10B47000384601F07BF9002825DB2946002058F8E2
:10B48000042BD1F800C01FFA82FE1FFA8CF3A3EB45
:10B490000E030344120CC2EB234202EB1C429BB28C
:10B4A00043EA0243C14541F8043B4FEA2240E6D259
:10B4B00055F8242005EB840322B9043B9D421A462B
:10B4C0000BD33C610136304603B0BDE8F08F126803
:10B4D000043B002ACBD1013CC6E71268043B002A9A
:10B4E000EFD1013CEAE70020EEE700000000000099
:10B4F0002DE9F04FC76999B08DED020B55EC104B5B
:10B50000229E099183460E9213937FB9102000F07A
:10B51000FDFD0246CBF81C0020B9A74BEF21A74840
:10B5200001F0E2FCC0E901770760C760DBF81C307E
:10B53000196859B15A684A60012393408B60584694
:10B5400000F0DAFEDBF81C3000221A602B1EB9BFB7
:10B5500023F00043039300233360039F984BBCBF49
:10B5600001223260BB4312D1139A42F20F7313606F
:10B57000C7F31303234300F04D85239BDFF854A248
:10B58000002B00F04F850AF1030300F049BD9DED4B
:10B59000027B002251EC170B00238DED0C7BF5F79D
:10B5A0006BFA804658B1139A01231360239B13B1A1
:10B5B000239A844B1360DFF820A200F033BD9DED89
:10B5C0000C0B16AA17A9584601F080F9C7F30A56C2
:10B5D0008146002E77D00D9BCDF85080C3F3130326
:10B5E000DDE90C0143F07F5343F44013A6F2FF362C
:10B5F00019460022744BF4F71FFE69A3D3E9002318
:10B60000F4F7D2FF68A3D3E90023F4F717FE04464A
:10B6100030460D46F4F75EFF65A3D3E90023F4F747
:10B62000C3FF02460B4620462946F4F707FE0446B0
:10B630000D46F5F769FA0022074600232046294601
:10B64000F5F724FA40B13846F4F744FF22462B467A
:10B65000F5F712FA00B9013F162F51D85B4B03EBF7
:10B66000C703D3E90023DDE90C01F5F70FFA002841
:10B6700048D0013F00231293169B9B1B5A1E44BFC8
:10B68000C3F101080023089254BF4FF0000808934B
:10B69000002F39DB089B0F973B44089300230A9344
:10B6A000099B092B64D8052BC4BF043B0993099B54
:10B6B000A3F10203CCBF00240124032B63D8DFE8ED
:10B6C00003F02A373555DDE916631E4406F232438E
:10B6D000202BC1BFC3F140039F4006F2124324FA5E
:10B6E00003F3D6BFC3F1200347EA030004FA03F0D3
:10B6F000F4F7E0FE0122A1F1F873013E149277E71E
:10B700000123B8E71290B7E77B420A930023A8EB26
:10B7100007080F93C4E700230B930E9B002B35DC27
:10B720000123009307931A460E920BE00123F3E7DF
:10B7300000230B930E9BFB1800930133012B0793FF
:10B74000B8BF0123DBF81C000021042202F114051C
:10B750009D421FD94160584600F08EFD8246002868
:10B760003CD11B4B024640F2AF11D8E60123E0E783
:10B770000124002309930B944FF0FF3300930793A8
:10B7800000221223D0E701230B93F5E70E9B0093D1
:10B790000793D7E701315200D8E700BFAFF300802D
:10B7A00061436F63A787D23FB3C8608B288AC63FC7
:10B7B000FB799F501344D33F55E900086CE900081A
:10B7C0000000F07F25E900080000F83F68EA000863
:10B7D000C4E9000851E9000824E90008DBF81C303E
:10B7E0001860079B0E2B00F2A480002C00F0A180B3
:10B7F000002F33DDAD4B07F00F0203EBC20393EDD7
:10B80000007BF8058DED047B4FEA271416D5A84B75
:10B81000DDE90C01D3E90823F4F7F0FFCDE90201DB
:10B8200004F00F040326A24D54B9DDE90423DDE939
:10B830000201F4F7E3FFCDE9020128E00226F2E776
:10B84000E10708D5DDE90401D5E90023F4F7ACFEF2
:10B85000CDE90401013664100835E5E700F0D28037
:10B860007C42924B924D04F00F0203EBC203D3E9EA
:10B870000023DDE90C01F4F797FECDE90201241164
:10B8800000230226002C40F0B280002BD3D1129B63
:10B89000DDE90245002B00F0B780864B00222046F0
:10B8A0002946F5F7F3F8002800F0AE80079B002B3F
:10B8B00000F0AA80009B002B37DD7B1E04932046FE
:10B8C0007D4B00222946F4F76FFECDE90201009C72
:10B8D00001363046F4F7FEFDDDE90223F4F764FE9D
:10B8E000764B0022F4F7AAFC0546A1F15076002C15
:10B8F00040F08D80DDE90201714B0022F4F79CFCE1
:10B9000002460B46CDE902232A463346F5F7DCF81A
:10B91000002840F08B82DDE902012A4606F100434F
:10B92000F5F7B4F8002840F02881DDE90C34CDE9C2
:10B930000234179B002BC0F25A810E2F00F357815F
:10B940005A4B03EBC70393ED007B0E9B002B8DED51
:10B95000007B03DA079B002B40F30181DDE9024500
:10B960005646DDE9002320462946F4F747FFF5F760
:10B97000CBF88046F4F7AEFDDDE90023F4F714FEC2
:10B9800002460B462046294608F13004F4F754FCE1
:10B9900006F8014B079DA6EB0A04A54202460B469A
:10B9A00040F01781F4F74AFCDDE9002304460D4618
:10B9B000F5F78AF8002840F0F980DDE900232046F9
:10B9C0002946F5F759F818B118F0010F40F0EE804C
:10B9D0004946584600F090FC00233370139B013712
:10B9E0001F60239B002B00F01D831E601AE3E207FB
:10B9F00005D5D5E90023F4F7D7FD013601236410FE
:10BA000008353FE7022642E7079C049761E7274B8A
:10BA10000B9903EBC40353E902235444002953D088
:10BA200028490020F4F7EAFE33462A46F4F704FCDE
:10BA3000CDE910015646DDE90201F5F765F8054646
:10BA4000F4F748FD02460B46DDE90201F4F7F4FB8A
:10BA5000303502460B46CDE9022306F8015BDDE9ED
:10BA60001023F5F713F8002871D1DDE902231149FD
:10BA70000020F4F7E1FBDDE91023F5F707F80028D3
:10BA800040F09580A6423FF450AFDDE910010A4B2B
:10BA90000022F4F789FD084BCDE910010022DDE911
:10BAA0000201F4F781FDCDE90201C4E768EA00086C
:10BAB00040EA00080000F03F0000244000001C4065
:10BAC000000014400000E03F31462846F4F76CFDCA
:10BAD000CDE9100115945646DDE90201F5F714F899
:10BAE0000546F4F7F7FC02460B46DDE90201F4F7E0
:10BAF000A3FB303506F8015B02460B46A642CDE9B2
:10BB000002234FF0000224D1AC4BDDE91001F4F721
:10BB100095FB02460B46DDE90201F4F7D5FF00284C
:10BB200045D1DDE91023A5490020F4F785FB024645
:10BB30000B46DDE90201F4F7A9FF00283FF4F5AE5A
:10BB4000159E731E159316F8013C302BF8D0049FF8
:10BB50003EE79B4BF4F728FDCDE90201BCE70CD191
:10BB6000984B0022DDE90001F4F71EFDDDE9022318
:10BB7000F4F7A0FF002800F05781002425460E9B13
:10BB8000DB430493564600272146584600F0B4FB99
:10BB9000002DDCD02FB1AF4203D03946584600F01B
:10BBA000ABFB2946584600F0A7FBD0E70497334685
:10BBB0001E4613F8012D392A07D19A45F8D1049A67
:10BBC0000132049230228AF800201A7801321A7069
:10BBD000BDE77B4B0022F4F7E7FC0022002304467C
:10BBE0000D46F4F749FF00283FF4BBAEF0E60B9A90
:10BBF000002A00F0DB80099A012A00F3BF80149A22
:10BC0000002A00F0B78003F233430A9C4646089AA4
:10BC100001211A4458469844089200F021FC054638
:10BC20005EB1089B002B08DDB342089AA8BF3346DB
:10BC3000A8EB0308F61AD31A08930A9BF3B10B9BDF
:10BC4000002B00F0B7808CB129462246584600F000
:10BC5000C7FC4A4601460546584600F017FC4946CF
:10BC60000490584600F048FB049B99460A9B1A1B17
:10BC700004D04946584600F0B3FC8146012158469D
:10BC800000F0EEFB0F9B0446002B00F0CF811A461C
:10BC90000146584600F0A4FC099B012B044600F322
:10BCA0009580029B002B40F08780039BC3F3130316
:10BCB000002B40F08980039B23F000431B0D1B05E4
:10BCC0002BB1089B0133089308F1010801230A9363
:10BCD0000F9B002B00F0B081236904EB83031869EC
:10BCE00000F072FBC0F12000089B184410F01F0008
:10BCF00077D0C0F12003042B6BDD089BC0F11C0042
:10BD00000344804406440893B8F1000F05DD49461A
:10BD10004246584600F0BEFC8146089B002B05DDDC
:10BD200021461A46584600F0B5FC0446129B002BEB
:10BD300059D02146484600F019FD002853DA7B1EF1
:10BD40000493494600230A22584600F0F7FA0B9B59
:10BD50008146002B00F07281002329460A225846B2
:10BD600000F0ECFA009B002B054667DC099B022BD8
:10BD700041DC63E0169BC3F1360346E7079B5C1E7C
:10BD80000A9BA342BFBF0A9B0F9A0A94E31AB4BF4F
:10BD9000D2181C1B079BBCBF0F920024002BB5BF01
:10BDA000A8EB0306079B0023464630E70A9C0B9D41
:10BDB000464635E70A9A5CE7002388E70000E03F43
:10BDC0000000244000001440029B80E700230A93F7
:10BDD00082E799D0089A1C331A4498441E4408926A
:10BDE00092E70346F6E7079B0497002B20DC0093BD
:10BDF000099B022B1EDD009B002B7FF4C0AE214669
:10BE00000522584600F09AFA01460446484600F0DA
:10BE1000ADFC00287FF7B3AE5646312306F8013B50
:10BE2000049B01330493AEE6079C04972546F3E791
:10BE3000079B00930B9B002B00F00481002E05DD77
:10BE400029463246584600F025FC05460A9B002B41
:10BE50005AD06968584600F00FFA064628B9844B54
:10BE6000024640F2EF21FFF75ABB2A6902329200E4
:10BE700005F10C010C30FFF7A2FA012231465846B9
:10BE800000F008FC0AF101030793009B53440B9355
:10BE9000029B03F001032F460A930546079B2146A8
:10BEA000013B48460093FFF798FA3946029000F1AB
:10BEB0003008484600F05AFC2A4608902146584669
:10BEC00000F070FCC268064602BB0146484600F01E
:10BED0004DFC0246314658460E9200F00DFA099B81
:10BEE0000E9A079E43EA02010A9B194310D1B8F14A
:10BEF000390F29D0089B002B02DD029B03F131088A
:10BF0000009B83F800803FE62846BBE70122E1E77B
:10BF1000089B002B04DB09990B430A990B4320D1A2
:10BF2000002AEDDD49460122584600F0B3FB2146C8
:10BF3000814600F01BFC002803DCE1D118F0010F62
:10BF4000DED0B8F1390FD8D1009A392313703346B7
:10BF50001E46013B16F8012C392A52D001321A70C4
:10BF600012E6002A07DDB8F1390FEDD0009A08F18A
:10BF70000103137008E6079B079A03F8018C0B9BDB
:10BF8000934228D0494600230A22584600F0D6F9A9
:10BF9000AF4281464FF000034FF00A02394658463F
:10BFA00007D100F0CBF907460546079B01330793FD
:10BFB00074E700F0C3F92946074600230A225846D1
:10BFC00000F0BCF90546F0E7009B002BCCBF1E46F5
:10BFD00001265644002749460122584600F05AFBE4
:10BFE0002146814600F0C2FB0028B0DC02D118F0E7
:10BFF000010FACD133461E4613F8012D302AFAD07A
:10C00000C2E59A45A4D1049B0133049331238AF8F5
:10C010000030B9E5239BDFF85CA01BB10AF10803EF
:10C02000239A1360504619B0BDE8F08F099B012B8D
:10C030007FF737AE0F9B0A93012055E6009B002B3C
:10C040007FF7D6AE564621464846FFF7C6F900F1BF
:10C05000300806F8018B009BA6EB0A029342B3DD81
:10C06000494600230A22584600F068F98146EAE76B
:10C07000C4E9000848E9000838B50546002941D060
:10C0800051F8043C0C1F002BB8BFE41800F0E8F88E
:10C090001D4A136833B9636014602846BDE8384010
:10C0A00000F0E4B8A34208D9206821188B4201BFF0
:10C0B00019685B6809182160EDE71A465B680BB1E7
:10C0C000A342FAD911685018A0420BD1206801444C
:10C0D000501883421160E0D118685B6853600844CF
:10C0E0001060DAE702D90C232B60D6E7206821180C
:10C0F0008B4204BF19685B68636004BF0918216044
:10C100005460CAE738BD00BF90080020024B0146CA
:10C11000186800F025B800BF3800002070B50F4E39
:10C120000C463168054611B900F0CEFE306021465C
:10C13000284600F0C9FE431C03D14FF0FF342046CF
:10C1400070BDC41C24F00304A042F8D0211A284674
:10C1500000F0BAFE0130F2D1EFE700BF8C080020FA
:10C160002DE9F843CD1C25F0030508350C2D38BF0B
:10C170000C25002D064601DBA94204D90C233360AF
:10C180000020BDE8F883DFF8D48000F069F8D8F823
:10C1900000301C4644BB29463046FFF7BFFF431C16
:10C1A000044658D1D8F800402746002F43D1002C30
:10C1B0004BD023683946304604EB030900F084FE77
:10C1C000814542D121686D1A29463046FFF7A6FF06
:10C1D00001303AD023682B442360D8F800305A68E5
:10C1E00062BBC8F800700FE02268521B20D40B2AF3
:10C1F00017D96119A342256018BF5960636808BF49
:10C20000C8F8001062514B60304600F02FF804F17E
:10C210000B00231D20F00700C21A1CBF1B1AA350DD
:10C22000AFE76268A3420CBFC8F800205A60EBE792
:10C2300023466468AEE73C467F68B6E71A465B680B
:10C24000A342FBD100235360DEE70C23336030466A
:10C2500000F00CF894E70560D6E700BF90080020D6
:10C260000148FFF7AAB800BF880800200148FFF77F
:10C27000A5B800BF8808002070B5C66904460D4601
:10C2800076B91020FFF742FF0246E06120B9184B53
:10C2900018486B2100F028FEC0E901660660C66000
:10C2A000E669F36883B1E369DB6853F82500B8B940
:10C2B000012101FA05F6721D9200204600F032FEBF
:10C2C00060B1C0E901560EE021220421204600F0B1
:10C2D00029FEE369F060DB68002BE4D1002070BD2B
:10C2E000026843F825200023C0E90333F7E700BFC5
:10C2F00055E90008D5E9000870B5C66905460C4641
:10C3000076B91020FFF702FF0246E86120B9094B19
:10C3100009488F2100F0E8FDC0E901660660C660AB
:10C320003CB1EB696268DB6853F82210216043F886
:10C33000224070BD55E90008D5E900082DE9F0411B
:10C340000D6907460C461E4601F1140C0020DCF86E
:10C35000003099B202FB01611E0C0B0C02FB06338C
:10C3600089B2013001EB034185424CF8041B4FEACE
:10C370001346ECDC0EB3A368AB4219DC61683846A7
:10C380000131FFF779FF804628B902460C4B0D4872
:10C39000BA2100F0A9FD2269023204F10C019200D9
:10C3A0000C30FFF70CF821463846FFF7A5FF44464E
:10C3B00004EB850301355E6125612046BDE8F0810F
:10C3C000C4E90008D5E90008B0F5803F034636BF50
:10C3D000030400201020B3F1807F3CBF1B02083013
:10C3E000B3F1805F3CBF1B010430B3F1804F3CBF11
:10C3F0009B000230002B05DB13F0804F00F10100A1
:10C4000008BF202070470368024613F007000BD0D6
:10C41000D90721D4980749BF5B089B080120136006
:10C420005CBF13600220704799B209B91B0C102041
:10C43000D9B209B908301B0A190704BF1B09043017
:10C44000990704BF9B080230D90703D45B0800F1A9
:10C45000010003D013607047002070472020704710
:10C4600010B50C460121FFF707FF024628B9054B1E
:10C47000054840F2451100F037FD01234461036196
:10C4800010BD00BFC4E90008D5E900082DE9F04F50
:10C4900014460A6923699A42A8BF23460F46A4BFDF
:10C4A0000C461F46D4F810A0D7F81090A368616816
:10C4B0000AEB0906B34285B0B8BF0131FFF7DCFED5
:10C4C00030B90246444B45484FF4B17100F00CFDC1
:10C4D00000F1140505EB86082B460022434521D3C5
:10C4E00007F1140104F1140202EB8A0201EB890343
:10C4F0000293131B153B23F00303043304F11507C8
:10C50000BA4238BF04230193029B03918B420CD89B
:10C51000002E03DD58F8043D002B5BD0066105B00A
:10C52000BDE8F08F43F8042BD8E7B1F800A0BAF1CA
:10C53000000F24D004F1140EA9464FF0000C5EF851
:10C54000047BD9F800301FFA87FB9BB20AFB0B3340
:10C550004FEA174BD9F8007063444FEA174C0AFBB7
:10C560000BC707EB13479BB243EA0743724549F8F1
:10C57000043B4FEA174CE2D8019B45F803C0039BEC
:10C58000B3F802900431B9F1000F21D02B6804F107
:10C59000140CAE464FF0000ABCF800B0BEF80270B2
:10C5A00009FB0B7757449BB243EA07434EF8043B21
:10C5B0005CF8043B4FEA134ABEF8003009FB0A332B
:10C5C00003EB174362454FEA134AE5D8019FEB514D
:10C5D000043599E7013E9BE7C4E90008D5E9000866
:10C5E0002DE9F843154612F0030207460E4607D020
:10C5F000254C013A002354F82220FFF79FFE0646FF
:10C60000AD103DD0FC697CB91020FFF77FFD0246DC
:10C61000F86128B91D4B1E4840F2B31100F064FCCC
:10C62000C0E901440460C460D7F81C80D8F8084011
:10C630004CB940F271213846FFF712FF0023C8F8C9
:10C640000800044603604FF00009EB070AD53146A5
:10C6500022463846FFF71AFF314680463846FFF734
:10C660004BFE46466D100BD0206838B92246214655
:10C670003846FFF70BFF2060C0F800900446E4E75F
:10C680003046BDE8F88300BF30EA000855E90008ED
:10C69000D5E900082DE9F0470C464968236903EB0A
:10C6A0006218A368074691464FEA621A08F101062C
:10C6B000B3420BDB3846FFF7DFFD054648B90246BB
:10C6C000284B29484FF4EF7100F00EFC01315B005C
:10C6D000EEE7002300F1140100F110021846534563
:10C6E00033DB20692AEAEA7A04F1140319F01F09FE
:10C6F00001EB8A0103EB800C2BD0C9F1200E8A4696
:10C700000022186800FA09F010434AF8040B53F8A5
:10C71000042B9C4522FA0EF2F3D8ACEB0403153B34
:10C7200023F00303043304F11500844538BF0423C8
:10C73000CA500AB108F10206013E38462E61214670
:10C74000FFF7DAFD2846BDE8F08742F8040F013311
:10C75000C5E7043953F8042B41F8042F9C45F9D858
:10C76000EAE700BFC4E90008D5E900080A69034602
:10C770000069801A30B50ED11433143103EB8204F2
:10C7800001EB820154F8045D51F8042D954203D069
:10C7900005D24FF0FF3030BDA342F3D3FBE70120B9
:10C7A000F9E700002DE9F74F89460646114648464D
:10C7B0001446FFF7DBFF051E12D129463046FFF76E
:10C7C0005BFD024628B93F4B40F237213E4800F05E
:10C7D0008BFB0123C0E90435104603B0BDE8F08FA0
:10C7E000BCBF4B46A1463046D9F80410BABF1C4620
:10C7F00001250025FFF740FD024618B9314B40F2F4
:10C800004521E3E7D9F810702669C56009F11003E6
:10C8100009F1140504F1140E00F1140B05EB87085F
:10C820000EEB86060193D9464FF0000C019B5EF893
:10C83000040B53F804AF01931FFA8AF3194683B22D
:10C84000CB1A000C6344C0EB1A4000EB23409BB2B0
:10C8500043EA0043764549F8043B4FEA204CE5D8CB
:10C86000331B153B23F0030315340433A64238BFB2
:10C8700004231D445B441E462C4644450ED308F158
:10C880000301491B21F00301033DA84538BF0021E6
:10C890000B4453F8041D91B117619DE754F8041B34
:10C8A000E646080C1CFA81FC714400EB2C4089B26E
:10C8B00041EA004146F8041B4FEA204CDDE7013F06
:10C8C000E7E700BFC4E90008D5E900082DE9F74310
:10C8D0000F46012159EC108B1646FFF7CDFC04469C
:10C8E00030B90246234B244840F20F3100F0FCFAE5
:10C8F000C9F30A55C9F313030DB143F4801301932F
:10C90000B8F1000323D068460093FFF77CFDDDE912
:10C910000012D0B1C0F1200302FA03F30B43C2406E
:10C9200063610192019BA361002B0CBF01220222D3
:10C930002261A5B1A5F2334505443D60C0F1350043
:10C940003060204603B0BDE8F0836161EAE701A8EA
:10C95000FFF759FD019B636120300122E8E704EBFA
:10C960008203A0F2324038601869FFF72DFDC0EB5A
:10C970004210E5E7C4E90008D5E900089368013BE7
:10C98000002B10B4936008DA9469A34201DB0A29F2
:10C9900003D15DF8044BFEF7FEBB1368581C106012
:10C9A000197008465DF8044B7047F8B506460F4607
:10C9B0001446D518AC4201D1002007E014F8011B41
:10C9C0003A463046FFF7DAFF431CF3D1F8BD0000CA
:10C9D0002DE9F04F0D469DB014469846064618B115
:10C9E000036A0BB9FEF7E6FA6B6ED90705D4AB897B
:10C9F0009A0502D4A86DFEF7E0FCAB891B0701D5B0
:10CA00002B699BB929463046FEF704FC70B16B6E6A
:10CA1000DC0704D54FF0FF301DB0BDE8F08FAB89C7
:10CA20009805F7D4A86DFEF7C9FCF3E70023099336
:10CA300020238DF82930CDF80C803023DFF8AC812D
:10CA40008DF82A304FF0010923469A4613F8012B3E
:10CA50000AB1252AF9D1BAEB040B0BD05B4622466A
:10CA600029463046FFF7A1FF013000F0A780099A60
:10CA70005A4409929AF80030002B00F09F8000235E
:10CA80004FF0FF32CDE905230AF1010A0493079321
:10CA90008DF853301A935446052214F8011B53485D
:10CAA000F3F76EFB049AD8B9D10644BF20238DF862
:10CAB0005330130744BF2B238DF853309AF80030BE
:10CAC0002A2B15D0079A544600204FF00A0C214615
:10CAD00011F8013B303B092B4BD9B0B1079214E060
:10CAE000A0EB080309FA03F313430493A246D2E729
:10CAF000039B191D1B680391002BBBBF5B4242F0D7
:10CB0000020207930793B8BF049223782E2B0AD111
:10CB100063782A2B32D1039B1A1D1B68039243EAC8
:10CB2000E37302340593DFF8D4A021780322504642
:10CB3000F3F726FB38B1049BA0EB0A0040228240A9
:10CB400013430134049314F8011B29488DF828106D
:10CB50000622F3F715FB00283FD0264B1BBB039B97
:10CB6000073323F0070308330393099B3B440993DE
:10CB70006AE70CFB02320C460120A8E700230134CF
:10CB8000059319464FF00A0C204610F8012B303A55
:10CB9000092A03D9002BC6D00591C4E70CFB01215B
:10CBA00004460123F0E703AB00932A46124B04A985
:10CBB0003046FDF7BBFD0746781CD6D16B6ED90712
:10CBC00005D4AB899A0502D4A86DFEF7F7FBAB89B3
:10CBD0005B063FF51FAF09981EE703AB00932A469B
:10CBE000054B04A93046FEF739F8E4E730EB0008BE
:10CBF0003AEB00082DA70008ABC9000836EB000887
:10CC0000B1F90C202DE9F041160705460C4654D425
:10CC10004B68002B02DC0B6C002B48DDE66A002E13
:10CC200045D0002312F480522F68216A2B6030D047
:10CC3000626DA389590705D56368D21A636B0BB17E
:10CC4000236CD21A0023E66A216A2846B047431CA7
:10CC5000A38906D129681D292BD82A4A0A41D6075B
:10CC600027D400226260D9042269226004D5421CC4
:10CC700001D12B6803B96065616B2F60B9B104F114
:10CC80004403994202D02846FFF7F6F90023636374
:10CC90000DE001232846B0470246501CC9D12B683D
:10CCA000002BC6D01D2B01D0162B1ED12F600020CB
:10CCB00022E043F040031BB21BE00F69002FF6D0C7
:10CCC00093070E6808BF4B690F6018BF0023A6EBDF
:10CCD00007088B60B8F1000FE9DD216AA66A4346B8
:10CCE0003A462846B047002808DCB4F90C3043F037
:10CCF0004003A3814FF0FF30BDE8F0810744A8EB6B
:10CD00000008E7E7FEFFBFDF38B50B6905460C46B4
:10CD100013B90025284638BD18B1036A0BB9FEF7D0
:10CD200049F9B4F90C30002BF3D0626ED00704D46B
:10CD3000990502D4A06DFEF740FB28462146FFF777
:10CD40005FFF636EDA070546E4D4A3899B05E1D44F
:10CD5000A06DFEF733FBDDE770B50C46B1F90E10A0
:10CD6000002996B015461E460DDAA38913F0800FF0
:10CD70004FF0000114BF40234FF480630020316066
:10CD80002B6016B070BD6A4600F07CF80028ECDB22
:10CD9000019901F47041A1F50053594259414FF4F2
:10CDA0008063EBE78B89F7B59D0706460C4607D5F0
:10CDB00004F14703236023610123636103B0F0BDE5
:10CDC00001AB6A46FFF7C8FF009F0546394630466B
:10CDD000FFF7C6F948B9B4F90C309A05EED423F040
:10CDE000030343F00203A381E2E7A389206043F039
:10CDF0008003A381019BC4E904075BB1B4F90E1061
:10CE0000304600F051F828B1A38923F0030343F022
:10CE10000103A381A3891D43A581CFE770B50D460A
:10CE20001446064618B1036A0BB9FEF7C3F8636EE1
:10CE3000D80705D4A389990502D4A06DFEF7BDFAE1
:10CE4000A368013B002BA36005DAA269934212DBC1
:10CE5000EBB20A2B0FD023685A1C22601D70EDB272
:10CE6000636EDA0705D4A3899B0502D4A06DFEF793
:10CE7000A5FA284670BD294622463046FEF78BF9B2
:10CE80000546EDE738B5074D002304460846114630
:10CE90002B60F5F75CFB431C02D12B6803B12360C8
:10CEA00038BD00BF8408002038B5064D0023044675
:10CEB00008462B60F5F75BFB431C02D12B6803B1DE
:10CEC000236038BD8408002038B5064D0023044691
:10CED00008462B60F5F764FB431C02D12B6803B1B5
:10CEE000236038BD840800201FB514461A46094B3C
:10CEF0001B680546D86854B9074B1C46CDE9013478
:10CF000000912B46054900F041F800F051F8044B20
:10CF1000F4E700BF3800002086EB000858EB00085B
:10CF20004BEB000870B5A1FB02543CB92946FFF752
:10CF300017F9064628B90026304670BD0C2202605B
:10CF4000F9E72A462146FEF7BBF9F5E782B001B9B9
:10CF500001A942B14BB113780B601278101E18BFB3
:10CF6000012002B070471046FBE76FF00100F8E7C0
:10CF70000346084641B1FF2A04D98A221A604FF0BD
:10CF8000FF3070470A700120704700000EB403B5EF
:10CF9000014603AB054853F8042B00680193FFF7E3
:10CFA00017FD02B05DF804EB03B0704738000020B5
:10CFB00008B5062000F02CF80120F5F794FA1F2997
:10CFC00038B505460C4604D9162303604FF0FF30F0
:10CFD00038BDC26B12B152F821304BB9284600F06F
:10CFE00031F8224601462846BDE8384000F018B81E
:10CFF000012B0AD0591C03D1162303600120E7E757
:10D00000002142F82410204698470020E0E7000065
:10D01000024B01461868FFF7D2BF00BF380000205E
:10D0200038B5074D00230446084611462B60F5F736
:10D030004AFA431C02D12B6803B1236038BD00BFFC
:10D0400084080020F5F737BAF8B500BFF8BC08BC73
:10D050009E467047F8B500BFF8BC08BC9E467047B6
:10D0600000000000000000000000000024E70008AD
:10D07000E4010320E80103202604040057697265D7
:10D080006C657373204669726D7761726520766591
:10D090007273696F6E2025642E25642E25640A0044
:10D0A000576972656C657373204669726D7761723A
:10D0B00065206275696C642025640A00465553201A
:10D0C00076657273696F6E2025642E25642E256443
:10D0D0000A0000003E3E3D3D20534843495F535502
:10D0E000425F4556545F434F44455F524541445962
:10D0F0000A0D00003E3E3D3D20534843495F5355D5
:10D10000425F4556545F4552524F525F4E4F54490D
:10D1100046200A0D000000003E3E3D3D205348439E
:10D12000495F5355425F4556545F424C455F4E56EA
:10D130004D5F52414D5F555044415445202D2D20A7
:10D14000424C45204E564D2052414D2048415320DF
:10D150004245454E205550444154454420425920B3
:10D16000435055322000000020202020202D205345
:10D170007461727441646472657373203D20256C20
:10D1800078202C2053697A65203D20256C640A00A4
:10D190003D3D3E3E20534843495F5355425F45560F
:10D1A000545F4E564D5F53544152545F5752495449
:10D1B00045203A204E756D6265724F66576F7264F6
:10D1C00073203D20256C640A000000003E3E3D3D7A
:10D1D00020534843495F5355425F4556545F4E566E
:10D1E0004D5F454E445F57524954450A0D000000BB
:10D1F0003D3D3E3E534843495F5355425F4556547B
:10D200005F4E564D5F53544152545F455241534512
:10D21000203A204E756D6265724F66536563746F78
:10D220007273203D20256C640A0000003E3E3D3DA7
:10D2300020534843495F5355425F4556545F4E560D
:10D240004D5F454E445F45524153450A0D00000075
:10D250003E3E3D3D20534843495F5355425F45564E
:10D26000545F4552524F525F4E4F544946205749E2
:10D27000544820524541534F4E202578200A0D0036
:10D280003E3E3D3D20534843495F5355425F45561E
:10D29000545F4552524F525F4E4F544946205749B2
:10D2A000544820524541534F4E202D204552525F45
:10D2B000424C455F494E4954200000003E3E3D3DF2
:10D2C00020534843495F5355425F4556545F45528A
:10D2D000524F525F4E4F54494620574954482052AE
:10D2E0004541534F4E202D20424C45204552524F30
:10D2F000522000003E3E3D3D20574952454C45538B
:10D30000535F46575F52554E4E494E47200000002E
:10D310003E3E3D3D204442474D43555F4765745274
:10D3200065766973696F6E49443D20256C78200AE3
:10D330000D0000003E3E3D3D204442474D43555FB9
:10D3400047657444657669636549443D20256C787A
:10D35000200A0D003E3E3D3D20534843495F535552
:10D36000425F4556545F434F44455F5245414459DF
:10D37000202D204655535F46575F52554E4E494E1D
:10D3800047200A0D000000003E3E3D3D205348432B
:10D39000495F5355425F4556545F434F44455F5282
:10D3A00045414459202D20554E455850454354453C
:10D3B000442043415345200A0D0000007265636517
:10D3C000697665642025730A000000005357310018
:10D3D000535731204F4B00005357320053573220E0
:10D3E0004F4B000053573300535733204F4B00002F
:10D3F0004E4F54205245434F474E495A45442043CF
:10D400004F4D4D414E44203A2025730A0000000044
:10D4100020204661696C2020203A20534843495F10
:10D4200043325F424C455F496E697420636F6D6D96
:10D43000616E642C20726573756C743A20307825A7
:10D440003032780A0D000000202053756363657345
:10D45000733A20534843495F43325F424C455F492A
:10D460006E697420636F6D6D616E640A0D0000005B
:10D4700000000000000000000000000000000000AC
:10D4800000000000440008004005020112299C0031
:10D49000F4010000FFFFFFFF480101000020D80653
:10D4A00000037206000000000D0000003E3E3D3DFE
:10D4B000204843495F444953434F4E4E45435449E6
:10D4C0004F4E5F434F4D504C4554455F4556545F5A
:10D4D000434F44450000000020202020202D204301
:10D4E0006F6E6E656374696F6E2048616E646C6503
:10D4F0003A202020307825780A20202020202D2056
:10D50000526561736F6E3A20202020307825780AAA
:10D510000D0000003E3E3D3D204843495F4C455FC5
:10D52000434F4E4E454354494F4E5F55504441542E
:10D53000455F434F4D504C4554455F53554245560A
:10D54000545F434F4445000020202020202D2043DD
:10D550006F6E6E656374696F6E20496E7465727666
:10D56000616C3A202020252E3266206D730A20201F
:10D570002020202D20436F6E6E656374696F6E20CE
:10D580006C6174656E63793A2020202025640A203E
:10D59000202020202D205375706572766973696F85
:10D5A0006E2054696D656F75743A202564206D7323
:10D5B0000A0D00003D3D3E3E204843495F4C455F1B
:10D5C0005048595F5550444154455F434F4D504C6E
:10D5D0004554455F5355424556545F434F4445209B
:10D5E0002D200000737461747573206F6B20000030
:10D5F000737461747573206E6F6B20003D3D3E3E09
:10D60000206863695F6C655F726561645F706879EB
:10D61000203A206661696C0A0D0000003D3D3E3EE7
:10D62000206863695F6C655F726561645F706879CB
:10D63000202D205375636365737320003D3D3E3E8E
:10D640002050485920506172616D202054583D206F
:10D6500025642C2052583D202564200A0D0000002E
:10D660003E3E3D3D204843495F4C455F434F4E4E53
:10D67000454354494F4E5F434F4D504C4554455FD1
:10D680005355424556545F434F4445202D20436F28
:10D690006E6E656374696F6E2068616E646C653A66
:10D6A00020307825780A000020202020202D2043DB
:10D6B0006F6E6E656374696F6E2065737461626C02
:10D6C000697368656420776974682043656E747255
:10D6D000616C3A20403A253032783A253032783A37
:10D6E000253032783A253032783A253032783A256A
:10D6F0003032780A000000003E3E3D3D2041434963
:10D700005F4741505F4C494D495445445F4449533C
:10D71000434F56455241424C455F56534556545F20
:10D72000434F4445200000003E3E3D3D20414349DB
:10D730005F4741505F504153535F4B45595F5245DE
:10D74000515F56534556545F434F444520000000F7
:10D750003D3D3E3E206163695F6761705F7061734C
:10D76000735F6B65795F72657370203A20466169FB
:10D770006C2C20726561736F6E3A20307825780AC0
:10D78000000000003D3D3E3E206163695F676170BF
:10D790005F706173735F6B65795F72657370203A58
:10D7A0002053756363657373200000003E3E3D3D6A
:10D7B000204143495F4741505F415554484F5249CA
:10D7C0005A4154494F4E5F5245515F565345565446
:10D7D0005F434F44450000003D3D3E3E20414349EC
:10D7E0005F4741505F5045524950484552414C5F58
:10D7F00053454355524954595F494E495449415440
:10D8000045445F56534556545F434F4445200000FE
:10D810003D3D3E3E204143495F4741505F424F4EB0
:10D82000445F4C4F53545F56534556545F434F44E7
:10D83000452000003D3D3E3E206163695F676170A9
:10D840005F616C6C6F775F7265626F6E64203A2007
:10D850004661696C2C20726561736F6E3A20307876
:10D8600025780A003D3D3E3E206163695F67617037
:10D870005F616C6C6F775F7265626F6E64203A20D7
:10D880005375636365737320000000003E3E3D3DA9
:10D89000204143495F4741505F414444525F4E4FEE
:10D8A000545F5245534F4C5645445F56534556546A
:10D8B0005F434F44452000003E3E3D3D20414349EB
:10D8C0005F4741505F4B455950524553535F4E4F50
:10D8D00054494649434154494F4E5F565345565467
:10D8E0005F434F44450000003E3E3D3D20414349DB
:10D8F0005F4741505F4E554D455249435F434F4D41
:10D9000050415249534F4E5F56414C55455F565317
:10D910004556545F434F444500000000202020201E
:10D92000202D206E756D657269635F76616C75651B
:10D93000203D20256C640A0020202020202D204836
:10D9400065785F76616C7565203D20256C780A00EE
:10D950003D3D3E3E206163695F6761705F6E756D3E
:10D96000657269635F636F6D70617269736F6E5F1B
:10D9700076616C75655F636F6E6669726D5F796500
:10D98000736E6F2D2D3E594553203A204661696CC8
:10D990002C20726561736F6E3A20307825780A000A
:10D9A0003D3D3E3E206163695F6761705F6E756DEE
:10D9B000657269635F636F6D70617269736F6E5FCB
:10D9C00076616C75655F636F6E6669726D5F7965B0
:10D9D000736E6F2D2D3E594553203A205375636366
:10D9E00065737320000000003E3E3D3D20414349E9
:10D9F0005F4741505F50414952494E475F434F4D49
:10DA0000504C4554455F56534556545F434F44452B
:10DA10000000000020202020202D20506169726924
:10DA20006E672053756363657373000020202020A8
:10DA3000202D2050616972696E67204B4F200A20AB
:10DA4000202020202D205374617475733A20307883
:10DA500025780A20202020202D20526561736F6ECA
:10DA60003A20307825780A003E3E3D3D204143492A
:10DA70005F4741505F50524F435F434F4D504C45BD
:10DA800054455F56534556545F434F4445200D005F
:10DA90003E3E3D3D204143495F474154545F494E1E
:10DAA0004449434154494F4E5F56534556545F4392
:10DAB0004F4445200D0000003D3D3E3E206163691E
:10DAC0005F6761705F636C6561725F7365637572D8
:10DAD0006974795F6462202D204661696C2C207224
:10DAE0006573756C743A202564200A003D3D3E3E06
:10DAF000206163695F6761705F636C6561725F730A
:10DB0000656375726974795F6462202D2053756353
:10DB100063657373000000003D3D3E3E2061636914
:10DB20005F6761705F736C6176655F736563757263
:10DB30006974795F7265712829204661696C202CAF
:10DB400020726573756C743A202564200A00000009
:10DB50003D3D3D3E3E206163695F6761705F736C70
:10DB60006176655F73656375726974795F726571FB
:10DB7000202D205375636365737300003D3D3E3E69
:10DB8000206863695F6C655F726561645F70687966
:10DB9000202D204661696C200A0D00003D3D3E3E6F
:10DBA000206863695F6C655F726561645F70687946
:10DBB000202D205375636365737300003D3D3E3E29
:10DBC0002050485920506172616D202054583D20EA
:10DBD00025642C2052583D202564200A00000000B6
:10DBE0003D3D3E3E206863695F6C655F7365745FB1
:10DBF0007068792050485920506172616D2020541E
:10DC0000583D2025642C2052583D202564202D208D
:10DC1000000000004661696C0A0D000053756363E3
:10DC20006573730A0D0000003D3D3E3E2053746154
:10DC3000727420426C655F4863695F4761705F473B
:10DC40006174745F496E69742066756E6374696F80
:10DC50006E00000020204661696C2020203A206878
:10DC600063695F726573657420636F6D6D616E6467
:10DC70002C20726573756C743A2030782578200AF0
:10DC8000000000002020537563636573733A2068B9
:10DC900063695F726573657420636F6D6D616E6437
:10DCA0000000000020204661696C2020203A20619D
:10DCB00063695F68616C5F77726974655F636F6EDB
:10DCC0006669675F6461746120636F6D6D616E6426
:10DCD000202D20434F4E4649475F444154415F50F9
:10DCE0005542414444525F4F46465345542C20729E
:10DCF0006573756C743A2030782578200A0000002E
:10DD00002020537563636573733A206163695F68AC
:10DD1000616C5F77726974655F636F6E6669675F78
:10DD20006461746120636F6D6D616E64202D2043AA
:10DD30004F4E4649475F444154415F50554241442C
:10DD400044525F4F46465345540000002020507512
:10DD5000626C696320426C7565746F6F74682041F2
:10DD60006464726573733A20253032783A25303214
:10DD7000783A253032783A253032783A2530327880
:10DD80003A253032780A000020204661696C202054
:10DD9000203A206163695F68616C5F7772697465BE
:10DDA0005F636F6E6669675F6461746120636F6D46
:10DDB0006D616E64202D20434F4E4649475F4441BC
:10DDC00054415F49525F4F46465345542C2072657B
:10DDD00073756C743A2030782578200A00000000B2
:10DDE0002020537563636573733A206163695F68CC
:10DDF000616C5F77726974655F636F6E6669675F98
:10DE00006461746120636F6D6D616E64202D2043C9
:10DE10004F4E4649475F444154415F49525F4F4628
:10DE2000465345540000000020204661696C2020C4
:10DE3000203A206163695F68616C5F77726974651D
:10DE40005F636F6E6669675F6461746120636F6DA5
:10DE50006D616E64202D20434F4E4649475F44411B
:10DE600054415F45525F4F46465345542C207265DE
:10DE700073756C743A2030782578200A0000000011
:10DE80002020537563636573733A206163695F682B
:10DE9000616C5F77726974655F636F6E6669675FF7
:10DEA0006461746120636F6D6D616E64202D204329
:10DEB0004F4E4649475F444154415F45525F4F468C
:10DEC000465345540000000020204661696C202024
:10DED000203A206163695F68616C5F7365745F7489
:10DEE000785F706F7765725F6C6576656C20636FC5
:10DEF0006D6D616E642C20726573756C743A2030A0
:10DF0000782578200A00000020205375636365732C
:10DF1000733A206163695F68616C5F7365745F74F5
:10DF2000785F706F7765725F6C6576656C20636F84
:10DF30006D6D616E6400000020204661696C2020D8
:10DF4000203A206163695F676174745F696E697408
:10DF500020636F6D6D616E642C20726573756C74D7
:10DF60003A2030782578200A0000000020205375E0
:10DF700063636573733A206163695F676174745F9B
:10DF8000696E697420636F6D6D616E6400000000DE
:10DF90004372656174696E696E6553656E736F7205
:10DFA0000000000020204661696C2020203A20619A
:10DFB00063695F6761705F696E697420636F6D6D1F
:10DFC000616E642C20726573756C743A203078250C
:10DFD00078200A002020537563636573733A2061CB
:10DFE00063695F6761705F696E697420636F6D6DEF
:10DFF000616E640020204661696C2020203A206117
:10E0000063695F676174745F7570646174655F6391
:10E010006861725F76616C7565202D204465766954
:10E020006365204E616D65002020537563636573E1
:10E03000733A206163695F676174745F75706461CE
:10E0400074655F636861725F76616C7565202D2011
:10E05000446576696365204E616D650020204661E8
:10E06000696C2020203A206163695F676174745F86
:10E070007570646174655F636861725F76616C7509
:10E0800065202D20417070656172616E63650000CE
:10E090002020537563636573733A206163695F671A
:10E0A0006174745F7570646174655F636861725FE9
:10E0B00076616C7565202D20417070656172616EAE
:10E0C0006365000020204661696C2020203A2068AA
:10E0D00063695F6C655F7365745F64656661756CC9
:10E0E000745F70687920636F6D6D616E642C20724F
:10E0F0006573756C743A2030782578200A0000002A
:10E100002020537563636573733A206863695F6C9D
:10E11000655F7365745F64656661756C745F706874
:10E120007920636F6D6D616E640000002020466190
:10E13000696C2020203A206163695F6761705F73BA
:10E1400065745F696F5F6361706162696C6974793E
:10E1500020636F6D6D616E642C20726573756C74D5
:10E160003A2030782578200A0000000020205375DE
:10E1700063636573733A206163695F6761705F739E
:10E1800065745F696F5F6361706162696C697479FE
:10E1900020636F6D6D616E64000000002020466199
:10E1A000696C2020203A206163695F6761705F734A
:10E1B00065745F61757468656E7469636174696FB5
:10E1C0006E5F726571756972656D656E7420636FDF
:10E1D0006D6D616E642C20726573756C743A2030BD
:10E1E000782578200A00000020205375636365734A
:10E1F000733A206163695F6761705F7365745F6123
:10E20000757468656E7469636174696F6E5F726559
:10E2100071756972656D656E7420636F6D6D616E89
:10E220006400000020204661696C2020203A2061B3
:10E2300063695F6761705F636F6E6669677572655A
:10E240005F77686974656C69737420636F6D6D6165
:10E250006E642C20726573756C743A203078257862
:10E26000200A00002020537563636573733A2061B0
:10E2700063695F6761705F636F6E6669677572651A
:10E280005F77686974656C69737420636F6D6D6125
:10E290006E6400003D3D3E3E20456E6420426C654C
:10E2A0005F4863695F4761705F476174745F496E7F
:10E2B00069742066756E6374696F6E0A0D000000E4
:10E2C0003D3D3E3E206163695F6761705F736574C9
:10E2D0005F6E6F6E5F646973636F76657261626CA7
:10E2E00065202D2053746F702041647665727469C7
:10E2F00073696E67204661696C6564202C207265C5
:10E3000073756C743A202564200A00003D3D3E3E42
:10E31000206163695F6761705F7365745F6E6F6EC4
:10E320005F646973636F76657261626C65202D202E
:10E330005375636365737366756C6C792053746F82
:10E3400070706564204164766572746973696E6784
:10E35000200000003D3D3E3E206163695F676170C3
:10E360005F7365745F646973636F76657261626C15
:10E3700065202D206661696C2C20726573756C7444
:10E380003A2030782578200A000000003D3D3E3ECE
:10E39000206163695F6761705F7365745F6469734F
:10E3A000636F76657261626C65202D2053756363BF
:10E3B000657373003D3D3E3E205374617274204688
:10E3C000617374204164766572746973696E672045
:10E3D0004661696C6564202C20726573756C743AB3
:10E3E000202564200A0D00003D3D3E3E205374610F
:10E3F0007274204C6F7720506F776572204164767D
:10E400006572746973696E67204661696C65642022
:10E410002C20726573756C743A202564200A0D00F7
:10E420003D3D3E3E20537563636573733A205374DC
:10E4300061727420466173742041647665727469F8
:10E4400073696E67200A0D003D3D3E3E20537563A3
:10E45000636573733A205374617274204C6F772034
:10E46000506F776572204164766572746973696E66
:10E4700067200A0D0000000053544D0012000000F8
:10E4800024000000360000004000000006000000EC
:10E490000C0000001000000000000000010000005F
:10E4A00002000000030000004465766963652049AE
:10E4B0006E666F726D6174696F6E205365727669F6
:10E4C0006365202844495329206973206164646589
:10E4D00064205375636365737366756C6C7920256E
:10E4E0003034580A000000004641494C454420742D
:10E4F0006F206164642044657669636520496E66B7
:10E500006F726D6174696F6E2053657276696365B1
:10E510002028444953292C204572726F723A2025D5
:10E520003032582021210A004D616E756661637496
:10E5300075726572204E616D65204368617261631A
:10E5400074657269737469632041646465642053FF
:10E5500075636365737366756C6C79202025303440
:10E5600058200A004641494C454420746F2061649C
:10E5700064204D616E756661637475726572204EBC
:10E58000616D65204368617261637465726973745B
:10E5900069632C204572726F723A20253032582000
:10E5A00021210A004143495F474154545F4154547B
:10E5B0005249425554455F4D4F4449464945445F91
:10E5C00056534556545F434F4445204852535F4E7F
:10E5D0004F54494649434154494F4E5F454E41428D
:10E5E0004C4544004143495F474154545F415454B2
:10E5F0005249425554455F4D4F4449464945445F51
:10E6000056534556545F434F4445204852535F4E3E
:10E610004F54494649434154494F4E5F4449534141
:10E62000424C45440000000048656172742052610C
:10E6300074652053657276696365202848525329B2
:10E640002069732061646465642053756363657336
:10E650007366756C6C7920253034580A0000000010
:10E660004641494C454420746F20616464204865EC
:10E6700061727420526174652053657276696365B6
:10E680002028485253292C204572726F723A202557
:10E690003032582021210A0048656172742052618D
:10E6A0007465204D6561737572656D656E74204388
:10E6B000686172616374657269737469632041642F
:10E6C000646564205375636365737366756C6C79F8
:10E6D000202025303458200A000000004641494CD3
:10E6E000454420746F206164642048656172742021
:10E6F00052617465204D6561737572656D656E74E8
:10E700002043686172616374657269737469632C14
:10E71000204572726F723A20253032582021210A2A
:10E720000000000000000048010000000000004858
:10E730000100000000000048010000000000004847
:10E740000100000000000048010000000000004837
:10E750000100000000000048010000000000004827
:10E760000100000000000048010000000000004817
:10E770000100000000000048010000000000004807
:10E7800001000000000000480100000000000048F7
:10E7900001000000000000480100000000000048E7
:10E7A00001000000000000480100000000000048D7
:10E7B00001000000000000480100000000000048C7
:10E7C00001000000000000480100000000000048B7
:10E7D00001000000000000480100000000000048A7
:10E7E0000100000000000048010000000000004897
:10E7F0000100000000000048010000000000004887
:10E800000100000000000048010000000000004876
:10E810000100000000000048010000000000004866
:10E820000100000000000048010000000000004856
:10E830000100000000000048010000000000004846
:10E840000100000000000048010000000000004836
:10E85000010000006C7AD8AC577200001234567870
:10E860009ABCDEF0123456789ABCDEF0FEDCBA09AF
:10E8700087654321FEDCBA09876543210948525365
:10E88000544D0000010000000300000005000000DE
:10E890000100000001000000060000000A00000066
:10E8A000200000000200000004000000080000003A
:10E8B0001000000040000000800000000001000087
:10E8C00000020000A0860100400D0300801A06002F
:10E8D00000350C0040420F0080841E0000093D00FE
:10E8E00000127A000024F40000366E010048E801AE
:10E8F000006CDC02000000000000000000000000CE
:10E9000000000000040302020101010100000000F8
:10E9100000000000494E4600696E66004E414E0000
:10E920006E616E003000303132333435363738396D
:10E93000414243444546003031323334353637386E
:10E940003961626364656600496E66696E697479EF
:10E95000004E614E005245454E54206D616C6C6F07
:10E960006320737563636565646564002F62756910
:10E970006C642F676E752D746F6F6C732D666F727C
:10E980002D73746D33325F31322E332E72656C31DC
:10E990002E32303234303330362D313733302F731E
:10E9A00072632F6E65776C69622F6E65776C696232
:10E9B0002F6C6962632F7374646C69622F64746F67
:10E9C000612E630042616C6C6F63207375636365D5
:10E9D00065646564002F6275696C642F676E752DC0
:10E9E000746F6F6C732D666F722D73746D33325F3D
:10E9F00031322E332E72656C312E32303234303358
:10EA000030362D313733302F7372632F6E65776C4C
:10EA100069622F6E65776C69622F6C6962632F7310
:10EA200074646C69622F6D707265632E6300000000
:10EA300005000000190000007D000000000000003B
:10EA40000080E03779C34143176E05B5B5B89346EA
:10EA5000F5F93FE9034F384D321D30F94877825AB6
:10EA60003CBF737FDD4F1575000000000000F03FD4
:10EA70000000000000002440000000000000594099
:10EA80000000000000408F40000000000088C340EC
:10EA900000000000006AF8400000000080842E4161
:10EAA00000000000D01263410000000084D79741AD
:10EAB0000000000065CDCD41000000205FA00242B3
:10EAC000000000E876483742000000A2941A6D4228
:10EAD000000040E59C30A2420000901EC4BCD6421B
:10EAE00000003426F56B0C430080E03779C34143C6
:10EAF00000A0D8855734764300C84E676DC1AB433C
:10EB0000003D9160E458E143408CB5781DAF154459
:10EB100050EFE2D6E41A4B4492D54D06CFF0804434
:10EB2000F64AE1C7022DB544B49DD9794378EA4449
:10EB3000232D302B2000686C4C00656667454647E6
:10EB4000004300504F534958002E002C2066756E2C
:10EB50006374696F6E3A2000617373657274696FD4
:10EB60006E2022257322206661696C65643A2066F6
:10EB7000696C6520222573222C206C696E65202526
:10EB800064257325730A00002020202020202020E7
:10EB9000202828282828202020202020202020204D
:10EBA000202020202020202088101010101010106D
:10EBB00010101010101010100404040404040404B5
:10EBC0000404101010101010104141414141410146
:10EBD0000101010101010101010101010101010125
:10EBE0000101011010101010104242424242420234
:10EBF00002020202020202020202020202020202F5
:10EC0000020202101010102000000000000000009E
:10EC100000000000000000000000000000000000F4
:10EC200000000000000000000000000000000000E4
:10EC300000000000000000000000000000000000D4
:10EC400000000000000000000000000000000000C4
:10EC500000000000000000000000000000000000B4
:10EC600000000000000000000000000000000000A4
:10EC70000000000000000000000000000000000094
:08EC800000000000000000008C
:08EC8800F814FF7F01000000F9
:04EC90006501000812
:04EC94004101000832
:10EC98000DFF01000000000000000000000000005F
:10ECA80000093D001000000001010000FFFFFFFF08
:10ECB800FFFFFFFF000000000300000048070020DE
:10ECC8003C0000200000000048070020B00700209A
:10ECD80018080020000000000000000000000000EC
:10ECE800000000000000000000000000000000001C
:10ECF800000000000000000000000000000000000C
:10ED080000000000000000000000000000000000FB
:10ED180043000000000000000000000000000000A8
:10ED280000000000000000000000000000000000DB
:10ED38004300000000000000000000000000000088
:10ED480000000000000000000000000000000000BB
:10ED58004300000000000000000000000000000068
:10ED6800000000000000000000000000000000009B
:10ED78004300000000000000000000000000000048
:10ED8800000000000000000000000000000000007B
:10ED98004300000000000000000000000000000028
:10EDA800000000000000000000000000000000005B
:10EDB8004300000000000000000000000000000008
:10EDC800000000000000000000000000000000003B
:10EDD80043000000000000000000000000000000E8
:10EDE800000000000000000000000000000000001B
:10EDF80071CF00084DCF00080000000087EB000825
:10EE080049EB000886EB000886EB000886EB000853
:10EE180086EB000886EB000886EB000886EB000806
:10EE280086EB000886EB0008FFFFFFFFFFFFFFFFF0
:10EE3800FFFFFFFFFFFF0000010041534349490066
:10EE480000000000000000000000000000000000BA
:10EE58000000000000000000000041534349490041
:10EE6800000000000000000000000000000000009A
:0CEE78000000000000000000000000008E
:10EE8400000000000000000000000000000000007E
:10EE9400000000000000000000000000000000006E
:10EEA400000000000000000000000000000000005E
:0DEEB4000000000000000000000000000051
:10EEC1000000000000000000000000000000000041
:01EED1000040
:04000005080039CDE9
:00000001FF
